:020000040000FA
:060000000A128A11EE2F26
:100CDA00013400348316031788018901831603132C
:100CEA00890187018801013086000330850083125B
:100CFA00031389018701880186018501080083128F
:100D0A0003130914891009110630F2001330F10097
:100D1A00AD30F000F00B8F2EF10B8F2EF20B8F2ED1
:100D2A00962E831203130910891409110630F20052
:100D3A001330F100AD30F000F00BA12EF10BA12E13
:100D4A00F20BA12EA82E831203130910891009157C
:100D5A000630F2001330F100AD30F000F00BB32E84
:100D6A00F10BB32EF20BB32EBA2E0800F3000830A3
:100D7A007306031DC12EC22EF72E83120313061506
:100D8A00803087000630F2001330F100AD30F000F9
:100D9A00F00BCD2EF10BCD2EF20BCD2ED42EF72E3D
:100DAA00831203130714162F8312031307108714D1
:100DBA00162F8312031387100715162F8312031396
:100DCA0007118715162F8312031387110716162F7B
:100DDA008312031307128716162F8312031387121F
:100DEA000717162F7308F000F1017108003A03196A
:100DFA00FF2E162F7008013A0319D52E033A03194C
:100E0A00D92E013A0319DE2E073A0319E32E013AC5
:100E1A000319E82E033A0319ED2E013A0319F22EAB
:100E2A00162F0800F30008307306031D1D2F1E2F0E
:100E3A00532F831203138615803088000630F20080
:100E4A001330F100AD30F000F00B292FF10B292FF0
:100E5A00F20B292F302F532F831203130814722FEA
:100E6A008312031308108814722F83120313881035
:100E7A000815722F8312031308118815722F831213
:100E8A00031388110816722F831203130812881687
:100E9A00722F8312031388120817722F7308F00037
:100EAA00F1017108003A03195B2F722F7008013A99
:100EBA000319312F033A0319352F013A03193A2F2F
:100ECA00073A03193F2F013A0319442F033A03192A
:100EDA00492F013A03194E2F722F08000A128A115C
:100EEA006F260A128A11F801F7010130FB0000305F
:100EFA00FC00831203130618832F842F732F0A1200
:100F0A008A1184260A128A11E42F83120313051800
:100F1A008F2F902FC02F8230F500DD30F400F40BB4
:100F2A00942FF50B942F992F83120313051C9E2FD0
:100F3A009F2FE42F0130F4007408F80778080A128A
:100F4A008A11BB260A128A1108307806031DAE2FB1
:100F5A00AF2FE42F0330F6000830F5007730F400A5
:100F6A00F40BB52FF50BB52FF60BB52F0230FB009E
:100F7A000030FC00E42F8518C32FC42FE42F8230E1
:100F8A00F500DD30F400F40BC82FF50BC82FCD2F78
:100F9A0083120313851CD22FD32FE42F0130F400C0
:100FAA007408F70777080A128A1117270A128A1192
:100FBA0008307706031DE22FE32FE42FAF2F7B03C0
:100FCA007C040319E92FEA2F8A2F732F0A128A1138
:100FDA0000280A128A116D260A128A11FB000A12C7
:100FEA008A116E260A128A11FC00F901FA0183019C
:060FFA000A128A11732F98
:04400E00D120FF3F7F
:00000001FF
