:020000040000FA
:060000000A128A11EE2F26
:100CC4000134003483160317880189018316031342
:100CD4008901870188010130860003308500831271
:100CE40003138901870188018601850108008312A5
:100CF40003130914891009110630F2001330F100AE
:100D0400AD30F000F00B842EF10B842EF20B842E08
:100D14008B2E831203130910891409110630F20073
:100D24001330F100AD30F000F00B962EF10B962E3F
:100D3400F20B962E9D2E83120313091089100915A8
:100D44000630F2001330F100AD30F000F00BA82EA5
:100D5400F10BA82EF20BA82EAF2E0800F3000830DA
:100D64007306031DB62EB72EEC2E831203138615BD
:100D7400803088000630F2001330F100AD30F0000E
:100D8400F00BC22EF10BC22EF20BC22EC92EEC2E8A
:100D94008312031308140B2F8312031308108814EF
:100DA4000B2F83120313881008150B2F83120313C0
:100DB400081188150B2F83120313881108160B2FA3
:100DC40083120313081288160B2F8312031388123D
:100DD40008170B2F7308F000F1017108003A03198A
:100DE400F42E0B2F7008013A0319CA2E033A031983
:100DF400CE2E013A0319D32E073A0319D82E013AFD
:100E04000319DD2E033A0319E22E013A0319E72EE2
:100E14000B2F0800F30008307306031D122F132F45
:100E2400262F831203130615803087000630F20044
:100E34001330F100AD30F000F00B1E2FF10B1E2F1C
:100E4400F20B1E2F252F722F7303031D2A2F2B2F16
:100E5400302F0130831203138700722F0230730680
:100E6400031D352F362F3B2F0230831203138700C7
:100E7400722F03307306031D402F412F462F043079
:100E8400831203138700722F04307306031D4B2F44
:100E94004C2F512F0830831203138700722F053013
:100EA4007306031D562F572F5C2F10308312031324
:100EB4008700722F06307306031D612F622F672F80
:100EC4002030831203138700722F07307306031D2B
:100ED4006C2F6D2F722F4030831203138700722FF3
:100EE40008000A128A1164260A128A11F801F7010D
:100EF4000130FB000030FC00831203130618832F1B
:100F0400842F732F0A128A1179260A128A11E42F68
:100F14008312031305188F2F902FC02F8230F500F2
:100F2400DD30F400F40B942FF50B942F992F8312DA
:100F34000313051C9E2F9F2FE42F0130F400740827
:100F4400F80778080A128A110C270A128A11083045
:100F54007806031DAE2FAF2FE42F0330F6000830C0
:100F6400F5007730F400F40BB52FF50BB52FF60B25
:100F7400B52F0230FB000030FC00E42F8518C32F8E
:100F8400C42FE42F8230F500DD30F400F40BC82FB9
:100F9400F50BC82FCD2F83120313851CD22FD32F0B
:100FA400E42F0130F4007408F70777080A128A1155
:100FB400B0260A128A1108307706031DE22FE32FA8
:100FC400E42FAF2F7B037C040319E92FEA2F8A2F28
:100FD400732F0A128A1100280A128A1162260A1231
:100FE4008A11FB000A128A1163260A128A11FC0074
:0C0FF400F901FA0183010A128A11732F1F
:04400E00D120FF3F7F
:00000001FF
