:020000040000FA
:060000000A128A11FC2F18
:100F5E00831603178801890183160313890108007C
:100F6E000A128A11AF270A128A110A128A11C5278C
:100F7E000A128A11BC2F0A128A1100288312031337
:100F8E000914891009110630F2001330F100AD304A
:100F9E00F000F00BD02FF10BD02FF20BD02FD72F5C
:100FAE00831203130910891409110630F20013304D
:100FBE00F100AD30F000F00BE22FF10BE22FF20B4F
:100FCE00E22FE92F83120313091089100915063039
:100FDE00F2001330F100AD30F000F00BF42FF10BF6
:100FEE00F42FF20BF42FFB2F080083010A128A1143
:020FFE00B72F0B
:04400E00D120FF3F7F
:00000001FF
