:020000040000FA
:060000000A128A11FC2F18
:100C700083160313860183120313860108000A12E8
:100C80008A115B260A128A118316031311140800B5
:100C90000A128A115B260A128A1183160313111590
:100CA00008000A128A115B260A128A117008831240
:100CB000031393000800831603131419602E612E8A
:100CC0005B2E11081F39031D662E672E5B2E080050
:100CD000003083120313A3000130A2008630A1006C
:100CE000A030A0000A128A11E2260A128A11080016
:100CF0000A128A1168260A128A110A128A113826E3
:100D00000A128A1100300A128A11AB260A128A11BD
:100D10007508FD007408FC007308FB007208FA00F7
:100D20000A128A1180270A128A117A088312031381
:100D30008600063083120313AA001330A900AD30D9
:100D4000A800A80BA12EA90BA12EAA0BA12E822EC2
:100D50000A128A110028F9000A128A113F260A1283
:100D60008A119030F0000030F1000A128A115126E9
:100D70000A128A117908F600F7017608F000770860
:100D8000F1000A128A1151260A128A119130F000DC
:100D90000030F1000A128A1151260A128A110A1231
:100DA0008A1148260A128A110230F8000430F7002E
:100DB000BA30F600F60BDA2EF70BDA2EF80BDA2E35
:100DC00000000800283083120313940083160313D5
:100DD0009101831203132008A4002108A500220812
:100DE000A6002308A70002300310A40DA50DA60D30
:100DF000A70DFF3E031DF42E2708F3002608F2007E
:100E00002508F1002408F0000030F7003D30F6001E
:100E10000930F5000030F4000A128A111A270A126C
:100E20008A117008FF3E83160313930094018715FF
:100E3000071608000030FC000030FB000030FA000C
:100E40000030F90073087204710470040319292F2B
:100E50002A2F772FFD01FD0A3A2F0130F8000310E9
:100E6000F00DF10DF20DF30DF80B2F2F0130F800FE
:100E70007808FD07F31F3D2F3E2F2D2F0130F8007E
:100E80000310F90DFA0DFB0DFC0DF80B402F730844
:100E90007702031D552F72087602031D552F710826
:100EA0007502031D552F70087402031C582F592F0B
:100EB000682F7008F4027108031C710FF5027208A4
:100EC000031C720FF6027308031C730FF7027914E8
:100ED00001300310F30CF20CF10CF00CFF3E031D7B
:100EE000692F0130FD02031D762F772F3E2F7C08DE
:100EF000F3007B08F2007A08F1007908F00008009E
:100F000003107C0D7D0D83120313A0002008A600A2
:100F10002608031D8C2F8D2F962F0030FD000030EA
:100F2000FC000030FB000030FA00FB2F7A08A00024
:100F30007B08A1007C08A2007D08A3001F300310DD
:100F4000A30CA20CA10CA00CFF3E031D9F2F200898
:100F5000A4002408A500FC17FF30FA05FF30FB05AC
:100F6000FF30FC050030FD059630A602A61FB92F04
:100F7000BA2FD42F2608803A973E0318C02FC12FCE
:100F8000C22F8D2F01300310FD0CFC0CFB0CFA0C52
:100F9000FF3E031DC32F0130A0002008A607031D3C
:100FA000D22FD32FC22FEB2F20302602031CD92F94
:100FB000DA2FE62F8D2F0130A0000310FA0DFB0D64
:100FC000FC0DFD0DA00BDD2F0130A6022608031D30
:100FD000EA2FEB2FDB2F25080319EF2FF02FFB2F24
:100FE000FA09FB09FC09FD09FA0A0319FB0A0319AE
:100FF000FC0A0319FD0A080083010A128A11782EDF
:04400E00D520FF3F7B
:00000001FF
