:020000040000FA
:060000000A128A11EB2F29
:10039E008316031386018312031386010800831646
:1003AE000313111483128C1DDD29DE29D9298C111A
:1003BE00080083160313111583128C1DE729E829F3
:1003CE00E3298C11080083160313911483128C1DDC
:1003DE00F129F229ED298C110800F0007008831222
:1003EE00031393008C1DFC29FD29F9298C1108009B
:1003FE00F0007018032A072A8316031391160A2A8F
:10040E00831603139112111683128C1D0F2A102AB4
:10041E000B2A8C110800F100831603139115831219
:10042E008C1D1A2A1B2A162A8C1171080A128A117F
:10043E00FF210A128A118312031313080800A03039
:10044E000A128A1165220A128A118030F1002330B5
:10045E00F20003300A128A1141220A128A118030E8
:10046E00F1001E30F20002300A128A1141220A12E5
:10047E008A110800F3000A128A11D6210A128A1173
:10048E0090300A128A11F4210A128A1173080A1284
:10049E008A11F4210A128A1172080A128A11F421A1
:1004AE000A128A1171080A128A11F4210A128A118B
:1004BE000A128A11E0210A128A110800FD00831621
:1004CE000313871507167D08F900FA01FB01FC01DD
:1004DE007C08F3007B08F2007A08F1007908F0003E
:1004EE000030F7000030F6000330F500E830F4007D
:1004FE000A128A11FC230A128A117008FF3E831613
:10050E000313930080309400283083120313940059
:10051E0008000A128A1126220A128A110A128A1158
:10052E00CF210A128A1100300A128A111D230A12D3
:10053E008A11831203133608C1003508C00034082F
:10054E00BF003308BE000A128A1180230A128A11D4
:10055E00831203133E088600063083120313CB006A
:10056E001330CA00AD30C900C90BBB2ACA0BBB2A57
:10057E00CB0BBB2A9A2A0A128A1100288312031364
:10058E002908AD002808AC000830FF002D0DAD0C79
:10059E00AC0CFF0BCD2A2C08F0002D08F10000301A
:1005AE00F11BFF30F200F30001300A128A11992478
:1005BE000A128A11730883120313B2007208B10073
:1005CE007108B0007008AF0028088039AC002C0804
:1005DE00AE002E080319F42AF52A142B3F30F3002F
:1005EE000030F2000030F1000030F0003208F70069
:1005FE003108F6003008F5002F08F4000A128A11AF
:10060E0053250A128A11730883120313B20072085B
:10061E00B1007108B0007008AF003208AB003108AD
:10062E00AA003008A9002F08A8000800831203139F
:10063E00BD000A128A11D6210A128A1190300A12AE
:10064E008A11F4210A128A11831203133D080A1229
:10065E008A11F4210A128A110A128A11EA210A1247
:10066E008A1191300A128A11F4210A128A1100306D
:10067E000A128A1112220A128A1183120313B70068
:10068E00B8013708B9003808BA0001300A128A11C9
:10069E0012220A128A1183120313B700B801370807
:1006AE00BB003808BC000A128A11E0210A128A1116
:1006BE00831203133A08B8003908B7003708B80098
:1006CE00B7013B083707A8003C0803183C0A380757
:1006DE00A9000A128A11C5220A128A118312031363
:1006EE002B08B6002A08B5002908B4002808B30064
:1006FE000800031083120313400D410DC20042087F
:10070E00C8004808031D8C2B8D2B962B0030C10082
:10071E000030C0000030BF000030BE00FB2B3E0892
:10072E00C2003F08C3004008C4004108C5001F3086
:10073E000310C50CC40CC30CC20CFF3E031D9F2B33
:10074E004208C6004608C700C017FF30BE05FF307E
:10075E00BF05FF30C0050030C1059630C802C81F66
:10076E00B92BBA2BD42B4808803A973E0318C02BCE
:10077E00C12BC22B8D2B01300310C10CC00CBF0C32
:10078E00BE0CFF3E031DC32B0130C2004208C8073A
:10079E00031DD22BD32BC22BEB2B20304802031C74
:1007AE00D92BDA2BE62B8D2B0130C2000310BE0D98
:1007BE00BF0DC00DC10DC20BDD2B0130C8024808A4
:1007CE00031DEA2BEB2BDB2B47080319EF2BF02B2A
:1007DE00FB2BBE09BF09C009C109BE0A0319BF0A16
:1007EE000319C00A0319C10A080083120313A101D9
:1007FE00F31F022C032C102CF009F109F209F30956
:10080E00F00A0319F10A0319F20A0319F30AA101F6
:10081E00A10AF71F132C142C232CF409F509F60941
:10082E00F709F40A0319F50A0319F60A0319F70A68
:10083E000130F8007808A1060030A5000030A400B1
:10084E000030A3000030A20073087204710470041B
:10085E000319322C332C802CA001A00A432C01301A
:10086E00F8000310F00DF10DF20DF30DF80B382C0E
:10087E000130F8007808A007F31F462C472C362CC1
:10088E000130F8000310A20DA30DA40DA50DF80B59
:10089E00492C73087702031D5E2C72087602031D25
:1008AE005E2C71087502031D5E2C70087402031C09
:1008BE00612C622C712C7008F4027108031C710FEC
:1008CE00F5027208031C720FF6027308031C730FF5
:1008DE00F702221401300310F30CF20CF10CF00CA1
:1008EE00FF3E031D722C0130A002031D7F2C802CB5
:1008FE00472C21080319842C852C902CA209A309BE
:10090E00A409A509A20A0319A30A0319A40A031923
:10091E00A50A2508F3002408F2002308F100220896
:10092E00F0000800F800780803199E2C9F2CB32CB9
:10093E00F31FA22CA32CB32C7009FA007109FB0033
:10094E007209FC007309FD00FA0A0319FB0A031968
:10095E00FC0A0319FD0ABB2C7308FD007208FC008B
:10096E007108FB007008FA007308720471047004B9
:10097E00031DC22CC32CCC2C0030F3000030F2002F
:10098E000030F1000030F000522D9630F400740863
:10099E00F900DE2C0130F4007408F9070130031061
:1009AE00FD0CFC0CFB0CFA0CFF3E031DD62CFE308E
:1009BE007D05031DE32CE42CD12C002D0130F40019
:1009CE007408F9070130FA07003003180130FB07ED
:1009DE00003003180130FC07003003180130FD070A
:1009EE0001300310FD0CFC0CFB0CFA0CFF3E031D3A
:1009FE00F82CFF307D05031D052D062DE52C122D3F
:100A0E000130F9020130F4000310FA0DFB0DFC0D5C
:100A1E00FD0DF40B0B2DFC1B152D162D1C2D023070
:100A2E00790203181B2D1C2D072D79181F2D202D33
:100A3E00282DFF30FA05FF30FB057F30FC05FF3017
:100A4E00FD050310F90C7908F400F501F601F70124
:100A5E0018300310F40DF50DF60DF70DFF3E031DC6
:100A6E00302D7408FA047508FB047608FC04770828
:100A7E00FD0478080319442D452D4A2DF31F482DEA
:100A8E00492D4A2DFD177D08F3007C08F2007B08E6
:100A9E00F1007A08F00008007308803983120313FE
:100AAE00A0002008F8007308A0002007A10021086C
:100ABE00FA00F21F632D642D652D7A147A0803193E
:100ACE00692D6A2D7A2D7A0A031D6E2D6F2D772DC5
:100ADE000030F3000030F2000030F1000030F00082
:100AEE00F217F301822D0030F3000030F2000030D7
:100AFE00F1000030F00077088039A0002008F900DE
:100B0E007908780603198C2D8D2D8E2D7817770880
:100B1E00A0002007A1002108F900F61F972D982D9F
:100B2E00992D7914790803199D2D9E2DAE2D790AD4
:100B3E00031DA22DA32DAB2D0030F7000030F600C3
:100B4E000030F5000030F400F617F701B62D003036
:100B5E00F7000030F6000030F5000030F4007A089F
:100B6E0079020318BB2DBC2D002E781FBF2DC02D72
:100B7E00C42D8030A0002008F8067A08A0002008B6
:100B8E00FB007908A0002008FA007B08A0002008CE
:100B9E00F9007008A0002008FB007408A0002008CF
:100BAE00F0007B08A0002008F4007108A0002008C7
:100BBE00FB007508A0002008F1007B08A0002008AB
:100BCE00F5007208A0002008FB007608A00020089F
:100BDE00F2007B08A0002008F6007308A000200891
:100BEE00FB007708A0002008F3007B08A000200877
:100BFE00F700FB017908A000A1012108A3007A08E3
:100C0E002002A200031CA3032308803AFF008030B9
:100C1E007F02031D142E1A302202031C172E182ECB
:100C2E00592E7308720471047004031D1F2E212E99
:100C3E000130222E003083120313A0002008FB0087
:100C4E000030F3000030F2000030F1000030F00010
:100C5E007908A0002008FA005F2E7B1C372E382E54
:100C6E00432E7B0883120313A0000310200C0138BF
:100C7E00A1002108FB00452E0310FB0C701C482E12
:100C8E00492E4A2EFB17013083120313A000730D59
:100C9E00F30CF20CF10CF00CA00B4E2E0130A00058
:100CAE002008FA0779087A02031C5E2E5F2E342E76
:100CBE00781B622E632EB22E7A08031D672E682EC5
:100CCE00712E0030F3000030F2000030F1000030E1
:100CDE00F000EA2F7408F007750803110318013E9F
:100CEE0003197A2EF107760803110318013E031932
:100CFE00812EF207770803110318013E0319882E7F
:100D0E00F307731C8B2E8C2E6A2F7B1C8F2E902E2E
:100D1E009B2E7B0883120313A0000310200C0138B6
:100D2E00A1002108FB009D2E0310FB0C701CA02EB1
:100D3E00A12EA22EFB17013083120313A000730DF8
:100D4E00F30CF20CF10CF00CA00BA62E0130A0004F
:100D5E002008FA076A2F7308803AFF007708803A56
:100D6E007F02031DC42E76087202031DC42E750861
:100D7E007102031DC42E740870020318C72EC82EEC
:100D8E00222FFF3083120313A000FF30A100FF308B
:100D9E00A200FF30A3007408A4007508A500760811
:100DAE00A6007708A7007008A4027108031C710F33
:100DBE00E12EE22EA5027208031C720FE72EE82E1A
:100DCE00A6027308031C730FED2EEE2EA702240845
:100DDE00A00725080318250FF52EF62EA1072608C5
:100DEE000318260FFB2EFC2EA20727080318270A2E
:100DFE00A3072308F3002208F2002108F1002008BF
:100E0E00F0008030A0002008F806FB09FB0A7B08E2
:100E1E00031D122F132F302F0130F007003003184F
:100E2E000130F107003003180130F20700300318CB
:100E3E000130F307302F7408F0027508031C750F8C
:100E4E00F1027608031C760FF2027708031C770F67
:100E5E00F3027308720471047004031D372F382FC8
:100E6E00662F7B08031D3C2F3D2F662F0030F300AD
:100E7E000030F2000030F1000030F000EA2F0130B7
:100E8E0083120313A0000310F00DF10DF20DF30DFC
:100E9E00A00B4A2FFB1F542F552F562F70147B1C5F
:100EAE00592F5A2F5D2F0314FB0D5F2F0310FB0DCF
:100EBE007A080319632F642F662F0130FA02F21F8E
:100ECE00692F6A2F462FF901FB1F6E2F6F2F7D2F73
:100EDE007B087F390319742F752F782FF901F90AC2
:100EEE007D2F701C7B2F7C2F7D2F752F790803197A
:100EFE00812F822FB82F0130F007003003180130F8
:100F0E00F107003003180130F207003003180130EA
:100F1E00F307731C932F942FB82F700883120313AB
:100F2E00A0007108A1007208A2007308A30001308E
:100F3E00A400230DA30CA20CA10CA00CA40BA02F9B
:100F4E002308F3002208F2002108F1002008F00027
:100F5E007A0A0319B32FB42FB82F0130A00020083E
:100F6E00FA077A0A0319BC2FBD2FC22F7A08031D68
:100F7E00C12FC22FD02F0030F3000030F20000300E
:100F8E00F1000030F0007A08031DCE2FCF2FD02FA6
:100F9E00F8017A1CD32FD42FD62FF217DC2F7F30E7
:100FAE0083120313A0002008F2057A08831203139C
:100FBE00A0000310200CA1002108F300F81FE82F59
:100FCE00E92FEA2FF317080083120313CC01CD018A
:100FDE00CE01CF01D001D101D201D301D401D5016F
:100FEE00D601D701D801D901DA0183010A128A117B
:020FFE00902A37
:04400E00D520FF3F7B
:00000001FF
