:020000040000FA
:100000000A128A11FC2F00308A000408840A820731
:100010000034473452344134433449344134533446
:100020002034423441344234593400344434653449
:10003000763465346C346F34703465346434203411
:1000400042347934003465346C3465346334743448
:1000500072346F3453346F346D3465340034543437
:0C0060004534203441344D344F3400341A
:100C3C00F000700883120313870008008316031753
:100C4C00880189018316031387018801831203131A
:100C5C008501080000300A128A1157260A128A11DF
:100C6C0001300A128A1157260A128A110800013023
:100C7C000A128A1157260A128A1108300A128A118E
:100C8C0057260A128A11080001300A128A115726B7
:100C9C000A128A110C300A128A1157260A128A116A
:100CAC000800F30083120313081173080A128A1147
:100CBC001E260A128A118312031388150B30F200B8
:100CCC006230F100F10B682EF20B682E00008312DB
:100CDC00031388110800F4007408F039F10071084E
:100CEC00F30083120313081574080A128A111E26C6
:100CFC000A128A118312031388151A30F100F10BB2
:100D0C00852E00008312031388111A30F100F10BA9
:100D1C008D2E00000800F6007603031D962E972EEC
:100D2C00A32E74087F3EF5007508F70077080A12A9
:100D3C008A1157260A128A11B42E02307606031D28
:100D4C00A82EA92EB42E7408BF3EF5007508F70026
:100D5C0077080A128A1157260A128A110800F7001E
:100D6C00F501F601CC2E7508770784000A128A115A
:100D7C0003200A128A110A128A1171260A128A1188
:100D8C000130F5070318F60A0030F60775087707E7
:100D9C0084000A128A1103200A128A11003A031DD8
:100DAC00D82ED92EB92E080000300A128A111E2610
:100DBC000A128A113430F500F130F400F40BE42EF1
:100DCC00F50BE42EE92E3F300A128A1157260A122F
:100DDC008A111A30F500F830F400F40BF32EF50BF1
:100DEC00F32E00003F300A128A1157260A128A117C
:100DFC008530F400F40B002F3F300A128A1157266D
:100E0C000A128A1132300A128A1157260A128A11D2
:100E1C0038300A128A1157260A128A110C300A121B
:100E2C008A1157260A128A1106300A128A1157267D
:100E3C000A128A1108000A128A1124260A128A112F
:100E4C000A128A11DA260A128A110A128A1130261B
:100E5C000A128A11F401F40A01300A128A1191263D
:100E6C000A128A1127300A128A11B5260A128A111F
:100E7C00F401F40A02300A128A1191260A128A111C
:100E8C0001300A128A11B5260A128A111530FA009D
:100E9C004B30F900BE30F800F80B522FF90B522FE3
:100EAC00FA0B522F00000A128A1130260A128A11EC
:100EBC00F401F40A01300A128A1191260A128A11DD
:100ECC000E300A128A11B5260A128A11F401F40A9C
:100EDC0002300A128A1191260A128A111B300A1248
:100EEC008A11B5260A128A111530FA004B30F90016
:100EFC00BE30F800F80B802FF90B802FFA0B802FE7
:100F0C0000000A128A1130260A128A11FB01FC0118
:100F1C000430FA000C30F9003330F800F80B942F41
:100F2C00F90B942FFA0B942F9B2F0A128A113D2642
:100F3C000A128A110130FB070318FC0A0030FC0767
:100F4C0000307C020F3003197B02031CAE2FAF2F35
:100F5C008E2FFB01FC010430FA000C30F900333009
:100F6C00F800F80BB72FF90BB72FFA0BB72FBE2FD2
:100F7C000A128A114A260A128A110130FB07031839
:100F8C00FC0A0030FC0700307C020F3003197B0296
:100F9C00031CD12FD22FB12F0A128A1130260A121C
:100FAC008A11F401F40A02300A128A1191260A12EB
:100FBC008A1165300A128A1171260A128A1153306D
:100FCC000A128A1171260A128A111530FA004B3056
:100FDC00F900BE30F800F80BF12FF90BF12FFA0BDA
:100FEC00F12F00002B2F0A128A11002883010A12FC
:040FFC008A11212F06
:04400E00D520FF3F7B
:00000001FF
