:020000040000FA
:060000000A128A110C280F
:10000800FE00030EF1000A08F2000A168A15792A82
:100018000A128A110F28831603130A128A11FE275F
:100028000A128A11ED000A128A11FF270A128A1190
:10003800EE008313D1308400ED300A168A110020B7
:100048000A128A1183120313EC01FA0183010A16BA
:100058008A158E2E83160313480883120313A300F0
:1000680083160313470883120313A200831603138E
:10007800460883120313A10083160313450883124D
:100088000313A0000030A7000030A6000030A50030
:100098000030A4000A168A15D0230A128A11031800
:1000A800562857283929831603134808831203133F
:1000B800DA0083160313470883120313D900831643
:1000C8000313460883120313D80083160313450845
:1000D80083120313D7000A128A1170270A128A1191
:1000E800831203135A08590458045704031D7D2822
:1000F8007E283929831603134408803AFF0080308C
:100108007F02031D892802304302031C8C288D2896
:100118003929831603133E0883120313A300831699
:1001280003133D0883120313A200831603133C082C
:1001380083120313A100831603133B0883120313CE
:10014800A0004030A7008930A6007030A5005F30BD
:10015800A4000A168A152E250A128A110318B52832
:10016800B628BF28F73083160313C3070318C40A39
:10017800FF30C407C728F83083160313C3070318D2
:10018800C40AFF30C40743080A128A159D240A12BC
:100198008A1183120313470883160313BE008312C0
:1001A8000313460883160313BD008312031345087F
:1001B80083160313BC008312031344088316031326
:1001C800BB00480883120313A300831603134708D0
:1001D80083120313A2008316031346088312031322
:1001E800A10083160313450883120313A000831686
:1001F80003133E0883120313A700831603133D0855
:1002080083120313A600831603133C0883120313F7
:10021800A500831603133B0883120313A4000A12D4
:100228008A11B0260A128A1183120313230883162F
:100238000313C20083120313220883160313C10099
:1002480083120313210883160313C00083120313B8
:10025800200883160313BF000030C8000030C70011
:100268000030C6000030C5009F29831603134808D4
:1002780083120313DA008316031347088312031348
:10028800D90083160313460883120313D800831674
:100298000313450883120313D7000A128A11702723
:1002A8000A128A11831203135A0883160313C20011
:1002B80083120313590883160313C100831203130F
:1002C800580883160313C0008312031357088316B4
:1002D8000313BF004208F6004108F5004008F40087
:1002E8003F08F30000300A168A15D2250A128A112F
:1002F800760883160313A3007508A2007408A100EA
:100308007308A0004808A7004708A6004608A500EB
:100318004508A4000A168A1520240A128A11831691
:1003280003132308C8002208C7002108C6002008B4
:10033800C500C301C401CC01CC0A4C08AD00013092
:100348000310AD0DFF3E031DA42903102D0D693EBA
:1003580084000A168A150A200A128A11AE000A16A3
:100368008A150A200A128A11AF000A168A150A206D
:100378000A128A11B0000A168A150A200A128A116E
:10038800B10031084202031DD32930084102031D80
:10039800D3292F084002031DD3292E083F02031832
:1003A800D629D729D829E2290130AD002D08CC0754
:1003B8000A304C06031DE129E229A1294C084A0705
:1003C800AD004B0803184B0AAE0043082D07AF00D9
:1003D80044080318440A2E07B0002F08B902300851
:1003E800031CBA03BA024A084B040319FC29FD2965
:1003F800032AFF30B9070318BA0AFF30BA070330D7
:100408003705AD0000303805AE002D082E0403195D
:100418000E2A0F2A242AFF30B9070318BA0AFF3018
:10042800BA07242A203083160313AD004908840034
:100438002D08831380000130AD002D08C9070F2A4D
:100448003A08803AFF0080307F02031D2D2A0130D0
:1004580039020318302A312A162A03308316031367
:100468003705AD0000303805AE002D082E040319FD
:100478003E2A3F2AF12A2D30AD00490884002D0874
:10048800831380000130AD002D08C907F12A4C08FC
:10049800AD0001300310AD0DFF3E031D4E2A0310C1
:1004A8002D0D693E84000A168A150A200A128A113F
:1004B80083120313A0000A168A150A200A128A1149
:1004C800A1000A168A150A200A128A11A2000A1621
:1004D8008A150A200A128A11A300831603134208F8
:1004E80083120313A700831603134108831203130F
:1004F800A60083160313400883120313A50083166E
:1005080003133F0883120313A4000A168A15C6248E
:100518000A128A1183120313230883160313BE00D9
:1005280083120313220883160313BD0083120313D7
:10053800210883160313BC008312031320088316B3
:100548000313BB00003083120313AB000030AA0072
:100558000030A9000A30A800831603133E0883124E
:100568000313AF00831603133D0883120313AE0071
:10057800831603133C0883120313AD008316031379
:100588003B0883120313AC000A168A1570240A125A
:100598008A11831203132B0883160313BE008312D8
:1005A80003132A0883160313BD00831203132908B3
:1005B80083160313BC00831203132808831603133E
:1005C800BB003B08303EAD00490884002D0883136A
:1005D80080000130AD002D08C9070130CC024C0A5B
:1005E800031DF72AF82A4B2A0C2B303083160313E5
:1005F800AD00490884002D08831380000130AD0048
:100608002D08C907FF30C3070318C40AFF30C40701
:100618004408803AFF0080307F02031D152B01300B
:1006280043020318182B192BF92A831603134B08B6
:10063800803AFF0080307F02031D242B09304A02D4
:10064800031C272B282B2F2B083083160313AD00F0
:100658002D08CC00352B831603134A08AD002D084E
:10066800CC004C08AD00AE012D08CA022E08031CB0
:10067800CB03CB024C080319422B432B4E2B2E30B5
:10068800AD00490884002D08831380000130AD00B7
:100698002D08C9074C080A128A159D240A128A11C6
:1006A80083120313470883160313B5008312031339
:1006B800460883160313B4008312031345088316F0
:1006C8000313B30083120313440883160313B20001
:1006D800350883120313B1008316031334088312F9
:1006E8000313B00083160313330883120313AF00F8
:1006F80083160313320883120313AE008316031301
:10070800480883120313AD008316031347088312A6
:100718000313AC0083160313460883120313AB00BC
:1007280083160313450883120313AA000A128A15B5
:100738003C210A128A11831203132D08DA002C08AF
:10074800D9002B08D8002A08D7000A128A11702766
:100758000A128A11831203135A0883160313C2005C
:1007680083120313590883160313C100831203135A
:10077800580883160313C0008312031357088316FF
:100788000313BF00C82C4C08AD0001300310AD0D99
:10079800FF3E031DCA2B03102D0D693E84000A1667
:1007A8008A150A200A128A1183120313A0000A1656
:1007B8008A150A200A128A11A1000A168A150A2027
:1007C8000A128A11A2000A168A150A200A128A1128
:1007D800A30083160313420883120313A70083168A
:1007E8000313410883120313A6008316031340085A
:1007F80083120313A500831603133F088312031300
:10080800A4000A168A15C6240A128A118312031331
:10081800230883160313BE008312031322088316CA
:100828000313BD0083120313210883160313BC00AE
:1008380083120313200883160313BB0000308312AE
:100848000313AB000030AA000030A9000A30A8004A
:10085800831603133E0883120313AF008316031392
:100868003D0883120313AE00831603133C0883125A
:100878000313AD00831603133B0883120313AC0064
:100888000A168A1570240A128A11831203132B0878
:1008980083160313BE00831203132A088316031357
:1008A800BD0083120313290883160313BC008312A7
:1008B8000313280883160313BB003B08303EAD0022
:1008C800490884002D08831380000130AD002D08ED
:1008D800C9074C08AD0001300310AD0DFF3E031DE4
:1008E800702C03102D0D693E84000A168A150A2003
:1008F8000A128A1183120313A8000A168A150A20FD
:100908000A128A11A9000A168A150A200A128A11DF
:10091800AA000A168A150A200A128A11AB00831641
:100928000313420883120313AF008316031341080D
:1009380083120313AE0083160313400883120313B4
:10094800AD00831603133F0883120313AC000A1685
:100958008A1570240A128A11831203132B0883162E
:100968000313C200831203132A0883160313C1005A
:1009780083120313290883160313C0008312031379
:10098800280883160313BF000130CC024C0A031D4C
:10099800CE2CCF2CC72BE12C3030AD004908840079
:1009A8002D08831380000130AD002D08C907FF30E2
:1009B800CA070318CB0AFF30CB074A084B04031DAC
:1009C800E62CE72CD02C972E3608840083130008D9
:1009D800AD00840A0008AE002D08BF002E08C00034
:1009E8000030C01BFF30C100C2000230AD002D082E
:1009F800B607C21F002D012D102D0330B70400309B
:100A0800B804BF09C009C109C209BF0A0319C00A4D
:100A18000319C10A0319C20A4A084B04031D152DFC
:100A2800162D242D4208410440043F04031D1D2DAA
:100A38001E2D242D0130CA070318CB0A0030CB071E
:100A4800CC01CC0A4C08AD0001300310AD0DFF3EBF
:100A5800031D292D03102D0D693E84000A168A15E1
:100A68000A200A128A11AE000A168A150A200A12EA
:100A78008A11AF000A168A150A200A128A11B000D4
:100A88000A168A150A200A128A11B1003108420290
:100A9800031D582D30084102031D582D2F08400210
:100AA800031D582D2E083F0203185B2D5C2D5D2D6C
:100AB800672D0130AD002D08CC070A304C06031D08
:100AC800662D672D262D4B08803A803C031D6E2D20
:100AD8004A084C020318712D722D792D83160313C1
:100AE8004A08AD002D08CC00912D831603134B083E
:100AF800803AAD0080302D02031D842D4C084A0237
:100B08000318872D882D912D831603134C08AD00EB
:100B1800AE012D08CA002E08CB008316031339082E
:100B28003A040319982D992DAB2D03303705AD00E4
:100B380000303805AE002D082E040319A42DA52D6C
:100B4800AB2DFF30B9070318BA0AFF30BA07381FB0
:100B5800AE2DAF2DCA2D4B08803AAD003A08803A29
:100B68002D02031DB92D39084A020318BC2DBD2DCD
:100B7800C62D831603134A08B9024B08031CBA038F
:100B8800BA02CA2D83160313B901BA013A08803A8A
:100B9800803C031DD12D39084C020318D42DD52DC6
:100BA800E12D831603134C08AD00AE012D08B902E0
:100BB8002E08031CBA03BA02E52D83160313B901E4
:100BC800BA0139083A040319EA2DEB2D022E203018
:100BD800AD00490884002D08831380000130AD0062
:100BE8002D08C907FF30B9070318BA0AFF30BA073A
:100BF80039083A04031D012E022EEB2D0330370568
:100C0800AD0000303805AE002D082E0403190D2E56
:100C18000E2E892E2D30AD00490884002D0883132F
:100C280080000130AD002D08C907892E00308312DD
:100C38000313AB000030AA000030A9000A30A80056
:100C4800831603134A08AD0001300310AD0DFF3EB3
:100C5800031D292E03102D0D693E84000A168A15DE
:100C68000A200A128A1183120313A0000A168A1591
:100C78000A200A128A11A1000A168A150A200A12E5
:100C88008A11A2000A168A150A200A128A11A300DC
:100C980083160313420883120313A7008316031352
:100CA800410883120313A600831603134008831216
:100CB8000313A500831603133F0883120313A4002C
:100CC8000A168A15C6240A128A11831203132308E6
:100CD800AF002208AE002108AD002008AC000A16BB
:100CE8008A1570240A128A11831203132808303EC9
:100CF80083160313AE002E08CC004C08AD0049083B
:100D080084002D0883138000152EFF30CA070318AE
:100D1800CB0AFF30CB074A0A031D962E4B0A031D48
:100D2800962E972E1A2E0130A807FF302807840028
:100D38000A168A150A200A128A11AD002D08CC005D
:100D48004C08031DA82EAB2E0A168A11002D49083F
:100D58008400831380010800031083120313220DFB
:100D6800230DF3007308F9007908031DBC2EBD2E6E
:100D7800C62E0030A3000030A2000030A1000030D1
:100D8800A0006F2F0310260D270DF3007308F8003D
:100D98007808031DD02ED12ED22EBD2EA217FF30DB
:100DA800A005FF30A105FF30A2050030A305A61756
:100DB800FF30A405FF30A505FF30A6050030A705C4
:100DC8000030F7000030F6000030F5000030F40085
:100DD8007F30F902A0307807F3007308F902203059
:100DE800F3007308F8000130F3000310F40DF50D5B
:100DF800F60DF70DF30BF92E27082302031D0E2F0E
:100E080026082202031D0E2F25082102031D0E2F7E
:100E180024082002031C112F122F212F2408A002BE
:100E28002508031C250FA1022608031C260FA20271
:100E38002708031C270FA30274140130F3000310C2
:100E4800A00DA10DA20DA30DF30B232F0130F80265
:100E5800031D2F2F302FF72EF91F332F342F4E2F2E
:100E68007908803A9F3E03183A2F3B2F3C2FBD2E1E
:100E780001300310F70CF60CF50CF40CFF3E031DC3
:100E88003D2F0130F3007308F907031D4C2F4D2F38
:100E98003C2F652F20307902031C532F542F602FCD
:100EA800BD2E0130F3000310F40DF50DF60DF70D0E
:100EB800F30B572F0130F9027908031D642F652FB2
:100EC800552F770883120313A3007608A20075082C
:100ED800A1007408A0000800031083120313590D21
:100EE8005A0DDB005B08E1006108031D7C2F7D2F94
:100EF800862F0030DA000030D9000030D8000030EA
:100F0800D700EB2F5708DB005808DC005908DD0034
:100F18005A08DE001F300310DE0CDD0CDC0CDB0C85
:100F2800FF3E031D8F2F5B08DF005F08E000D91725
:100F3800FF30D705FF30D805FF30D9050030DA0576
:100F48009630E102E11FA92FAA2FC42F6108803A29
:100F5800973E0318B02FB12FB22F7D2F0130031009
:100F6800DA0CD90CD80CD70CFF3E031DB32F013077
:100F7800DB005B08E107031DC22FC32FB22FDB2F55
:100F880020306102031CC92FCA2FD62F7D2F0130B4
:100F9800DB000310D70DD80DD90DDA0DDB0BCD2FE3
:100FA8000130E1026108031DDA2FDB2FCB2F600827
:100FB8000319DF2FE02FEB2FD709D809D909DA0950
:100FC800D70A0319D80A0319D90A0319DA0A080033
:100FD800F400F3013A3074020318F32FF42FFC2FB6
:100FE80030307402031CF92FFA2FFC2FF301F30A97
:100FF800730C080001340134803083160313870012
:101008001812831203139817831603138C168B1761
:1010180018118316031787158316031398161930AA
:101028009900080083120313A601A11F1C281D287C
:101038002428A009A109A00A0319A10AA601A60A41
:10104800A31F272828283128A209A309A20A0319BF
:10105800A30A0130A4002408A606A701A8012008B5
:1010680021040319382839287028A501A50A47281A
:1010780001300310A00DA10DFF3E031D3D280130D6
:10108800A4002408A507A11F4A284B283C280130A2
:101098000310A70DA80DFF3E031D4C2821082302AD
:1010A800031D582820082202031C5B285C2863289B
:1010B8002008A2022108031CA303A302271401305D
:1010C8000310A10CA00CFF3E031D64280130A502EB
:1010D800031D6F2870284B282608031974287528C3
:1010E8007A28A709A809A70A0319A80A2808A100A5
:1010F8002708A0000800831203132008F300210822
:10110800F4002208F5000310740D750DF60076083A
:10111800AD002D08031D912892289B280030A300BC
:101128000030A2000030A1000030A0003B292408B4
:10113800F3002508F4002608F5000310740D750D5A
:10114800F6007608AC002C08031DAB28AC28AD28A7
:101158009228A117FF30A005FF30A1050030A20595
:10116800A517FF30A405FF30A5050030A6050030FF
:10117800AB000030AA000030A9000030A8007F3082
:10118800AD0298302C07F3007308AD021830F30055
:101198007308AC000130F3000310A80DA90DAA0DC7
:1011A800AB0DF30BD02826082202031DE1282508E1
:1011B8002102031DE12824082002031CE428E52855
:1011C800F0282408A0022508031C250FA1022608E0
:1011D800031C260AA202281401300310A00DA10D39
:1011E800A20DFF3E031DF1280130AC02031DFD28AE
:1011F800FE28CE28AD1F012902291C292D08803A76
:10120800973E0318082909290A2992280130031052
:10121800AB0CAA0CA90CA80CFF3E031D0B2901302E
:10122800F3007308AD07031D1A291B290A2933295E
:1012380018302D02031C212922292E299228013039
:10124800F3000310A80DA90DAA0DAB0DF30B25296A
:101258000130AD022D08031D3229332923292B081B
:10126800A3002A08A2002908A1002808A000080055
:10127800831203132D088039B2003208B7002D08F5
:10128800B2003207B3003308BD00AC1F4C294D290A
:101298004E293D143D0803195229532962293D0A54
:1012A800031D5729582960290030AD000030AC00D3
:1012B8000030AB000030AA00AC176A290030AD003E
:1012C8000030AC000030AB000030AA003108803993
:1012D800B2003208B7063108B2003207B30033084B
:1012E800BC00B01F782979297A293C143C080319D5
:1012F8007E297F298E293C0A031D832984298C296C
:101308000030B1000030B0000030AF000030AE0057
:10131800B01796290030B1000030B0000030AF009F
:101328000030AE003C0803199A299B29A0293D08E2
:10133800031D9F29A029A9290030AD000030AC0069
:101348000030AB000030AA009C2C2A08B2003208FA
:10135800F30030080A168A15E0210A128A15740863
:1013680083120313C3007308C2004208B200B3011A
:10137800B401B5013508BB003408BA003308B90018
:101388003208B8004308B200B301B401B50135080A
:10139800C1003408C0003308BF003208BE002B0863
:1013A800B2003208F3002F080A168A15E0210A1243
:1013B8008A15740883120313C3007308C200420815
:1013C800B200B301B401B5013208B80733080311FC
:1013D8000318013E0319F129B9073408031103184A
:1013E800013E0319F829BA07350803110318013E0D
:1013F8000319FF29BB074308B200B301B401B501C3
:101408003208BE07330803110318013E03190D2AD9
:10141800BF07340803110318013E0319142AC00733
:10142800350803110318013E03191B2AC1072C08AC
:10143800B2003208F3002E080A168A15E0210A12B3
:101448008A15740883120313C3007308C200420884
:10145800B200B301B401B5013208B807330803116B
:101468000318013E0319392AB90734080311031870
:10147800013E0319402ABA07350803110318013E33
:101488000319472ABB074308B200B301B401B501E9
:101498003208BE07330803110318013E0319552A01
:1014A800BF07340803110318013E03195C2AC0075B
:1014B800350803110318013E0319632AC1070830D0
:1014C800B2000310B80DB90DBA0DBB0DB20B652AE9
:1014D8002B08B2003208F3002E080A168A15E021FC
:1014E8000A128A15740883120313C3007308C20012
:1014F8004208B2004308B300B401B5013208B80786
:10150800330803110318013E03198B2AB90734085D
:1015180003110318013E0319922ABA07350803116B
:101528000318013E0319992ABB072A08B20032089A
:10153800F3002F080A168A15E0210A128A15740882
:1015480083120313C3007308C2004208B2004308A1
:10155800B300B401B5013208B80733080311031802
:10156800013E0319B82AB907340803110318013ECC
:101578000319BF2ABA07350803110318013E0319D6
:10158800C62ABB070830B2000310B80DB90DBA0D52
:10159800BB0DB20BC82A2A08B2003208F3002E0885
:1015A8000A168A15E0210A128A1574088312031391
:1015B800C3007308C2004208B2004308B300B40174
:1015C800B5013208B807330803110318013E03199F
:1015D800EE2AB907340803110318013E0319F52A46
:1015E800BA07350803110318013E0319FC2ABB0783
:1015F8002B08B2003208F30030080A168A15E021D9
:101608000A128A15740883120313C3007308C200F0
:101618004208B2004308B300B401B5013208BE075E
:10162800330803110318013E03191B2BBF073408A5
:1016380003110318013E0319222BC00735080311B3
:101648000318013E0319292BC1072C08B2003208E0
:10165800F3002F080A168A15E0210A128A15740861
:1016680083120313C3007308C2004208B200430880
:10167800B300B401B5013208BE07330803110318DB
:10168800013E0319482BBF07340803110318013E14
:1016980003194F2BC007350803110318013E03191E
:1016A800562BC1072C08B2003208F30030080A167E
:1016B8008A15E0210A128A15740883120313C300DD
:1016C8007308C2004208B2004308B300B401B50170
:1016D80008300310B20DB30DB40DB50DFF3E031D58
:1016E8006D2B3208BE07330803110318013E031996
:1016F8007E2BBF07340803110318013E0319852BFD
:10170800C007350803110318013E03198C2BC107C4
:101718003808B2003908B3003A08B4003B08B500ED
:1017280018300310B50CB40CB30CB20CFF3E031DFB
:10173800952B3208BE07330803110318013E03191D
:10174800A62BBF07340803110318013E0319AD2B5C
:10175800C007350803110318013E0319B42BC1074C
:101768000830B2000310B80DB90DBA0DBB0DB20B9D
:10177800B62B3D083C07B200B301B30D3208823ED8
:10178800C20033080318013EFF3EC300E82B0130B6
:10179800B2000310BE0DBF0DC00DC10DB20BCD2B95
:1017A800BB1FD72BD82BD92B3E140130B200031006
:1017B800B80DB90DBA0DBB0DB20BDB2BFF30C2074C
:1017C8000318C30AFF30C307C01FEB2BEC2BCB2B2E
:1017D800BC01BB1FF02BF12B0D2CFF303805B200DC
:1017E800FF303905B300FF303A05B4007F303B05C0
:1017F800B50035083404330432040319042C052CCD
:10180800082CBC01BC0A0D2C3E1C0B2C0C2C0D2CDE
:10181800052C3C080319112C122C432C0130BE074F
:10182800003003180130BF07003003180130C0072B
:10183800003003180130C107411C232C242C432CF1
:101848003E08B2003F08B3004008B4004108B500A4
:101858000130B600350DB50CB40CB30CB20CB60B98
:101868002E2C3508C1003408C0003308BF003208E8
:10187800BE000130C2070318C30A0030C30743087B
:10188800803AFF0080307F02031D4C2CFF3042025B
:10189800031C4F2C502C5B2C7F3083120313C10088
:1018A8008030C0000030BF000030BE00902C831292
:1018B80003134308803AFF0080307F02031D662C23
:1018C800013042020318692C6A2C762C00308312EE
:1018D8000313C1000030C0000030BF000030BE005C
:1018E800B701902C831203134208B2003208BD00DE
:1018F800FF30BE05FF30BF057F30C0050030C10591
:101908003D1C872C882C892CC0173D08B200031079
:10191800320CB3003308C1003708B2003208C104E2
:101928004108AD004008AC003F08AB003E08AA00E3
:10193800080083120313D600D61FA32CA42C532E01
:10194800D609D60A5608803A123E031CAC2CAD2C98
:10195800972D0A30A0000030A1005608F500F601C6
:10196800F51BF6036430F3000030F4000A168A1100
:1019780008200A128A15740883120313A300730837
:10198800A2000A128A1516200A128A158312031356
:101998002008C80001300310C80DFF3E031DCF2CDE
:1019A8000310480D593E84000A168A150A200A12A7
:1019B8008A15C9000A168A150A200A128A15CA0049
:1019C8000A168A150A200A128A15CB000A168A15E1
:1019D8000A200A128A15CC004C08AD004B08AC004E
:1019E8004A08AB004908AA006430A0000030A100F2
:1019F8005608A200A301A21BA3030A128A151620E7
:101A08000A128A15831203132008CD00013003102F
:101A1800CD0DFF3E031D0B2D03104D0D7D3E8400A3
:101A28000A168A150A200A128A15CE000A168A157D
:101A38000A200A128A15CF000A168A150A200A12E5
:101A48008A15D0000A168A150A200A128A15D100AA
:101A58005108B1005008B0004F08AF004E08AE0062
:101A68000A128A153C210A128A15831203132D08BB
:101A7800D5002C08D4002B08D3002A08D2000A303D
:101A8800F3000030F4005608F500F601F51BF603E4
:101A98000A168A1108200A128A157308831203137A
:101AA800C80001300310C80DFF3E031D562D03105A
:101AB800480D353E84000A168A150A200A128A152E
:101AC800C9000A168A150A200A128A15CA000A16B7
:101AD8008A150A200A128A15CB000A168A150A20C6
:101AE8000A128A15CC004C08AD004B08AC004A0815
:101AF800AB004908AA005508B1005408B0005308C3
:101B0800AF005208AE000A128A153C210A128A1543
:101B1800831203132D08C7002C08C6002B08C50024
:101B28002A08C400FF2F5608803A753E031C9D2DD5
:101B38009E2D262E0A30F3000030F4005608F500DA
:101B4800F601F51BF6030A168A1108200A128A15EF
:101B5800730883120313C80001300310C80DFF3E39
:101B6800031DB12D0310480D353E84000A168A1551
:101B78000A200A128A15C9000A168A150A200A12AA
:101B88008A15CA000A168A150A200A128A15CB0075
:101B98000A168A150A200A128A15CC004C08AD00CC
:101BA8004B08AC004A08AB004908AA000A30A0005C
:101BB8000030A1005608A200A301A21BA3030A1229
:101BC8008A1516200A128A15831203132008CD00DD
:101BD80001300310CD0DFF3E031DED2D03104D0DFB
:101BE800593E84000A168A150A200A128A15CE0060
:101BF8000A168A150A200A128A15CF000A168A15AB
:101C08000A200A128A15D0000A168A150A200A1212
:101C18008A15D1005108B1005008B0004F08AF0034
:101C28004E08AE000A128A153C210A128A15831240
:101C380003132D08C7002C08C6002B08C5002A0866
:101C4800C400FF2F5608C80001300310C80DFF3E1E
:101C5800031D292E0310480D353E84000A168A15E7
:101C68000A200A128A15C9000A168A150A200A12B9
:101C78008A15CA000A168A150A200A128A15CB0084
:101C88000A168A150A200A128A15CC004C08C700C1
:101C98004B08C6004A08C5004908C400FF2F56086B
:101CA800803A123E031C592E5A2E442F0A30A000A7
:101CB8000030A1005608F500F601F51BF603643064
:101CC800F3000030F4000A168A1108200A128A1557
:101CD800740883120313A3007308A2000A128A155A
:101CE80016200A128A15831203132008C80001302F
:101CF8000310C80DFF3E031D7C2E0310480D253E22
:101D080084000A168A150A200A128A15C9000A16BA
:101D18008A150A200A128A15CA000A168A150A2084
:101D28000A128A15CB000A168A150A200A128A1581
:101D3800CC004C08AD004B08AC004A08AB00490881
:101D4800AA006430A0000030A1005608A200A30138
:101D5800A21BA3030A128A1516200A128A158312D7
:101D680003132008CD0001300310CD0DFF3E031DE5
:101D7800B82E03104D0D493E84000A168A150A2014
:101D88000A128A15CE000A168A150A200A128A151E
:101D9800CF000A168A150A200A128A15D0000A16D8
:101DA8008A150A200A128A15D1005108B100500874
:101DB800B0004F08AF004E08AE000A128A153C2149
:101DC8000A128A15831203132D08D5002C08D40093
:101DD8002B08D3002A08D2000A30F3000030F400A0
:101DE8005608F500F601F51BF6030A168A110820B5
:101DF8000A128A15730883120313C80001300310EE
:101E0800C80DFF3E031D032F0310480D013E84003B
:101E18000A168A150A200A128A15C9000A168A158E
:101E28000A200A128A15CA000A168A150A200A12F6
:101E38008A15CB000A168A150A200A128A15CC00C0
:101E48004C08AD004B08AC004A08AB004908AA0092
:101E58005508B1005408B0005308AF005208AE004E
:101E68000A128A153C210A128A15831203132D08B7
:101E7800C7002C08C6002B08C5002A08C400FF2F7D
:101E88005608803A753E031C4A2F4B2FD32F0A3031
:101E9800F3000030F4005608F500F601F51BF603D0
:101EA8000A168A1108200A128A1573088312031366
:101EB800C80001300310C80DFF3E031D5E2F03103C
:101EC800480D013E84000A168A150A200A128A154E
:101ED800C9000A168A150A200A128A15CA000A16A3
:101EE8008A150A200A128A15CB000A168A150A20B2
:101EF8000A128A15CC004C08AD004B08AC004A0801
:101F0800AB004908AA000A30A0000030A10056081A
:101F1800A200A301A21BA3030A128A1516200A1203
:101F28008A15831203132008CD0001300310CD0D4C
:101F3800FF3E031D9A2F03104D0D253E84000A16FF
:101F48008A150A200A128A15CE000A168A150A204E
:101F58000A128A15CF000A168A150A200A128A154B
:101F6800D0000A168A150A200A128A15D1005108CB
:101F7800B1005008B0004F08AF004E08AE000A127A
:101F88008A153C210A128A15831203132D08C700EB
:101F98002C08C6002B08C5002A08C400FF2F5608C5
:101FA800C80001300310C80DFF3E031DD62F0310D3
:101FB800480D013E84000A168A150A200A128A155D
:101FC800C9000A168A150A200A128A15CA000A16B2
:101FD8008A150A200A128A15CB000A168A150A20C1
:101FE8000A128A15CC004C08C7004B08C6004A08DC
:101FF800C5004908C400080064008001840A04067A
:102008000319003404060128F901F61F0C280D28CD
:102018001428F509F609F50A0319F60AF901F90A67
:10202800F41F172818281D28F309F409F30A0319BF
:10203800F40A730874040319222823285228F80183
:10204800F80A312801300310F30DF40DFF3E031D8B
:1020580027280130F7007708F807F41F34283528B7
:10206800262874087602031D3B2873087502031C92
:102078003E283F2845287308F5027408031CF60318
:10208800F60201300310F40CF30CFF3E031D462842
:102098000130F802031D5128522835287908031900
:1020A800562857285C28F509F609F50A0319F60A8F
:1020B8007608F4007508F300080083120313D700AC
:1020C8006E305702031C69286A2879293F30AD0011
:1020D8000030AC000030AB000030AA006430A00033
:1020E8000030A1005708C800C9014808A2004908E3
:1020F800A3000A168A1543230A168A1183120313AA
:102108002008CA0001300310CA0DFF3E031D8728AE
:1021180003104A0D7D3E84000A168A150A200A1605
:102128008A11CB000A168A150A200A168A11CC00D1
:102138000A168A150A200A168A11CD000A168A1567
:102148000A200A168A11CE004E08B1004D08B000C8
:102158004C08AF004B08AE000A128A153C210A163B
:102168008A11831203132D08D6002C08D5002B08DA
:10217800D4002A08D3000A30A0000030A100570874
:10218800C800C9014808F5004908F6006430F300A2
:102198000030F4000A168A153F220A168A117408BC
:1021A80083120313A3007308A2000A168A15432397
:1021B8000A168A11831203132008CA00013003107B
:1021C800CA0DFF3E031DE32803104A0D593E840043
:1021D8000A168A150A200A168A11CB000A168A15C9
:1021E8000A200A168A11CC000A168A150A200A162D
:1021F8008A11CD000A168A150A200A168A11CE00FD
:102208004E08AD004D08AC004C08AB004B08AA00C6
:102218005608B1005508B0005408AF005308AE0086
:102228000A128A153C210A168A11831203132D08F3
:10223800D2002C08D1002B08D0002A08CF000A3081
:10224800F3000030F4005708C800C9014808F50039
:102258004908F6000A168A153F220A168A117308D9
:1022680083120313CA0001300310CA0DFF3E031D79
:10227800382903104A0D353E84000A168A150A20AB
:102288000A168A11CB000A168A150A200A168A111C
:10229800CC000A168A150A200A168A11CD000A16D9
:1022A8008A150A200A168A11CE004E08AD004D087C
:1022B800AC004C08AB004B08AA005208B10051080A
:1022C800B0005008AF004F08AE000A128A153C2132
:1022D8000A168A11831203132D08C7002C08C6009A
:1022E8002B08C5002A08C4006D2A0B305702031CAE
:1022F8007E297F292A2A3F30AD000030AC0000300B
:10230800AB000030AA000A30A0000030A100570836
:10231800C800C9014808A2004908A3000A168A157E
:1023280043230A168A11831203132008CA000130B6
:102338000310CA0DFF3E031D9C2903104A0D593E88
:1023480084000A168A150A200A168A11CB000A1672
:102358008A150A200A168A11CC000A168A150A203C
:102368000A168A11CD000A168A150A200A168A1139
:10237800CE004E08B1004D08B0004C08AF004B0825
:10238800AE000A128A153C210A168A118312031319
:102398002D08D6002C08D5002B08D4002A08D30015
:1023A8000A30F3000030F4005708C800C901480893
:1023B800F5004908F6000A168A153F220A168A11FE
:1023C800730883120313CA0001300310CA0DFF3EBD
:1023D800031DE92903104A0D353E84000A168A15A3
:1023E8000A200A168A11CB000A168A150A200A162C
:1023F8008A11CC000A168A150A200A168A11CD00FD
:102408000A168A150A200A168A11CE004E08AD004F
:102418004D08AC004C08AB004B08AA005608B100A8
:102428005508B0005408AF005308AE000A128A15C8
:102438003C210A168A11831203132D08C7002C08A1
:10244800C6002B08C5002A08C4006D2A3F30AD001D
:102458000030AC000030AB000030AA005708C800BC
:1024680001300310C80DFF3E031D352A0310480D27
:10247800353E84000A168A150A200A168A11C900F0
:102488000A168A150A200A168A11CA000A168A1517
:102498000A200A168A11CB000A168A150A200A167B
:1024A8008A11CC004C08B1004B08B0004A08AF00B4
:1024B8004908AE000A128A153C210A168A118312AD
:1024C80003132D08C7002C08C6002B08C5002A08CE
:1024D800C4000800831203135B088039E000600819
:1024E800E8005B08E0006007E1006108EA00DA1F25
:1024F8007E2A7F2A802A6A146A080319842A852A70
:10250800952A6A0A031D892A8A2A922A0030DB0042
:102518000030DA000030D9000030D800DA17DB01CB
:102528009D2A0030DB000030DA000030D90000308E
:10253800D8005F088039E0006008E900690868068B
:102548000319A72AA82AA92A68175F08E0006007C4
:10255800E1006108E900DE1FB22AB32AB42A69142F
:1025680069080319B82AB92AC92A690A031DBD2AA4
:10257800BE2AC62A0030DF000030DE000030DD0051
:102588000030DC00DE17DF01D12A0030DF00003028
:10259800DE000030DD000030DC006A086902031844
:1025A800D62AD72A1B2B681FDA2ADB2ADF2A803093
:1025B800E0006008E8066A08E0006008EB006908C7
:1025C800E0006008EA006B08E0006008E9005808CD
:1025D800E0006008EB005C08E0006008D8006B08C9
:1025E800E0006008DC005908E0006008EB005D08C6
:1025F800E0006008D9006B08E0006008DD005A08B8
:10260800E0006008EB005E08E0006008DA006B0894
:10261800E0006008DE005B08E0006008EB005F088F
:10262800E0006008DB006B08E0006008DF00EB01F9
:102638006908E000E1016108E3006A086002E2005D
:10264800031CE3036308803AFF0080307F02031D08
:102658002F2B1A306202031C322B332B702B831260
:1026680003135B085A0459045804031D3C2B3E2BE2
:1026780001303F2B0030E0006008EB000030DB0049
:102688000030DA000030D9000030D8006908E000D6
:102698006008EA00782B6B1C522B532B5C2B6B08C1
:1026A800E0000310600C0138E1006108EB005E2BCC
:1026B8000310EB0C581C612B622B632BEB170130BA
:1026C800E0005B0DDB0CDA0CD90CD80CE00B652BA9
:1026D8000130E0006008EA078312031369086A0200
:1026E800031C772B782B4F2B681B7B2B7C2BC72B42
:1026F8006A08031D802B812B8A2B0030DB000030F9
:10270800DA000030D9000030D800F52C5C08D80772
:102718005D0803110318013E0319932BD9075E08BE
:1027280003110318013E03199A2BDA075F080311F6
:102738000318013E0319A12BDB075B1CA42BA52B57
:102748007B2C6B1CA82BA92BB22B6B08E000031069
:10275800600C0138E1006108EB00B42B0310EB0CAE
:10276800581CB72BB82BB92BEB170130E0005B0DC9
:10277800DB0CDA0CD90CD80CE00BBB2B0130E000D9
:102788006008EA077B2C5B08803AFF005F08803A04
:102798007F02031DD92B5E085A02031DD92B5D0841
:1027A8005902031DD92B5C0858020318DC2BDD2BBA
:1027B800352CFF30E000FF30E100FF30E200FF3051
:1027C800E3005C08E4005D08E5005E08E6005F08D9
:1027D800E7005808E4025908031C590FF42BF52B9D
:1027E800E5025A08031C5A0FFA2BFB2BE6025B087A
:1027F800031C5B0F002C012CE7026408E007650846
:102808000318650F082C092CE10766080318660FE2
:102818000E2C0F2CE20767080318670AE307630802
:10282800DB006208DA006108D9006008D80080304F
:10283800E0006008E806EB09EB0A6B08031D252C8D
:10284800262C432C0130D807003003180130D90753
:10285800003003180130DA07003003180130DB07B5
:10286800432C5C08D8025D08031C5D0FD9025E0882
:10287800031C5E0FDA025F08031C5F0FDB025B08B4
:102888005A0459045804031D4A2C4B2C772C6B0806
:10289800031D4F2C502C772C0030DB000030DA0061
:1028A8000030D9000030D800F52C0130E0000310CA
:1028B800D80DD90DDA0DDB0DE00B5B2CEB1F652C69
:1028C800662C672C58146B1C6A2C6B2C6E2C03140A
:1028D800EB0D702C0310EB0D6A080319742C752C82
:1028E800772C0130EA02DA1F7A2C7B2C592CE9016B
:1028F800EB1F7F2C802C8E2C6B087F390319852CBD
:10290800862C892CE901E90A8E2C581C8C2C8D2CDC
:102918008E2C862C69080319922C932CC72C013015
:10292800D807003003180130D907003003180130E8
:10293800DA07003003180130DB075B1CA42CA52C38
:10294800C72C5808E0005908E1005A08E2005B0863
:10295800E3000130E400630DE30CE20CE10CE00C51
:10296800E40BAF2C6308DB006208DA006108D900C9
:102978006008D8006A0A0319C22CC32CC72C01307E
:10298800E0006008EA076A0A0319CB2CCC2CD12C8A
:102998006A08031DD02CD12CDF2C0030DB0000305E
:1029A800DA000030D9000030D8006A08031DDD2C99
:1029B800DE2CDF2CE8016A1CE22CE32CE52CDA176C
:1029C800E92C7F30E0006008DA056A08E0000310AF
:1029D800600CE1006108DB00E81FF32CF42CF52CF7
:1029E800DB17080083160313C900A930AD002D08B2
:1029F800B6000A128A11972E25304C060319052DA8
:102A0800062D122D4C08AD00490884002D088313AB
:102A180080000130AD002D08C907FD2CB901BA01AD
:102A2800B701B801280884000A168A150A200A1670
:102A38008A110A128A11EC270A168A11031C252DFD
:102A4800262D662D83160313B901BA010A30F30047
:102A58000030F400831603133A08F6003908F5002D
:102A68000A168A1595210A168A1174088316031303
:102A7800BA007308B900280884000A168A150A20C3
:102A88000A168A11D03EAD00FF3003180030AE00A0
:102A98002D08B9070318BA0A2E08BA070130AD0085
:102AA8002D08A807280884000A168A150A200A167D
:102AB8008A110A128A11EC270A168A110318652D41
:102AC800662D2A2D83160313280884000A168A15F2
:102AD8000A200A168A112E3A031D732D742DB92D5A
:102AE80038170130AD002D08A807CA01CB01A82D61
:102AF8000A30F3000030F400831603134B08F60085
:102B08004A08F5000A168A1595210A168A117408CA
:102B180083160313CB007308CA00280884000A161A
:102B28008A150A200A168A11D03EAD00FF30031814
:102B38000030AE002D08CA070318CB0A2E08CB07B1
:102B48000130AD002D08A807280884000A168A1548
:102B58000A200A168A110A128A11EC270A168A1103
:102B68000318B72DB82D7C2DBF2DCA01CB013816FF
:102B7800BF2D3815E12D013083160313A807FF3048
:102B8800280784000A168A150A200A168A11CC001A
:102B9800AD00AE012E08003A0319D32DFD2C2D08E7
:102BA800003A0319FD2F643A0319E12D023A03197B
:102BB800BD2D0F3A0319E12DFD2C00303705AD006E
:102BC80007303805AE002D082E040319EC2DEF2D23
:102BD8000A128A11E82C381EF22DF32DF72D063033
:102BE800CA000030CB003608840083130008C500F3
:102BF800840A0008C600840A0008C700840A00087E
:102C0800C8000430AD002D08B60748088312031326
:102C1800A30083160313470883120313A200831625
:102C28000313460883120313A100831603134508F0
:102C380083120313A0000030A7000030A600003064
:102C4800A5000030A4000A168A152E250A168A1136
:102C580003182F2E302E4D2E831603134808F60026
:102C68004708F5004608F4004508F3000A168A15D7
:102C780036210A168A11760883160313C8007508C8
:102C8800C7007408C6007308C5000330B7040030D5
:102C9800B80483160313C301C4014808831203133D
:102CA800A30083160313470883120313A200831695
:102CB8000313460883120313A10083160313450860
:102CC80083120313A0000030A7000030A6000030D4
:102CD800A5000030A4000A168A15D0230A168A1106
:102CE8000318772E782E942F031083160313470D9D
:102CF800480D823EC300FF3003180030C400FF3087
:102D0800C3070318C40AFF30C4070330F3000030B8
:102D1800F4004408F6004308F5000A168A159521C0
:102D28000A168A11740883160313C4007308C300B3
:102D38000A3083120313A0000030A1008316031386
:102D4800440883120313A300831603134308831252
:102D58000313A2000A128A1516200A168A11831272
:102D68000313210883160313C400831203132008D6
:102D780083160313C300C41FC22EC32EC92EFF30EF
:102D8800C3070318C40AFF30C4074303FF3A0A12F3
:102D98008A159D240A168A1183120313470883167D
:102DA8000313BE0083120313460883160313BD00E2
:102DB80083120313450883160313BC0083120313FD
:102DC800440883160313BB00480883120313AD009D
:102DD80083160313470883120313AC0083160313E7
:102DE800460883120313AB008316031345088312A6
:102DF8000313AA00831603133E0883120313B100BA
:102E0800831603133D0883120313B00083160313BC
:102E18003C0883120313AF00831603133B08831285
:102E28000313AE000A128A153C210A168A1183126E
:102E380003132D0883160313BE00831203132C08F3
:102E480083160313BD00831203132B088316031381
:102E5800BC00831203132A0883160313BB003E0821
:102E680083120313A300831603133D08831203136D
:102E7800A200831603133C0883120313A1008316D0
:102E880003133B0883120313A0003F30A7008030D0
:102E9800A6000030A5000030A4000A168A152E25C9
:102EA8000A168A110318592F5A2F632FFF308316D9
:102EB8000313C3070318C40AFF30C407942F8316EB
:102EC80003133E0883120313A300831603133D085C
:102ED80083120313A200831603133C0883120313FF
:102EE800A100831603133B0883120313A00041308B
:102EF800A7002030A6000030A5000030A4000A1664
:102F08008A152E250A168A11031C8B2F8C2F942FB5
:102F1800013083160313C3070318C40A0030C4071B
:102F2800831603134B08803AFF0080307F02031D8D
:102F38009F2F0D304A020318A22FA32FEA2F8316C2
:102F480003134A080A168A1161200A168A11831285
:102F580003134708DB004608DA004508D90044088F
:102F6800D80083160313480883120313DF0083165F
:102F78000313470883120313DE008316031346085E
:102F880083120313DD00831603134508831203130A
:102F9800DC000A168A116E220A168A11831203139C
:102FA8005B0883160313C800831203135A08831699
:102FB8000313C70083120313590883160313C600AB
:102FC80083120313580883160313C50083160313CB
:102FD8004408803AFF0080307F02031DF52F0A3035
:102FE80043020318FA2F0A128A112E280A128A118C
:102FF8008D280A128A11AB2EFF1B0A2883137F180B
:1030080083170008840A0319FF0A080018308A0089
:103018000408840A820700340034003480343F34C2
:10302800003400342034413400340034C83442348D
:10303800003400347A344434003440341C34463488
:1030480000345034C334473400342434743449349D
:103058008034963418344B342034BC34BE344C3469
:1030680028346B346E344E34F93402341534503409
:10307800EC347834AD346034CA34F23449347134C1
:103088000034003480343F34CD34CC34CC343D3437
:103098000A34D73423343C346F34123483343A340A
:1030A8001734B734D1343834AC34C53427343734D2
:1030B800BD343734863435349534BF34D63433345C
:1030C8007734CC342B3432345F3470348934303430
:1030D800FF34E634DB342E340834E5343C341E3413
:1030E80060344234A2340D340134003400340034E6
:1030F8000A340034003400346434003400340034BA
:10310800E8340334003400341034273400340034F5
:10311800A034863401340034403442340F3400344F
:1031280080349634983400340034E134F53405346E
:103138000034CA349A343B34533431343A3420346A
:1031480020342034533432343A3420342034203478
:103158002034533433343A340034253433342E3461
:0E316800323466345634003425346434003476
:10324A00F300730883120313860008008312031322
:10325A0018161811831603138C1683120313981069
:10326A000800760875047404730403193D293E297D
:10327A0040298030F606080000300A168A155B21BC
:10328A000A168A1501300A168A155B210A168A154A
:10329A000800033083160317880083160313860178
:1032AA00880183120313860188010800F60083123D
:1032BA000313081176080A168A1525210A168A1593
:1032CA008312031388150B30F5006230F400F40BF7
:1032DA006C29F50B6C29000083120313881108006E
:1032EA00F7007708F039F4007408F6008312031324
:1032FA00081577080A168A1525210A168A158312CF
:10330A00031388151A30F400F40B8929000083127C
:10331A00031388111A30F400F40B912900000800F5
:10332A00F701F801731C9A299B29A1297508F70747
:10333A000318F80A7608F80701300310F50DF60DA0
:10334A00FF3E031DA22901300310F40CF30CFF3ECB
:10335A00031DA92973087404031DB429B5299729E3
:10336A007808F4007708F300080083120313A0001A
:10337A002003031DC129C229CE2977087F3EF80000
:10338A007808A10021080A168A155B210A168A15EF
:10339A00DF2902302006031DD329D429DF29770823
:1033AA00BF3EF8007808A10021080A168A155B2199
:1033BA000A168A15080083120313A400A001A101AA
:1033CA007308F500F6017508A2007608A300241C0C
:1033DA00EF29F029F6292208A0070318A10A2308D1
:1033EA00A10701300310A20DA30DFF3E031DF7290B
:1033FA000310A40C2408031D032A042AEC2921081B
:10340A00F4002008F3000800F600831603139F1344
:10341A00E8308B000C17831203130C137603031D79
:10342A00172A182A292A7303031D1C2A1D2A292A46
:10343A0041309F000D30F400F40B212A831203134C
:10344A009F14F501F50A3D2A7603031D2D2A2E2A1B
:10345A003D2A7308031D322A332A3D2A45309F002C
:10346A000D30F400F40B372A831203139F14F5016D
:10347A0075080800730874040319442A452A742A33
:10348A00F801F80A532A01300310F30DF40DFF3E38
:10349A00031D492A0130F7007708F807F41F562A56
:1034AA00572A482A74087602031D5D2A7308750292
:1034BA00031C602A612A672A7308F5027408031C30
:1034CA00F603F60201300310F40CF30CFF3E031D61
:1034DA00682A0130F802031D732A742A572A7608CB
:1034EA00F4007508F3000800831203138C1E7E2A69
:1034FA007F2A8F2A981C822A832A892A18128530C1
:10350A00F000F00B862A8F2A1A08F000700883163A
:10351A000313D600831203130C1F942A952AB42A84
:10352A006C03031D992A9A2AA42A1E08F00070081F
:10353A0083160313EC00ED01EE01EE0AB22A6C08C1
:10354A00031DA82AA92AB22A1E08F00070088316A9
:10355A000313EB00ED01ED0AA12A83120C13720882
:10356A008A00710E8300FE0E7E0E0900F3007308B6
:10357A00840083130008831203139900831603132C
:10358A00981CC82AC92AC32A730A8400831300080C
:10359A0083120313990083160313981CD52AD62A7B
:1035AA00D02A7308023E840083130008831203138F
:1035BA00990083160313981CE32AE42ADE2A730867
:1035CA00033E8400831300088312031399008316B1
:1035DA000313981CF12AF22AEC2A203083120313CF
:1035EA00990083160313981CFB2AFC2AF62A080062
:1035FA0083120313A301A401262B23087807A10031
:10360A007908A0000318A00AA31F0C2BA003831299
:10361A0003132008A2002208FF00210884000A16CA
:10362A008A1500200A168A150A168A1575210A169D
:10363A008A15013083120313A3070318A40A003062
:10364A00A40723087807A1007908A0000318A00A94
:10365A00A31F302BA003831203132008A200220801
:10366A00FF00210884000A168A1500200A168A1506
:10367A00003A031D412B422B022B0800831203132D
:10368A00A401A5012008210403194C2B4D2B842BDE
:10369A00A601A60A5B2B01300310A00DA10DFF3E67
:1036AA00031D512B0130F9007908A607A11F5E2BD3
:1036BA005F2B502B01300310A40DA50DFF3E031DF7
:1036CA00602B21082302031D6C2B20082202031CF5
:1036DA006F2B702B772B2008A2022108031CA3034F
:1036EA00A302241401300310A10CA00CFF3E031DF9
:1036FA00782B0130A602031D832B842B5F2B250810
:10370A00A1002408A000080000300A168A15252105
:10371A000A168A153430F800F130F700F70B932BAC
:10372A00F80B932B982B3F300A168A155B210A1641
:10373A008A151A30F800F830F700F70BA22BF80BAD
:10374A00A22B00003F300A168A155B210A168A1539
:10375A008530F700F70BAF2B3F300A168A155B212D
:10376A000A168A1532300A168A155B210A168A1534
:10377A0038300A168A155B210A168A150C300A1681
:10378A008A155B210A168A1506300A168A155B21E4
:10379A000A168A1508000030831203132005F30065
:1037AA0000302105F40080302205F5007F30230522
:1037BA00F6007608750474047304031DE52BE62BE2
:1037CA00EE2B0030A3000030A2000030A100003030
:1037DA00A00000302405F30000302505F4008030F5
:1037EA002605F5007F302705F6007608750474046F
:1037FA007304031D012C022C0A2C0030A700003090
:10380A00A6000030A5000030A40027082306031DE7
:10381A00182C26082206031D182C25082106031D2C
:10382A00182C2408200603191B2C1C2C1E2C0310F0
:10383A001F2C03140800803083160313A3062708DD
:10384A0083120313DB008316031326088312031360
:10385A00DA0083160313250883120313D90083168B
:10386A000313240883120313D800831603132308AF
:10387A0083120313DF008316031322088312031330
:10388A00DE0083160313210883120313DD00831657
:10389A000313200883120313DC000A168A116E220E
:1038AA000A168A15831203135B0883160313A300EF
:1038BA00831203135A0883160313A20083120313F5
:1038CA00590883160313A100831203135808831699
:1038DA000313A0000800831203132B082A042904E7
:1038EA0028040319792C7A2CBD2CB001B00A8A2C31
:1038FA000130F9000310A80DA90DAA0DAB0DF90BA3
:10390A007F2C0130F9007908B007AB1F8D2C8E2C63
:10391A007D2C2B082F02031D9C2C2A082E02031D26
:10392A009C2C29082D02031D9C2C28082C02031C00
:10393A009F2CA02CAE2C2808AC022908031C290FA6
:10394A00AD022A08031C2A0FAE022B08031C2B0FF8
:10395A00AF0201300310AB0CAA0CA90CA80CFF3E55
:10396A00031DAF2C0130B002031DBC2CBD2C8E2CC4
:10397A002F08AB002E08AA002D08A9002C08A800C1
:10398A0008000030F7000030F6000030F500003083
:10399A00F4008312031323082204210420040319C8
:1039AA00D72CD82C252DF801F80AE82C0130F30081
:1039BA000310A00DA10DA20DA30DF30BDD2C0130F8
:1039CA00F3007308F807A31FEB2CEC2CDB2C013057
:1039DA00F3000310F40DF50DF60DF70DF30BEE2CB5
:1039EA0023082702031D032D22082602031D032D87
:1039FA0021082502031D032D20082402031C062D7D
:103A0A00072D162D2008A4022108031C210FA50248
:103A1A002208031C220FA6022308031C230FA70255
:103A2A00741401300310A30CA20CA10CA00CFF3ECD
:103A3A00031D172D0130F802031D242D252DEC2C12
:103A4A007708A3007608A2007508A1007408A000F0
:103A5A0008000030831203132005F300003021050B
:103A6A00F40080302205F5007F302305F600760841
:103A7A00750474047304031D432D442D4C2D00302A
:103A8A00A3000030A2000030A1000030A0000030E6
:103A9A002405F30000302505F40080302605F500E2
:103AAA007F302705F6007608750474047304031D35
:103ABA005F2D602D682D0030A7000030A600003071
:103ACA00A5000030A400A31F6B2D6C2D902D003093
:103ADA00F3000030F4000030F5008030F6002008D2
:103AEA00F3022108031C210F7B2D7C2DF4022208EE
:103AFA00031C220F812D822DF5022308031C230F9C
:103B0A00872D882DF6027608A3007508A20074088E
:103B1A00A1007308A000A71F932D942DB82D003083
:103B2A00F3000030F4000030F5008030F60024087D
:103B3A00F3022508031C250FA32DA42DF402260841
:103B4A00031C260FA92DAA2DF5022708031C270FEF
:103B5A00AF2DB02DF6027608A7007508A6007408E6
:103B6A00A5007308A4008030A3068030A7062708A2
:103B7A002302031DCA2D26082202031DCA2D250869
:103B8A002102031DCA2D240820020318CD2DCE2D93
:103B9A00D02D0310D12D0314080083120313A4009F
:103BAA0024080319D92DDA2DEE2DF61FDD2DDE2D71
:103BBA00EE2D7309A6007409A7007509A8007609F5
:103BCA00A900A60A0319A70A0319A80A0319A90A28
:103BDA00F62D7608A9007508A8007408A7007308CE
:103BEA00A6007608750474047304031DFD2DFE2DCA
:103BFA00072E0030F6000030F5000030F4000030E7
:103C0A00F3008D2E9630A0002008A500192E013051
:103C1A00A0002008A50701300310A90CA80CA70CC6
:103C2A00A60CFF3E031D112EFE302905031D1E2E74
:103C3A001F2E0C2E3B2E0130A0002008A5070130B4
:103C4A00A607003003180130A70700300318013017
:103C5A00A807003003180130A90701300310A90C86
:103C6A00A80CA70CA60CFF3E031D332EFF30290516
:103C7A00031D402E412E202E4D2E0130A50201306B
:103C8A00A0000310A60DA70DA80DA90DA00B462E86
:103C9A00A81B502E512E572E023025020318562EDD
:103CAA00572E422E25185A2E5B2E632EFF30A6055C
:103CBA00FF30A7057F30A805FF30A9050310A50C22
:103CCA002508A000A101A201A30118300310A00D2C
:103CDA00A10DA20DA30DFF3E031D6B2E2008A60405
:103CEA002108A7042208A8042308A9042408031900
:103CFA007F2E802E852EF61F832E842E852EA917C1
:103D0A002908F6002808F5002708F4002608F30019
:103D1A0008000A168A154E210A168A150A128A15E9
:103D2A0000200A168A150A168A152B210A168A15E0
:103D3A000A168A1589230A168A150A168A1541212E
:103D4A000A168A15831603136D08CD004D08F30071
:103D5A006E080A168A1509220A168A15831603138B
:103D6A00CE004E0883120313EC00F701F70A013064
:103D7A000A168A15BA210A168A159130F800803077
:103D8A00F9000A168A15FD220A168A153C30831292
:103D9A000313AD009F30AC00BE30AB007730AA00F1
:103DAA00831603136C08CD00CE01CF01D001500851
:103DBA00F6004F08F5004E08F4004D08F3000130F4
:103DCA000A168A15D2250A168A157608831203134B
:103DDA00B1007508B0007408AF007308AE000A128B
:103DEA008A153C210A168A15831203132D08831695
:103DFA000313D400831203132C0883160313D3006E
:103E0A00831203132B0883160313D200831203139E
:103E1A002A0883160313D100F701F70A02300A169B
:103E2A008A15BA210A168A15A23083160313CD0001
:103E3A004D08A8005408AC005308AB005208AA0069
:103E4A005108A900D7300A168A11F6240A168A15CB
:103E5A00D730F8000030F9000A168A15FD220A1632
:103E6A008A153C3083120313AD009F30AC00BE307C
:103E7A00AB007730AA00831603136B08CD00CE017E
:103E8A00CF01D0015008F6004F08F5004E08F400A3
:103E9A004D08F30001300A168A15D2250A168A152A
:103EAA00760883120313B1007508B0007408AF00D6
:103EBA007308AE000A128A153C210A168A15831263
:103ECA0003132D0883160313D400831203132C083B
:103EDA0083160313D300831203132B0883160313C9
:103EEA00D200831203132A0883160313D100073062
:103EFA00CD004D08F70002300A168A15BA210A16B3
:103F0A008A15A23083160313CD004D08A800540861
:103F1A00AC005308AB005208AA005108A900D730D8
:103F2A000A168A11F6240A168A15D730F8000030C4
:103F3A00F9000A168A15FD220A168A150E3083160A
:103F4A000313CD004D08F70002300A168A15BA216C
:103F5A000A168A15A93083160313CD004D08A80046
:103F6A005508CE00CF014E08A9004F08AA00D73045
:103F7A000A168A11F6240A168A15D730F800003074
:103F8A00F9000A168A15FD220A168A15D7300A166A
:103F9A008A15BB220A168A15033083160313CF002B
:103FAA008A30CE005530CD00CD0BD92FCE0BD92F6C
:103FBA00CF0BD92F2B30831603135606031DE62F7A
:103FCA00E72FED2F0130CD004D08D507D601F62F8A
:103FDA002D305606031DF22FF32FF62F0130D5028E
:103FEA00EB2F0A3055020318FB2FFC2FA72EA22E07
:063FFA000A128A110C28D6
:04400E00D520FF3F7B
:00000001FF
