:020000040000FA
:060000000A128A110C280F
:10000800FE00030EF2000A08F3000A128A111528EE
:100018000A128A110F28F701F80183010A128A11BE
:100028008528831203130C1F1A281B282428F9017A
:10003800F90A1E08F1007108F800780888000C1306
:100048008C1D272828283F2883160313141C2D28C5
:100058002E283F280A128A11B4200A128A11F100A8
:100068007108F70078080A128A11C4200A128A1146
:10007800831203138C1173088A00720E8300FE0E1C
:100088007E0E0900F500831603139F13E8308B00DA
:100098000C308316031788007130831203139F00F6
:1000A800831603130C17831203130C137503031D14
:1000B8005E285F2866280D30F400F40B612883124F
:1000C80003139F14080083120313A000831603135D
:1000D800871283120313201D722873287928760843
:1000E80083160313940087157F28740876048316F3
:1000F80003139400871183120313200875049400D6
:1001080008000A128A11A0200A128A11F901F90AB4
:10011800F701F401F501F60124300A128A1167206B
:100128000A128A1179080A128A1146200A128A11BB
:1001380096280A128A110C2883160313851618307C
:100148008700013086008801831203138801860125
:100158008C118516831603138C15E8308B00080064
:100168000A128A11BD200A128A1183120313130876
:10017800080083160313141CC228C328BD280800CE
:0C018800F00070088312031393000800BD
:04400E00D520FF3F7B
:00000001FF
