:020000040000FA
:060000000A128A11FB2F19
:100F820001308316031788008901E8308B000800BE
:100F92000A128A11C1270A128A11F201F20A0130D9
:100FA2000A128A11DA270A128A11D02F0A128A111A
:100FB2000028F100831603139F13E8308B000130E1
:100FC2008316031788004130831203139F00831690
:100FD20003130C17831203130C137103031DF22F57
:100FE200F32FFA2F0D30F000F00BF52F83120313BD
:0E0FF2009F140800F30183010A128A11C92F0F
:04400E00D520FF3F7B
:00000001FF
