:020000040000FA
:060000000A128A11EC2F28
:10000E00013483120313A101F81F0E280F2816289E
:10001E00F709F809F70A0319F80AA101A10AFA1F4C
:10002E0019281A282328F909FA09F90A0319FA0ACC
:10003E000130FB007B08A106A201A301770878041A
:10004E0003192A282B286228A001A00A392801307A
:10005E000310F70DF80DFF3E031D2F280130FB0096
:10006E007B08A007F81F3C283D282E2801300310DE
:10007E00A20DA30DFF3E031D3E2878087A02031D34
:10008E004A2877087902031C4D284E2855287708F0
:10009E00F9027808031CFA03FA0222140130031045
:1000AE00F80CF70CFF3E031D56280130A002031D6D
:1000BE00612862283D2821080319662867286C28C4
:1000CE00A209A309A20A0319A30A2308F800220809
:1000DE00F700080083160313C100A130A500250800
:1000EE00AE00D52F2530440603197E287F288B2895
:1000FE004408A500410884002508831380000130C0
:10010E00A5002508C107D52FB501B601B301B4016D
:10011E00200884000A168A110A200A128A110A1669
:10012E008A155E240A128A11031C9E289F28DF2836
:10013E0083160313B501B6010A30F0000030F1004A
:10014E00831603133608F3003508F2000A168A15D3
:10015E0016250A128A11710883160313B600700849
:10016E00B500200884000A168A110A200A128A1184
:10017E00D03EA500FF3003180030A6002508B507B5
:10018E000318B60A2608B6070130A5002508A007F1
:10019E00200884000A168A110A200A128A110A16E9
:1001AE008A155E240A128A110318DE28DF28A32876
:1001BE0083160313200884000A168A110A200A12D5
:1001CE008A112E3A031DEC28ED28322934170130FE
:1001DE00A5002508A007C201C30121290A30F0009D
:1001EE000030F100831603134308F3004208F200B7
:1001FE000A168A1516250A128A1171088316031318
:10020E00C3007008C200200884000A168A110A2052
:10021E000A128A11D03EA500FF3003180030A60046
:10022E002508C2070318C30A2608C3070130A50014
:10023E002508A007200884000A168A110A200A122F
:10024E008A110A168A155E240A128A110318302999
:10025E003129F5283829C201C3013416382934153D
:10026E005429013083160313A007FF3020078400A2
:10027E000A168A110A200A128A11C400A500A601C4
:10028E002608003A03194C29D52F2508003A0319E0
:10029E00E72F663A03193629D52F00303305A5000E
:1002AE0007303405A6002508260403195F296029A6
:1002BE00122F341E6329642968290630C2000030CB
:1002CE00C3002E08840083130008BD00840A0008B2
:1002DE00BE00840A0008BF00840A0008C000043073
:1002EE00A5002508AE074008F3003F08F2003E08BF
:1002FE00F1003D08F0000030F7000030F60000304D
:10030E00F5000030F4000A168A155E270A128A11CB
:10031E00031892299329B029831603134008F3007A
:10032E003F08F2003E08F1003D08F0000A168A155B
:10033E0046240A128A11730883160313C00072082A
:10034E00BF007108BE007008BD000330B30400305A
:10035E00B40483160313BB01BC014008F3003F082D
:10036E00F2003E08F1003D08F0000030F7000030CA
:10037E00F6000030F5000030F4000A168A156326E8
:10038E000A128A110318CC29CD29BD2A031083160F
:10039E0003133F0D400D823EBB00FF3003180030AB
:1003AE00BC00FF30BB070318BC0AFF30BC0703308C
:1003BE00F0000030F1003C08F3003B08F2000A1692
:1003CE008A1516250A128A11710883160313BC00AA
:1003DE007008BB000A30F7000030F8003C08FA0045
:1003EE003B08F9000A128A1108200A128A117808AD
:1003FE0083160313BC007708BB00BC1F072A082A0C
:10040E000E2AFF30BB070318BC0AFF30BC073B03A4
:10041E00FF3A0A128A1540210A128A118312031317
:10042E00410883160313BA00831203134008831680
:10043E000313B900831203133F0883160313B80086
:10044E00831203133E0883160313B700400883126A
:10045E000313A700831603133F0883120313A6008A
:10046E00831603133E0883120313A500831603138A
:10047E003D0883120313A400831603133A08831254
:10048E000313AB0083160313390883120313AA0058
:10049E0083160313380883120313A900831603135C
:1004AE00370883120313A8000A128A159F240A1212
:1004BE008A1183120313270883160313BA008312BB
:1004CE000313260883160313B9008312031325089A
:1004DE0083160313B8008312031324088316031321
:1004EE00B7003A08F3003908F2003808F10037086F
:1004FE00F0003F30F7008030F6000030F50000309D
:10050E00F4000A168A155E270A128A110318902A19
:10051E00912A9A2AFF3083160313BB070318BC0ACD
:10052E00FF30BC07BD2A831603133A08F3003908BF
:10053E00F2003808F1003708F0004130F7002030A3
:10054E00F6000030F5000030F4000A168A155E271A
:10055E000A128A11031CB42AB52ABD2A0130831649
:10056E000313BB070318BC0A0030BC078316031322
:10057E004308803AFF0080307F02031DC82A0D30E9
:10058E0042020318CB2ACC2A132B831603134208DC
:10059E000A168A116D230A128A1183120313410857
:1005AE00D5004008D4003F08D3003E08D200831681
:1005BE000313400883120313D900831603133F0855
:1005CE0083120313D800831603133E0883120313FA
:1005DE00D700831603133D0883120313D6000A16A1
:1005EE008A1178250A128A1183120313550883166D
:1005FE000313C00083120313540883160313BF00A2
:10060E0083120313530883160313BE0083120313BE
:10061E00520883160313BD00831603133C08803A59
:10062E00FF0080307F02031D1E2B0A303B02031891
:10063E00212B222B732B831603134008F3003F0844
:10064E00F2003E08F1003D08F0000030F7000030E7
:10065E00F6000030F5000030F4000A168A15632605
:10066E000A128A1103183C2B3D2BE52B831603131C
:10067E00400883120313D400831603133F0883121A
:10068E000313D300831603133E0883120313D20001
:10069E00831603133D0883120313D1000A168A1121
:1006AE00BC200A128A1183120313540853045204F5
:1006BE005104031D632B642BE52B831603133C0897
:1006CE00803AFF0080307F02031D6F2B02303B0209
:1006DE00031C722B732BE52B831603133A08F300BE
:1006EE003908F2003808F1003708F0004030F70002
:1006FE008930F6007030F5005F30F4000A168A1566
:10070E005E270A128A1103188D2B8E2B972BF7302A
:10071E0083160313BB070318BC0AFF30BC079F2BBD
:10072E00F83083160313BB070318BC0AFF30BC074F
:10073E003B080A128A1540210A128A1183120313EA
:10074E00410883160313BA0083120313400883165D
:10075E000313B900831203133F0883160313B80063
:10076E00831203133E0883160313B7004008F300E9
:10077E003F08F2003E08F1003D08F0003A08F7008D
:10078E003908F6003808F5003708F4000A168A1101
:10079E00AF220A128A11730883160313B20072086D
:1007AE00B1007108B0007008AF000030C00000301A
:1007BE00BF000030BE000030BD00692C831603134D
:1007CE00400883120313D400831603133F088312C9
:1007DE000313D300831603133E0883120313D200B0
:1007EE00831603133D0883120313D1000A168A11D0
:1007FE00BC200A128A1183120313540883160313A2
:10080E00B20083120313530883160313B10083122D
:10081E000313520883160313B000831203135108F7
:10082E0083160313AF003208F3003108F2003008CC
:10083E00F1002F08F00000300A168A1138210A1232
:10084E008A11730883120313E9007208E800710815
:10085E00E7007008E60083160313400883120313A3
:10086E00ED00831603133F0883120313EC00831667
:10087E0003133E0883120313EB00831603133D0884
:10088E0083120313EA000A168A15F2240A128A1139
:10089E0083120313690883160313C0008312031314
:1008AE00680883160313BF008312031367088316A9
:1008BE000313BE0083120313660883160313BD00D1
:1008CE00BB01BC01C401C40A4408A50001300310D9
:1008DE00A50DFF3E031D6E2C0310250D693E8400F1
:1008EE000A168A110A200A128A11A6000A168A11FD
:1008FE000A200A128A11A7000A168A110A200A1261
:10090E008A11A8000A168A110A200A128A11A90051
:10091E0029083202031D9D2C28083102031D9D2C2F
:10092E0027083002031D9D2C26082F020318A02C29
:10093E00A12CA22CAC2C0130A5002508C4070A302E
:10094E004406031DAB2CAC2C6B2C44084207A500AF
:10095E0043080318430AA6003B082507A7003C08D6
:10096E0003183C0A2607A8002708B5022808031C0E
:10097E00B603B602420843040319C62CC72CCD2C6D
:10098E00FF30B5070318B60AFF30B607033033053C
:10099E00A50000303405A600250826040319D82C1E
:1009AE00D92CEE2CFF30B5070318B60AFF30B60768
:1009BE00EE2C203083160313A50041088400250871
:1009CE00831380000130A5002508C107D92C3608F5
:1009DE00803AFF0080307F02031DF72C0130350274
:1009EE000318FA2CFB2CE02C03308316031333056B
:1009FE00A50000303405A600250826040319082D8D
:100A0E00092D7B2D2D30A500410884002508831368
:100A1E0080000130A5002508C1077B2D4408A500E4
:100A2E0001300310A50DFF3E031D182D0310250DDB
:100A3E00693E84000A168A110A200A128A11F000F1
:100A4E000A168A110A200A128A11F1000A168A1150
:100A5E000A200A128A11F2000A168A110A200A12B4
:100A6E008A11F3003208F7003108F6003008F5005D
:100A7E002F08F4000A128A1502200A128A1173082E
:100A8E0083160313BA007208B9007108B800700813
:100A9E00B7000030F3000030F2000030F1000A30F1
:100AAE00F0003A08F7003908F6003808F500370864
:100ABE00F4000A168A15B1260A128A1173088316D3
:100ACE000313BA007208B9007108B8007008B700B5
:100ADE003708303EA50041088400250883138000A6
:100AEE000130A5002508C1070130C402440A031DC8
:100AFE00812D822D152D962D303083160313A500D2
:100B0E00410884002508831380000130A5002508C4
:100B1E00C107FF30BB070318BC0AFF30BC073C08F7
:100B2E00803AFF0080307F02031D9F2D01303B0273
:100B3E000318A22DA32D832D831603134308803A89
:100B4E00FF0080307F02031DAE2D09304202031CD0
:100B5E00B12DB22DB92D083083160313A50025082B
:100B6E00C400BF2D831603134208A5002508C40038
:100B7E004408A500A6012508C2022608031CC303CB
:100B8E00C30244080319CC2DCD2DD82D2E30A5002F
:100B9E00410884002508831380000130A500250834
:100BAE00C10744080A128A1540210A128A118312BB
:100BBE000313410883160313AD0083120313400879
:100BCE0083160313AC00831203133F08831603131B
:100BDE00AB00831203133E0883160313AA002D08DD
:100BEE0083120313AB00831603132C088312031313
:100BFE00AA00831603132B0883120313A90083166E
:100C0E0003132A0883120313A80083160313400844
:100C1E0083120313A700831603133F0883120313D3
:100C2E00A600831603133E0883120313A500831632
:100C3E0003133D0883120313A4000A128A159F247E
:100C4E000A128A11831203132708D4002608D30030
:100C5E002508D2002408D1000A168A11BC200A12D7
:100C6E008A1183120313540883160313B2008312DE
:100C7E000313530883160313B10083120313520890
:100C8E0083160313B0008312031351088316031344
:100C9E00AF00F22E4408A50001300310A50DFF3E53
:100CAE00031D542E0310250D693E84000A168A1169
:100CBE000A200A128A11F0000A168A110A200A1254
:100CCE008A11F1000A168A110A200A128A11F200FC
:100CDE000A168A110A200A128A11F3003208F70046
:100CEE003108F6003008F5002F08F4000A128A15B4
:100CFE0002200A128A11730883160313BA007208AF
:100D0E00B9007108B8007008B7000030F300003069
:100D1E00F2000030F1000A30F0003A08F70039080E
:100D2E00F6003808F5003708F4000A168A15B126C1
:100D3E000A128A11730883160313BA007208B900D7
:100D4E007108B8007008B7003708303EA50041089A
:100D5E0084002508831380000130A5002508C107F3
:100D6E004408A50001300310A50DFF3E031DBA2E49
:100D7E000310250D693E84000A168A110A200A12F4
:100D8E008A11F0000A168A110A200A128A11F1003D
:100D9E000A168A110A200A128A11F2000A168A11FC
:100DAE000A200A128A11F3003208F7003108F60001
:100DBE003008F5002F08F4000A168A15B1260A121B
:100DCE008A11730883160313B2007208B1007108FA
:100DDE00B0007008AF000130C402440A031DF82EA3
:100DEE00F92E512E0B2F3030A50041088400250816
:100DFE00831380000130A5002508C107FF30C2070C
:100E0E000318C30AFF30C30742084304031D102F03
:100E1E00112FFA2ED52F42084304031D172F182F1A
:100E2E00262F3208310430042F04031D1F2F202FCC
:100E3E00262F0130C2070318C30A0030C307430828
:100E4E00803A803C031D2D2F420844020318302F98
:100E5E00312F382F831603134208A5002508C4002E
:100E6E00502F831603134308803AA50080302502C5
:100E7E00031D432F440842020318462F472F502FBD
:100E8E00831603134408A500A6012508C2002608F0
:100E9E00C30083160313350836040319572F582F32
:100EAE006A2F03303305A50000303405A60025084F
:100EBE0026040319632F642F6A2FFF30B50703181A
:100ECE00B60AFF30B607341F6D2F6E2F892F4308D9
:100EDE00803AA5003608803A2502031D782F350882
:100EEE00420203187B2F7C2F852F83160313420893
:100EFE00B5024308031CB603B602892F83160313EB
:100F0E00B501B6013608803A803C031D902F350896
:100F1E0044020318932F942FA02F83160313440813
:100F2E00A500A6012508B5022608031CB603B602C5
:100F3E00A42F83160313B501B60135083604031921
:100F4E00A92FAA2FC12F2030A50041088400250803
:100F5E00831380000130A5002508C107FF30B507B7
:100F6E000318B60AFF30B60735083604031DC02F26
:100F7E00C12FAA2F03303305A50000303405A6007B
:100F8E00250826040319CC2FCD2FD52F2D30A500E3
:100F9E004108840025088313800086280130A007AD
:100FAE00FF30200784000A168A110A200A128A11BD
:100FBE00A5002508C4004408031DE62FE72F792855
:100FCE00410884008313800108000A128A11072049
:100FDE000A128A11EF008313C9308400E3300A1617
:100FEE008A1535240A128A11EE0183010A128A1516
:020FFE00682861
:101004000030FC000030FB000030FA000030F90032
:1010140073087204710470040319112812285F28DC
:10102400FD01FD0A22280130F8000310F00DF10D36
:10103400F20DF30DF80B17280130F8007808FD07BE
:10104400F31F2528262815280130F8000310F90D70
:10105400FA0DFB0DFC0DF80B282873087702031D0D
:101064003D2872087602031D3D2871087502031D90
:101074003D2870087402031C402841285028700839
:10108400F4027108031C710FF5027208031C720F3D
:10109400F6027308031C730FF7027914013003106E
:1010A400F30CF20CF10CF00CFF3E031D512801303F
:1010B400FD02031D5E285F2826287C08F3007B08B8
:1010C400F2007A08F1007908F00008000A168A157F
:1010D40070240A128A150A168A159C250A128A1582
:1010E4000A168A1551240A128A15F001F101F20137
:1010F40020300A168A1583240A128A15F401F40A88
:1011040001300A168A15CE240A128A159130F3008A
:101114008030F4000A168A15DD250A128A153C303F
:1011240083120313A7009F30A600BE30A5007730BA
:10113400A400831603134E08C500C601C701C801E5
:101144004808F3004708F2004608F1004508F0009B
:1011540001300A168A1138210A128A15730883127B
:101164000313AB007208AA007108A9007008A80054
:101174000A128A159F240A128A1583120313270858
:1011840083160313CC008312031326088316031358
:10119400CB0083120313250883160313CA0083129A
:1011A4000313240883160313C900F401F40A02305C
:1011B4000A168A15CE240A128A15A230831603133E
:1011C400C5004508A0004C08A4004B08A3004A0829
:1011D400A2004908A100CF300A128A1171200A1214
:1011E4008A15CF30F3000030F4000A168A15DD2585
:1011F4000A128A15033083160313C6009730C500FC
:10120400C50B0229C60B02298312031307100330EE
:1012140083160313C6009730C500C50B0F29C60BF0
:101224000F298312031393010A168A153D240A1207
:101234008A1583160313C5004508CE0003308316B0
:101244000313C6009730C500C50B2629C60B2629F3
:10125400831203130714033083160313C7000830E3
:10126400C6007630C500C50B3529C60B3529C70B1A
:101274003529000080280A128A11002883120313DA
:10128400D000D01F46294729F42AD009D00A500893
:10129400803A123E031C4F295029382A0A30F7009D
:1012A4000030F8005008F200F301F21BF30364303D
:1012B400F0000030F1000A168A1505270A128A1573
:1012C4007108FA007008F9000A128A1108200A123B
:1012D4008A15770883120313C20001300310C20D6C
:1012E400FF3E031D70290310420D593E84000A1667
:1012F4008A110A200A128A15C3000A168A110A20C2
:101304000A128A15C4000A168A110A200A128A15BA
:10131400C5000A168A110A200A128A15C600460850
:10132400A7004508A6004408A5004308A4006430AB
:10133400F7000030F8005008F900FA01F91BFA032D
:101344000A128A1108200A128A15770883120313D5
:10135400C70001300310C70DFF3E031DAC29031065
:10136400470D7D3E84000A168A110A200A128A1546
:10137400C8000A168A110A200A128A15C9000A1618
:101384008A110A200A128A15CA000A168A110A202A
:101394000A128A15CB004B08AB004A08AA00490878
:1013A400A9004808A8000A128A159F240A128A155F
:1013B400831203132708CF002608CE002508CD008A
:1013C4002408CC000A30F0000030F1005008F2008C
:1013D400F301F21BF3030A168A1505270A128A156C
:1013E400700883120313C20001300310C20DFF3EC4
:1013F400031DF7290310420D353E84000A168A1195
:101404000A200A128A15C3000A168A110A200A122F
:101414008A15C4000A168A110A200A128A15C50000
:101424000A168A110A200A128A15C6004608A7005D
:101434004508A6004408A5004308A4004F08AB00D3
:101444004E08AA004D08A9004C08A8000A128A15E3
:101454009F240A128A15831203132708C100260841
:10146400C0002508BF002408BE009E2C5008803A06
:10147400753E031C3E2A3F2AC72A0A30F00000307A
:10148400F1005008F200F301F21BF3030A168A1567
:1014940005270A128A15700883120313C20001304B
:1014A4000310C20DFF3E031D522A0310420D353EA8
:1014B40084000A168A110A200A128A15C3000A1621
:1014C4008A110A200A128A15C4000A168A110A20EF
:1014D4000A128A15C5000A168A110A200A128A15E8
:1014E400C6004608A7004508A6004408A50043080E
:1014F400A4000A30F7000030F8005008F900FA019F
:10150400F91BFA030A128A1108200A128A157708AD
:1015140083120313C70001300310C70DFF3E031DE0
:101524008E2A0310470D593E84000A168A110A2098
:101534000A128A15C8000A168A110A200A128A1584
:10154400C9000A168A110A200A128A15CA000A1644
:101554008A110A200A128A15CB004B08AB004A08EC
:10156400AA004908A9004808A8000A128A159F245D
:101574000A128A15831203132708C1002608C00023
:101584002508BF002408BE009E2C5008C20001306C
:101594000310C20DFF3E031DCA2A0310420D353E3F
:1015A40084000A168A110A200A128A15C3000A1630
:1015B4008A110A200A128A15C4000A168A110A20FE
:1015C4000A128A15C5000A168A110A200A128A15F7
:1015D400C6004608C1004508C0004408BF004308CF
:1015E400BE009E2C5008803A123E031CFA2AFB2AA5
:1015F400E32B0A30F7000030F8005008F200F30142
:10160400F21BF3036430F0000030F1000A168A156F
:1016140005270A128A157108FA007008F9000A12DF
:101624008A1108200A128A15770883120313C2004C
:1016340001300310C20DFF3E031D1B2B0310420D8E
:10164400253E84000A168A110A200A128A15C3004C
:101654000A168A110A200A128A15C4000A168A1167
:101664000A200A128A15C5000A168A110A200A12CB
:101674008A15C6004608A7004508A6004408A50028
:101684004308A4006430F7000030F8005008F90063
:10169400FA01F91BFA030A128A1108200A128A15A0
:1016A400770883120313C70001300310C70DFF3EF0
:1016B400031D572B0310470D493E84000A168A1157
:1016C4000A200A128A15C8000A168A110A200A1268
:1016D4008A15C9000A168A110A200A128A15CA0034
:1016E4000A168A110A200A128A15CB004B08AB008D
:1016F4004A08AA004908A9004808A8000A128A153D
:101704009F240A128A15831203132708CF00260880
:10171400CE002508CD002408CC000A30F0000030AB
:10172400F1005008F200F301F21BF3030A168A15C4
:1017340005270A128A15700883120313C2000130A8
:101744000310C20DFF3E031DA22B0310420D013EE8
:1017540084000A168A110A200A128A15C3000A167E
:101764008A110A200A128A15C4000A168A110A204C
:101774000A128A15C5000A168A110A200A128A1545
:10178400C6004608A7004508A6004408A50043086B
:10179400A4004F08AB004E08AA004D08A9004C084D
:1017A400A8000A128A159F240A128A1583120313A9
:1017B4002708C1002608C0002508BF002408BE0071
:1017C4009E2C5008803A753E031CE92BEA2B722CA0
:1017D4000A30F0000030F1005008F200F301F21B6F
:1017E400F3030A168A1505270A128A15700883124C
:1017F4000313C20001300310C20DFF3E031DFD2B75
:101804000310420D013E84000A168A110A200A12AE
:101814008A15C3000A168A110A200A128A15C400FE
:101824000A168A110A200A128A15C5000A168A1194
:101834000A200A128A15C6004608A7004508A60011
:101844004408A5004308A4000A30F7000030F8005B
:101854005008F900FA01F91BFA030A128A11082048
:101864000A128A15770883120313C7000130031084
:10187400C70DFF3E031D392C0310470D253E840080
:101884000A168A110A200A128A15C8000A168A1131
:101894000A200A128A15C9000A168A110A200A1295
:1018A4008A15CA000A168A110A200A128A15CB0060
:1018B4004B08AB004A08AA004908A9004808A80038
:1018C4000A128A159F240A128A1583120313270801
:1018D400C1002608C0002508BF002408BE009E2CB5
:1018E4005008C20001300310C20DFF3E031D752CC9
:1018F4000310420D013E84000A168A110A200A12BE
:101904008A15C3000A168A110A200A128A15C4000D
:101914000A168A110A200A128A15C5000A168A11A3
:101924000A200A128A15C6004608C1004508C000EC
:101934004408BF004308BE000800831203132708AD
:101944008039AC002C08B1002708AC002C07AD008E
:101954002D08B700A61FAF2CB02CB12C37143708B4
:101964000319B52CB62CC52C370A031DBA2CBB2C75
:10197400C32C0030A7000030A6000030A5000030C2
:10198400A400A617CD2C0030A7000030A60000301C
:10199400A5000030A4002B088039AC002C08B10647
:1019A4002B08AC002C07AD002D08B600AA1FDB2CB9
:1019B400DC2CDD2C361436080319E12CE22CF12C36
:1019C400360A031DE62CE72CEF2C0030AB00003068
:1019D400AA000030A9000030A800AA17F92C003092
:1019E400AB000030AA000030A9000030A80036087F
:1019F4000319FD2CFE2C032D3708031D022D032D86
:101A04000C2D0030A7000030A6000030A5000030E7
:101A1400A400FF2F2408AC002C08F0002A080A16A2
:101A24008A153B250A128A15710883120313BD0017
:101A34007008BC003C08AC00AD01AE01AF012F083A
:101A4400B5002E08B4002D08B3002C08B2003D08E0
:101A5400AC00AD01AE01AF012F08BB002E08BA00E7
:101A64002D08B9002C08B8002508AC002C08F0009B
:101A740029080A168A153B250A128A157108831249
:101A84000313BD007008BC003C08AC00AD01AE01FE
:101A9400AF012C08B2072D0803110318013E0319E6
:101AA400542DB3072E0803110318013E03195B2DAF
:101AB400B4072F0803110318013E0319622DB5075B
:101AC4003D08AC00AD01AE01AF012C08B8072D08EC
:101AD40003110318013E0319702DB9072E080311D1
:101AE4000318013E0319772DBA072F0803110318B1
:101AF400013E03197E2DBB072608AC002C08F0001C
:101B040028080A168A153B250A128A1571088312B9
:101B14000313BD007008BC003C08AC00AD01AE016D
:101B2400AF012C08B2072D0803110318013E031955
:101B34009C2DB3072E0803110318013E0319A32D8E
:101B4400B4072F0803110318013E0319AA2DB50782
:101B54003D08AC00AD01AE01AF012C08B8072D085B
:101B640003110318013E0319B82DB9072E080311F8
:101B74000318013E0319BF2DBA072F0803110318D8
:101B8400013E0319C62DBB070830AC000310B20D8B
:101B9400B30DB40DB50DAC0BC82D2508AC002C0845
:101BA400F00028080A168A153B250A128A157108BE
:101BB40083120313BD007008BC003C08AC003D0850
:101BC400AD00AE01AF012C08B2072D0803110318B4
:101BD400013E0319EE2DB3072E0803110318013E2D
:101BE4000319F52DB4072F0803110318013E031937
:101BF400FC2DB5072408AC002C08F00029080A16AF
:101C04008A153B250A128A15710883120313BD0035
:101C14007008BC003C08AC003D08AD00AE01AF014B
:101C24002C08B2072D0803110318013E03191B2EBB
:101C3400B3072E0803110318013E0319222EB4071B
:101C44002F0803110318013E0319292EB507083084
:101C5400AC000310B20DB30DB40DB50DAC0B2B2EAF
:101C64002408AC002C08F00028080A168A153B2525
:101C74000A128A15710883120313BD007008BC0090
:101C84003C08AC003D08AD00AE01AF012C08B20722
:101C94002D0803110318013E0319512EB3072E0812
:101CA40003110318013E0319582EB4072F0803111A
:101CB4000318013E03195F2EB5072508AC002C0854
:101CC400F0002A080A168A153B250A128A1571089B
:101CD40083120313BD007008BC003C08AC003D082F
:101CE400AD00AE01AF012C08B8072D08031103188D
:101CF400013E03197E2EB9072E0803110318013E75
:101D04000319852EBA072F0803110318013E03197E
:101D14008C2EBB072608AC002C08F00029080A16F4
:101D24008A153B250A128A15710883120313BD0014
:101D34007008BC003C08AC003D08AD00AE01AF012A
:101D44002C08B8072D0803110318013E0319AB2E04
:101D5400B9072E0803110318013E0319B22EBA075E
:101D64002F0803110318013E0319B92EBB072608D7
:101D7400AC002C08F0002A080A168A153B250A1222
:101D84008A15710883120313BD007008BC003C0857
:101D9400AC003D08AD00AE01AF0108300310AC0D3E
:101DA400AD0DAE0DAF0DFF3E031DD02E2C08B807B0
:101DB4002D0803110318013E0319E12EB9072E085B
:101DC40003110318013E0319E82EBA072F08031163
:101DD4000318013E0319EF2EBB073208AC00330889
:101DE400AD003408AE003508AF0018300310AF0C56
:101DF400AE0CAD0CAC0CFF3E031DF82E2C08B8073E
:101E04002D0803110318013E0319092FB9072E08E1
:101E140003110318013E0319102FBA072F080311E9
:101E24000318013E0319172FBB070830AC00031039
:101E3400B20DB30DB40DB50DAC0B192F3708360721
:101E4400AC00AD01AD0D2C08823EBC002D0803187A
:101E5400013EFF3EBD004B2F0130AC000310B80D16
:101E6400B90DBA0DBB0DAC0B302FB51F3A2F3B2F5C
:101E74003C2F38140130AC000310B20DB30DB40D77
:101E8400B50DAC0B3E2FFF30BC070318BD0AFF3065
:101E9400BD07BA1F4E2F4F2F2E2FB601B51F532F3C
:101EA400542F702FFF303205AC00FF303305AD00E6
:101EB400FF303405AE007F303505AF002F082E0407
:101EC4002D042C040319672F682F6B2FB601B60A53
:101ED400702F381C6E2F6F2F702F682F3608031940
:101EE400742F752FA62F0130B80700300318013066
:101EF400B907003003180130BA0700300318013065
:101F0400BB073B1C862F872FA62F3808AC00390847
:101F1400AD003A08AE003B08AF000130B0002F0D11
:101F2400AF0CAE0CAD0CAC0CB00B912F2F08BB005A
:101F34002E08BA002D08B9002C08B8000130BC07DF
:101F44000318BD0A0030BD073D08803AFF00803009
:101F54007F02031DAF2FFF303C02031CB22FB32FAF
:101F6400BE2F7F3083120313BB008030BA000030D1
:101F7400B9000030B800F32F831203133D08803AF0
:101F8400FF0080307F02031DC92F01303C0203187B
:101F9400CC2FCD2FD92F003083120313BB00003078
:101FA400BA000030B9000030B800B101F32F831239
:101FB40003133C08AC002C08B700FF30B805FF3011
:101FC400B9057F30BA050030BB05371CEA2FEB2F6B
:101FD400EC2FBA173708AC0003102C0CAD002D08F9
:101FE400BB003108AC002C08BB043B08A7003A082E
:101FF400A6003908A5003808A4000800FF1B0A2819
:1020040083137F1883170008840A0319FF0A080042
:1020140010308A000408840A820700340034003433
:1020240080343F34003400342034413400340034EC
:10203400C8344234003400347A34443400344034F4
:102044001C34463400345034C3344734003424340C
:10205400743449348034963418344B342034BC34CA
:10206400BE344C3428346B346E344E34F934023478
:1020740015345034EC347834AD346034CA34F2342A
:10208400493471340034003480343F34CD34CC349A
:10209400CC343D340A34D73423343C346F341234D2
:1020A40083343A341734B734D1343834AC34C53487
:1020B40027343734BD343734863435349534BF341B
:1020C400D63433347734CC342B3432345F347034F4
:1020D40089343034FF34E634DB342E340834E534C8
:1020E4003C341E3460344234A2340D3401340034A0
:1020F400003400340A3400340034003464340034CE
:1021040000340034E8340334003400341034273409
:1021140000340034A0348634013400344034423472
:102124000F34003480349634983400340034E1346D
:10213400F53405340034CA349A343B3453343134DE
:102144003A34203420342034533432343A34203472
:10215400203420342034533433343A340034253496
:0C21640033342E343234663456340034E8
:10217800031083120313530D540DD5005508DB00CB
:102188005B08031DC828C928D2280030D4000030B5
:10219800D3000030D2000030D10037295108D500D3
:1021A8005208D6005308D7005408D8001F3003102F
:1021B800D80CD70CD60CD50CFF3E031DDB285508D0
:1021C800D9005908DA00D317FF30D105FF30D205FE
:1021D800FF30D3050030D4059630DB02DB1FF5282D
:1021E800F62810295B08803A973E0318FC28FD283A
:1021F800FE28C92801300310D40CD30CD20CD10C02
:10220800FF3E031DFF280130D5005508DB07031DDD
:102218000E290F29FE28272920305B02031C1529C7
:1022280016292229C9280130D5000310D10DD20D55
:10223800D30DD40DD50B19290130DB025B08031D22
:102248002629272917295A0803192B292C29372920
:10225800D109D209D309D409D10A0319D20A031919
:10226800D30A0319D40A0800F800780803193D298D
:102278003E295229F31F4129422952297009FA009F
:102288007109FB007209FC007309FD00FA0A0319C1
:10229800FB0A0319FC0A0319FD0A5A297308FD00F1
:1022A8007208FC007108FB007008FA0073087204D9
:1022B80071047004031D612962296B290030F30041
:1022C8000030F2000030F1000030F000F1299630C3
:1022D800F4007408F9007D290130F4007408F90746
:1022E80001300310FD0CFC0CFB0CFA0CFF3E031D27
:1022F8007529FE307D05031D8229832970299F29B0
:102308000130F4007408F9070130FA0700300318A7
:102318000130FB07003003180130FC0700300318B8
:102328000130FD0701300310FD0CFC0CFB0CFA0C0E
:10233800FF3E031D9729FF307D05031DA429A5290C
:102348008429B1290130F9020130F4000310FA0D93
:10235800FB0DFC0DFD0DF40BAA29FC1BB429B529B6
:10236800BB29023079020318BA29BB29A629791892
:10237800BE29BF29C729FF30FA05FF30FB057F308A
:10238800FC05FF30FD050310F90C7908F400F50190
:10239800F601F70118300310F40DF50DF60DF70DE1
:1023A800FF3E031DCF297408FA047508FB0476085C
:1023B800FC047708FD0478080319E329E429E929CE
:1023C800F31FE729E829E929FD177D08F3007C08B0
:1023D800F2007B08F1007A08F00008007008F800A5
:1023E8007108F9007208FA000310790D7A0DFB00E4
:1023F8007B0883120313A5002508031D042A052A58
:102408000E2A0030F3000030F2000030F1000030F6
:10241800F000AE2A7408F8007508F9007608FA008A
:102428000310790D7A0DFB007B08A4002408031D16
:102438001E2A1F2A202A052AF117FF30F005FF302F
:10244800F1050030F205F517FF30F405FF30F5050A
:102458000030F6050030A3000030A2000030A100D3
:102468000030A0007F30A50298302407F8007808D3
:10247800A5021830F8007808A4000130F80003100D
:10248800A00DA10DA20DA30DF80B432A7608720228
:10249800031D542A75087102031D542A740870021A
:1024A800031C572A582A632A7408F0027508031C6B
:1024B800750FF1027608031C760AF2022014013027
:1024C8000310F00DF10DF20DFF3E031D642A0130DB
:1024D800A402031D702A712A412AA51F742A752A8D
:1024E8008F2A2508803A973E03187B2A7C2A7D2A62
:1024F800052A01300310A30CA20CA10CA00CFF3E6E
:10250800031D7E2A0130F8007808A507031D8D2ACF
:102518008E2A7D2AA62A18302502031C942A952A79
:10252800A12A052A0130F8000310A00DA10DA20D63
:10253800A30DF80B982A0130A5022508031DA52A2A
:10254800A62A962A2308F3002208F2002108F1009F
:102558002008F00008000310720D730DF8007808C9
:1025680083120313A5002508031DBB2ABC2AC52A0C
:102578000030F3000030F2000030F1000030F000CD
:102588006C2B0310760D770DF8007808A40024084A
:10259800031DCF2AD02AD12ABC2AF217FF30F00512
:1025A800FF30F105FF30F2050030F305F617FF3074
:1025B800F405FF30F505FF30F6050030F70500306B
:1025C800A3000030A2000030A1000030A0007F303E
:1025D800A502A0302407F8007808A5022030F800EA
:1025E8007808A4000130F8000310A00DA10DA20D79
:1025F800A30DF80BF82A77087302031D0D2B760834
:102608007202031D0D2B75087102031D0D2B740832
:102618007002031C102B112B202B7408F002750874
:10262800031C750FF1027608031C760FF202770877
:10263800031C770FF30220140130F8000310F00D8B
:10264800F10DF20DF30DF80B222B0130A402031D3E
:102658002E2B2F2BF62AA51F322B332B4D2B25087B
:10266800803A9F3E0318392B3A2B3B2BBC2A01306A
:102678000310A30CA20CA10CA00CFF3E031D3C2BC5
:102688000130F8007808A507031D4B2B4C2B3B2B7A
:10269800642B20302502031C522B532B5F2BBC2AA2
:1026A8000130F8000310A00DA10DA20DA30DF80B29
:1026B800562B0130A5022508031D632B642B542BD0
:1026C8002308F3002208F2002108F1002008F00096
:1026D800080083120313D1006E305102031C752BBE
:1026E800762B832C3F30A7000030A6000030A500D1
:1026F8000030A4006430F6000030F7005108C20032
:10270800C3014208F8004308F9000A168A151F2673
:102718000A168A11760883120313C40001300310C5
:10272800C40DFF3E031D932B0310440D7D3E840012
:102738000A168A110A200A168A11C5000A168A1171
:102748000A200A168A11C6000A168A110A200A16D1
:102758008A11C7000A168A110A200A168A11C800A7
:102768004808AB004708AA004608A9004508A80081
:102778000A128A159F240A168A118312031327083E
:10278800D0002608CF002508CE002408CD000A3046
:10279800F6000030F7005108C200C3014208F200F9
:1027A8004308F3006430F0000030F1000A168A157F
:1027B80062250A168A117108F9007008F8000A16CD
:1027C8008A151F260A168A11760883120313C40075
:1027D80001300310C40DFF3E031DED2B0310440D03
:1027E800593E84000A168A110A200A168A11C50061
:1027F8000A168A110A200A168A11C6000A168A11B0
:102808000A200A168A11C7000A168A110A200A160F
:102818008A11C8004808A7004708A6004608A5006E
:102828004508A4005008AB004F08AA004E08A900AC
:102838004D08A8000A128A159F240A168A118312C5
:1028480003132708CC002608CB002508CA00240853
:10285800C9000A30F0000030F1005108C200C3017D
:102868004208F2004308F3000A168A1562250A1680
:102878008A11700883120313C40001300310C40DB9
:10288800FF3E031D422C0310440D353E84000A16FA
:102898008A110A200A168A11C5000A168A110A2006
:1028A8000A168A11C6000A168A110A200A168A11FF
:1028B800C7000A168A110A200A168A11C800480891
:1028C800A7004708A6004608A5004508A4004C082C
:1028D800AB004B08AA004A08A9004908A8000A1238
:1028E8008A159F240A168A11831203132708C10028
:1028F8002608C0002508BF002408BE00772D0B302D
:102908005102031C882C892C342D3F30A70000303D
:10291800A6000030A5000030A4000A30F600003000
:10292800F7005108C200C3014208F8004308F90043
:102938000A168A151F260A168A11760883120313A7
:10294800C40001300310C40DFF3E031DA62C031064
:10295800440D593E84000A168A110A200A168A1163
:10296800C5000A168A110A200A168A11C6000A1614
:102978008A110A200A168A11C7000A168A110A2023
:102988000A168A11C8004808AB004708AA0046087A
:10299800A9004508A8000A128A159F240A168A1158
:1029A800831203132708D0002608CF002508CE007D
:1029B8002408CD000A30F0000030F1005108C200B0
:1029C800C3014208F2004308F3000A168A1562257B
:1029D8000A168A11700883120313C4000130031009
:1029E800C40DFF3E031DF32C0310440D353E840037
:1029F8000A168A110A200A168A11C5000A168A11AF
:102A08000A200A168A11C6000A168A110A200A160E
:102A18008A11C7000A168A110A200A168A11C800E4
:102A28004808A7004708A6004608A5004508A400CE
:102A38005008AB004F08AA004E08A9004D08A8008E
:102A48000A128A159F240A168A118312031327086B
:102A5800C1002608C0002508BF002408BE00772D45
:102A68003F30A7000030A6000030A5000030A400C9
:102A78005108C20001300310C20DFF3E031D3F2D57
:102A88000310420D353E84000A168A110A200A16E0
:102A98008A11C3000A168A110A200A168A11C4006C
:102AA8000A168A110A200A168A11C5000A168A11FE
:102AB8000A200A168A11C6004608AB004508AA0073
:102AC8004408A9004308A8000A128A159F240A1678
:102AD8008A11831203132708C1002608C00025089D
:102AE800BF002408BE00080083120313550880396C
:102AF800DA005A08E2005508DA005A07DB005B08DA
:102B0800E400D41F882D892D8A2D641464080319C4
:102B18008E2D8F2D9F2D640A031D932D942D9C2D92
:102B28000030D5000030D4000030D3000030D2008F
:102B3800D417D501A72D0030D5000030D4000030BF
:102B4800D3000030D20059088039DA005A08E3006F
:102B5800630862060319B12DB22DB32D6217590807
:102B6800DA005A07DB005B08E300D81FBC2DBD2D37
:102B7800BE2D631463080319C22DC32DD32D630A18
:102B8800031DC72DC82DD02D0030D9000030D80026
:102B98000030D7000030D600D817D901DB2D00301F
:102BA800D9000030D8000030D7000030D6006408C3
:102BB80063020318E02DE12D252E621FE42DE52D7B
:102BC800E92D8030DA005A08E2066408DA005A086B
:102BD800E5006308DA005A08E4006508DA005A08D4
:102BE800E3005208DA005A08E5005608DA005A08E5
:102BF800D2006508DA005A08D6005308DA005A08E5
:102C0800E5005708DA005A08D3006508DA005A08C0
:102C1800D7005408DA005A08E5005808DA005A08BC
:102C2800D4006508DA005A08D8005508DA005A08AE
:102C3800E5005908DA005A08D5006508DA005A088C
:102C4800D900E5016308DA00DB015B08DD006408F0
:102C58005A02DC00031CDD035D08803AFF00803067
:102C68007F02031D392E1A305C02031C3C2E3D2EB8
:102C78007A2E831203135508540453045204031D77
:102C8800462E482E0130492E0030DA005A08E50059
:102C98000030D5000030D4000030D3000030D2001E
:102CA8006308DA005A08E400822E651C5C2E5D2E4B
:102CB800662E6508DA0003105A0C0138DB005B0841
:102CC800E500682E0310E50C521C6B2E6C2E6D2E41
:102CD800E5170130DA00550DD50CD40CD30CD20C05
:102CE800DA0B6F2E0130DA005A08E4078312031357
:102CF80063086402031C812E822E592E621B852EC6
:102D0800862ED12E6408031D8A2E8B2E942E003019
:102D1800D5000030D4000030D3000030D200FF2F9F
:102D28005608D207570803110318013E03199D2EB0
:102D3800D307580803110318013E0319A42ED4071A
:102D4800590803110318013E0319AB2ED507551C6A
:102D5800AE2EAF2E852F651CB22EB32EBC2E650865
:102D6800DA0003105A0C0138DB005B08E500BE2EC0
:102D78000310E50C521CC12EC22EC32EE5170130DC
:102D8800DA00550DD50CD40CD30CD20CDA0BC52EA9
:102D98000130DA005A08E407852F5508803AFF0009
:102DA8005908803A7F02031DE32E58085402031D78
:102DB800E32E57085302031DE32E56085202031848
:102DC800E62EE72E3F2FFF30DA00FF30DB00FF3022
:102DD800DC00FF30DD005608DE005708DF00580829
:102DE800E0005908E1005208DE025308031C530FA3
:102DF800FE2EFF2EDF025408031C540F042F052F4C
:102E0800E0025508031C550F0A2F0B2FE1025E083C
:102E1800DA075F0803185F0F122F132FDB0760080C
:102E28000318600F182F192FDC0761080318610AAF
:102E3800DD075D08D5005C08D4005B08D3005A089C
:102E4800D2008030DA005A08E206E509E50A65088A
:102E5800031D2F2F302F4D2F0130D20700300318BC
:102E68000130D307003003180130D40700300318AD
:102E78000130D5074D2F5608D2025708031C570FAB
:102E8800D3025808031C580FD4025908031C590FC1
:102E9800D5025508540453045204031D542F552FCA
:102EA800812F6508031D592F5A2F812F0030D50017
:102EB8000030D4000030D3000030D200FF2F0130A2
:102EC800DA000310D20DD30DD40DD50DDA0B652F12
:102ED800E51F6F2F702F712F5214651C742F752FDB
:102EE800782F0314E50D7A2F0310E50D64080319F4
:102EF8007E2F7F2F812F0130E402D41F842F852F4E
:102F0800632FE301E51F892F8A2F982F65087F39E2
:102F180003198F2F902F932FE301E30A982F521C48
:102F2800962F972F982F902F630803199C2F9D2F6A
:102F3800D12F0130D207003003180130D3070030F9
:102F480003180130D407003003180130D507551C89
:102F5800AE2FAF2FD12F5208DA005308DB005408E8
:102F6800DC005508DD000130DE005D0DDD0CDC0CF9
:102F7800DB0CDA0CDE0BB92F5D08D5005C08D40039
:102F88005B08D3005A08D200640A0319CC2FCD2F4E
:102F9800D12F0130DA005A08E407640A0319D52F43
:102FA800D62FDB2F6408031DDA2FDB2FE92F003023
:102FB800D5000030D4000030D3000030D2006408BF
:102FC800031DE72FE82FE92FE201641CEC2FED2FFA
:102FD800EF2FD417F32F7F30DA005A08D40564088E
:102FE800DA0003105A0CDB005B08D500E21FFD2F46
:082FF800FE2FFF2FD517080082
:10385000F000700883120313860008008316031318
:10386000141C332C342C2E2C080064008001840A94
:103870000406031900340406362C0A168A152E2471
:103880000A168A15831203131308080073087204BA
:103890007104700403194D2C4E2C502C8030F3060B
:1038A000080000300A168A1599240A168A15013074
:1038B0000A168A1599240A168A150800F100F001E3
:1038C0003A3071020318652C662C6E2C3030710270
:1038D000031C6B2C6C2C6E2CF001F00A700C080091
:1038E0008316031388019030870089018601033015
:1038F0008316031788008312031387018801890147
:10390000860105140800F300831603138712731D44
:103910008A2C8B2C8F2C720894008715932C70089E
:1039200072049400871173087104831203139400C6
:103930000800F30083120313091073080A168A158E
:1039400028240A168A158312031389140B30F200F7
:103950006230F100F10BAA2CF20BAA2C00008312AA
:10396000031389100800F20083120313091472086C
:103970000A168A1528240A168A1583120313891435
:103980001A30F100F10BC22C0000831203138910CE
:103990001A30F100F10BCA2C00000800F600760383
:1039A000031DD32CD42CE02C74087F3EF500750841
:1039B000F70077080A168A1599240A168A15F12C39
:1039C00002307606031DE52CE62CF12C7408BF3E70
:1039D000F5007508F70077080A168A1599240A1663
:1039E0008A150800803083120313E9066D08D5009C
:1039F0006C08D4006B08D3006A08D2006908D900AB
:103A00006808D8006708D7006608D6000A168A1129
:103A100078250A168A15831203135508E9005408FD
:103A2000E8005308E7005208E6000800F401F50139
:103A3000701C1B2D1C2D222D7208F4070318F50A8B
:103A40007308F50701300310F20DF30DFF3E031D5F
:103A5000232D01300310F10CF00CFF3E031D2A2D25
:103A600070087104031D352D362D182D7508F100D1
:103A70007408F0000800F800F401F5017008F20085
:103A8000F3017208F6007308F700781C482D492DE1
:103A90004F2D7608F4070318F50A7708F50701306B
:103AA0000310F60DF70DFF3E031D502D0310F80C0B
:103AB0007808031D5C2D5D2D452D7508F1007408F7
:103AC000F0000800700871040319672D682D972D08
:103AD000F501F50A762D01300310F00DF10DFF3ED2
:103AE000031D6C2D0130F4007408F507F11F792DCA
:103AF0007A2D6B2D71087302031D802D70087202E0
:103B0000031C832D842D8A2D7008F2027108031C7A
:103B1000F303F30201300310F10CF00CFF3E031D20
:103B20008B2D0130F502031D962D972D7A2D7308EC
:103B3000F1007208F000080000300A168A152824E7
:103B40000A168A153430F500F130F400F40BA62D76
:103B5000F50BA62DAB2D3F300A168A1599240A16AF
:103B60008A151A30F500F830F400F40BB52DF50B7A
:103B7000B52D00003F300A168A1599240A168A15B9
:103B80008530F400F40BC22D3F300A168A159924B3
:103B90000A168A1538300A168A1599240A168A15C3
:103BA0000C300A168A1599240A168A1506300A1648
:103BB0008A1599240A168A150800F801F901022EBF
:103BC00078087307F6007408F5000318F50AF81F63
:103BD000EA2DF5037508F700770883120313FF0039
:103BE000760884000A168A1100200A168A150A1619
:103BF0008A15B3240A168A150130F8070318F90A42
:103C00000030F90778087307F6007408F500031808
:103C1000F50AF81F0C2EF5037508F70077088312D4
:103C20000313FF00760884000A168A1100200A1682
:103C30008A15003A031D1D2E1E2EE02D0800FB01E3
:103C4000FC01760877040319262E272E5E2EFD012F
:103C5000FD0A352E01300310F60DF70DFF3E031D52
:103C60002B2E0130FA007A08FD07F71F382E392E67
:103C70002A2E01300310FB0DFC0DFF3E031D3A2ED2
:103C800077087902031D462E76087802031C492E18
:103C90004A2E512E7608F8027708031CF903F90220
:103CA0007B1401300310F70CF60CFF3E031D522E5F
:103CB0000130FD02031D5D2E5E2E392E7C08F700BB
:103CC0007B08F600080000307005F8000030710530
:103CD000F90080307205FA007F307305FB007B0825
:103CE0007A0479047804031D762E772E7F2E003017
:103CF000F3000030F2000030F1000030F00000303E
:103D00007405F80000307505F90080307605FA007A
:103D10007F307705FB007B087A0479047804031D63
:103D2000922E932E9B2E0030F7000030F6000030CC
:103D3000F5000030F40077087306031DA92E7608FD
:103D40007206031DA92E75087106031DA92E74089D
:103D500070060319AC2EAD2EAF2E0310B02E031437
:103D6000080073087204710470040319B82EB92E88
:103D7000FC2EF901F90AC92E0130F8000310F00DEC
:103D8000F10DF20DF30DF80BBE2E0130F80078089E
:103D9000F907F31FCC2ECD2EBC2E73087702031D1E
:103DA000DB2E72087602031DDB2E71087502031DDF
:103DB000DB2E70087402031CDE2EDF2EED2E700841
:103DC000F4027108031C710FF5027208031C720FD4
:103DD000F6027308031C730FF70201300310F30C93
:103DE000F20CF10CF00CFF3E031DEE2E0130F90237
:103DF000031DFB2EFC2ECD2E7708F3007608F20073
:103E00007508F1007408F0000800F601F31F092F8F
:103E10000A2F112FF209F309F20A0319F30AF60126
:103E2000F60AF11F142F152F1A2FF009F109F00AC5
:103E30000319F10A7008710403191F2F202F4F2F47
:103E4000F501F50A2E2F01300310F00DF10DFF3EA4
:103E5000031D242F0130F4007408F507F11F312FE2
:103E6000322F232F71087302031D382F700872023E
:103E7000031C3B2F3C2F422F7008F2027108031CD9
:103E8000F303F30201300310F10CF00CFF3E031DAD
:103E9000432F0130F502031D4E2F4F2F322F76088E
:103EA0000319532F542F592FF209F309F20A03195A
:103EB000F30A7308F1007208F00008000030700582
:103EC000F80000307105F90080307205FA007F308B
:103ED0007305FB007B087A0479047804031D712FB5
:103EE000722F7A2F0030F3000030F2000030F10022
:103EF0000030F00000307405F80000307505F9005E
:103F000080307605FA007F307705FB007B087A0465
:103F100079047804031D8D2F8E2F962F0030F70023
:103F20000030F6000030F5000030F400F31F992F48
:103F30009A2FBE2F0030F8000030F9000030FA0050
:103F40008030FB007008F8027108031C710FA92F64
:103F5000AA2FF9027208031C720FAF2FB02FFA02BA
:103F60007308031C730FB52FB62FFB027B08F300F9
:103F70007A08F2007908F1007808F000F71FC12FE5
:103F8000C22FE62F0030F8000030F9000030FA00B0
:103F90008030FB007408F8027508031C750FD12FE0
:103FA000D22FF9027608031C760FD72FD82FFA02EA
:103FB0007708031C770FDD2FDE2FFB027B08F7004D
:103FC0007A08F6007908F5007808F4008030F306E6
:103FD0008030F70677087302031DF82F7608720207
:103FE000031DF82F75087102031DF82F7408700265
:103FF0000318FB2FFC2FFE2F0310FF2F03140800C4
:04400E00D520FF3F7B
:00000001FF
