:020000040000FA
:060000000A128A11EC2F28
:10000E00013483120313A101F81F0E280F2816289E
:10001E00F709F809F70A0319F80AA101A10AFA1F4C
:10002E0019281A282328F909FA09F90A0319FA0ACC
:10003E000130FB007B08A106A201A301770878041A
:10004E0003192A282B286228A001A00A392801307A
:10005E000310F70DF80DFF3E031D2F280130FB0096
:10006E007B08A007F81F3C283D282E2801300310DE
:10007E00A20DA30DFF3E031D3E2878087A02031D34
:10008E004A2877087902031C4D284E2855287708F0
:10009E00F9027808031CFA03FA0222140130031045
:1000AE00F80CF70CFF3E031D56280130A002031D6D
:1000BE00612862283D2821080319662867286C28C4
:1000CE00A209A309A20A0319A30A2308F800220809
:1000DE00F700080083160313C100A130A500250800
:1000EE00AE00D52F2530440603197E287F288B2895
:1000FE004408A500410884002508831380000130C0
:10010E00A5002508C107D52FB501B601B301B4016D
:10011E00200884000A128A150A200A128A110A1669
:10012E008A15A4230A128A11031C9E289F28DF28F1
:10013E0083160313B501B6010A30F0000030F1004A
:10014E00831603133608F3003508F2000A168A15D3
:10015E005C240A128A11710883160313B600700804
:10016E00B500200884000A128A150A200A128A1184
:10017E00D03EA500FF3003180030A6002508B507B5
:10018E000318B60A2608B6070130A5002508A007F1
:10019E00200884000A128A150A200A128A110A16E9
:1001AE008A15A4230A128A110318DE28DF28A32831
:1001BE0083160313200884000A128A150A200A12D5
:1001CE008A112E3A031DEC28ED28322934170130FE
:1001DE00A5002508A007C201C30121290A30F0009D
:1001EE000030F100831603134308F3004208F200B7
:1001FE000A168A155C240A128A11710883160313D3
:10020E00C3007008C200200884000A128A150A2052
:10021E000A128A11D03EA500FF3003180030A60046
:10022E002508C2070318C30A2608C3070130A50014
:10023E002508A007200884000A128A150A200A122F
:10024E008A110A168A15A4230A128A110318302954
:10025E003129F5283829C201C3013416382934153D
:10026E005429013083160313A007FF3020078400A2
:10027E000A128A150A200A128A11C400A500A601C4
:10028E002608003A03194C29D52F2508003A0319E0
:10029E00E72F663A03193629D52F00303305A5000E
:1002AE0007303405A6002508260403195F296029A6
:1002BE00122F341E6329642968290630C2000030CB
:1002CE00C3002E08840083130008BD00840A0008B2
:1002DE00BE00840A0008BF00840A0008C000043073
:1002EE00A5002508AE074008F3003F08F2003E08BF
:1002FE00F1003D08F0000030F7000030F60000304D
:10030E00F5000030F4000A168A15A4260A128A1186
:10031E00031892299329B029831603134008F3007A
:10032E003F08F2003E08F1003D08F0000A168A155B
:10033E008C230A128A11730883160313C0007208E5
:10034E00BF007108BE007008BD000330B30400305A
:10035E00B40483160313BB01BC014008F3003F082D
:10036E00F2003E08F1003D08F0000030F7000030CA
:10037E00F6000030F5000030F4000A168A15A925A3
:10038E000A128A110318CC29CD29BD2A031083160F
:10039E0003133F0D400D823EBB00FF3003180030AB
:1003AE00BC00FF30BB070318BC0AFF30BC0703308C
:1003BE00F0000030F1003C08F3003B08F2000A1692
:1003CE008A155C240A128A11710883160313BC0065
:1003DE007008BB000A30F7000030F8003C08FA0045
:1003EE003B08F9000A128A1108200A128A117808AD
:1003FE0083160313BC007708BB00BC1F072A082A0C
:10040E000E2AFF30BB070318BC0AFF30BC073B03A4
:10041E00FF3A0A128A1540210A128A118312031317
:10042E00410883160313BA00831203134008831680
:10043E000313B900831203133F0883160313B80086
:10044E00831203133E0883160313B700400883126A
:10045E000313A700831603133F0883120313A6008A
:10046E00831603133E0883120313A500831603138A
:10047E003D0883120313A400831603133A08831254
:10048E000313AB0083160313390883120313AA0058
:10049E0083160313380883120313A900831603135C
:1004AE00370883120313A8000A128A159F240A1212
:1004BE008A1183120313270883160313BA008312BB
:1004CE000313260883160313B9008312031325089A
:1004DE0083160313B8008312031324088316031321
:1004EE00B7003A08F3003908F2003808F10037086F
:1004FE00F0003F30F7008030F6000030F50000309D
:10050E00F4000A168A15A4260A128A110318902AD4
:10051E00912A9A2AFF3083160313BB070318BC0ACD
:10052E00FF30BC07BD2A831603133A08F3003908BF
:10053E00F2003808F1003708F0004130F7002030A3
:10054E00F6000030F5000030F4000A168A15A426D5
:10055E000A128A11031CB42AB52ABD2A0130831649
:10056E000313BB070318BC0A0030BC078316031322
:10057E004308803AFF0080307F02031DC82A0D30E9
:10058E0042020318CB2ACC2A132B831603134208DC
:10059E000A168A116D230A128A1183120313410857
:1005AE00D5004008D4003F08D3003E08D200831681
:1005BE000313400883120313D900831603133F0855
:1005CE0083120313D800831603133E0883120313FA
:1005DE00D700831603133D0883120313D6000A16A1
:1005EE008A1178250A128A1183120313550883166D
:1005FE000313C00083120313540883160313BF00A2
:10060E0083120313530883160313BE0083120313BE
:10061E00520883160313BD00831603133C08803A59
:10062E00FF0080307F02031D1E2B0A303B02031891
:10063E00212B222B732B831603134008F3003F0844
:10064E00F2003E08F1003D08F0000030F7000030E7
:10065E00F6000030F5000030F4000A168A15A925C0
:10066E000A128A1103183C2B3D2BE52B831603131C
:10067E00400883120313D400831603133F0883121A
:10068E000313D300831603133E0883120313D20001
:10069E00831603133D0883120313D1000A128A1521
:1006AE00C4200A128A1183120313540853045204ED
:1006BE005104031D632B642BE52B831603133C0897
:1006CE00803AFF0080307F02031D6F2B02303B0209
:1006DE00031C722B732BE52B831603133A08F300BE
:1006EE003908F2003808F1003708F0004030F70002
:1006FE008930F6007030F5005F30F4000A168A1566
:10070E00A4260A128A1103188D2B8E2B972BF730E5
:10071E0083160313BB070318BC0AFF30BC079F2BBD
:10072E00F83083160313BB070318BC0AFF30BC074F
:10073E003B080A128A1540210A128A1183120313EA
:10074E00410883160313BA0083120313400883165D
:10075E000313B900831203133F0883160313B80063
:10076E00831203133E0883160313B7004008F300E9
:10077E003F08F2003E08F1003D08F0003A08F7008D
:10078E003908F6003808F5003708F4000A168A1101
:10079E0028210A128A11730883160313B2007208F5
:1007AE00B1007108B0007008AF000030C00000301A
:1007BE00BF000030BE000030BD00692C831603134D
:1007CE00400883120313D400831603133F088312C9
:1007DE000313D300831603133E0883120313D200B0
:1007EE00831603133D0883120313D1000A128A15D0
:1007FE00C4200A128A11831203135408831603139A
:10080E00B20083120313530883160313B10083122D
:10081E000313520883160313B000831203135108F7
:10082E0083160313AF003208F3003108F2003008CC
:10083E00F1002F08F00000300A168A1546270A121A
:10084E008A11730883120313E9007208E800710815
:10085E00E7007008E60083160313400883120313A3
:10086E00ED00831603133F0883120313EC00831667
:10087E0003133E0883120313EB00831603133D0884
:10088E0083120313EA000A168A1538240A128A11F3
:10089E0083120313690883160313C0008312031314
:1008AE00680883160313BF008312031367088316A9
:1008BE000313BE0083120313660883160313BD00D1
:1008CE00BB01BC01C401C40A4408A50001300310D9
:1008DE00A50DFF3E031D6E2C0310250D693E8400F1
:1008EE000A128A150A200A128A11A6000A128A15FD
:1008FE000A200A128A11A7000A128A150A200A1261
:10090E008A11A8000A128A150A200A128A11A90051
:10091E0029083202031D9D2C28083102031D9D2C2F
:10092E0027083002031D9D2C26082F020318A02C29
:10093E00A12CA22CAC2C0130A5002508C4070A302E
:10094E004406031DAB2CAC2C6B2C44084207A500AF
:10095E0043080318430AA6003B082507A7003C08D6
:10096E0003183C0A2607A8002708B5022808031C0E
:10097E00B603B602420843040319C62CC72CCD2C6D
:10098E00FF30B5070318B60AFF30B607033033053C
:10099E00A50000303405A600250826040319D82C1E
:1009AE00D92CEE2CFF30B5070318B60AFF30B60768
:1009BE00EE2C203083160313A50041088400250871
:1009CE00831380000130A5002508C107D92C3608F5
:1009DE00803AFF0080307F02031DF72C0130350274
:1009EE000318FA2CFB2CE02C03308316031333056B
:1009FE00A50000303405A600250826040319082D8D
:100A0E00092D7B2D2D30A500410884002508831368
:100A1E0080000130A5002508C1077B2D4408A500E4
:100A2E0001300310A50DFF3E031D182D0310250DDB
:100A3E00693E84000A128A150A200A128A11F000F1
:100A4E000A128A150A200A128A11F1000A128A1550
:100A5E000A200A128A11F2000A128A150A200A12B4
:100A6E008A11F3003208F7003108F6003008F5005D
:100A7E002F08F4000A168A1105200A128A1173082B
:100A8E0083160313BA007208B9007108B800700813
:100A9E00B7000030F3000030F2000030F1000A30F1
:100AAE00F0003A08F7003908F6003808F500370864
:100ABE00F4000A168A15F7250A128A11730883168E
:100ACE000313BA007208B9007108B8007008B700B5
:100ADE003708303EA50041088400250883138000A6
:100AEE000130A5002508C1070130C402440A031DC8
:100AFE00812D822D152D962D303083160313A500D2
:100B0E00410884002508831380000130A5002508C4
:100B1E00C107FF30BB070318BC0AFF30BC073C08F7
:100B2E00803AFF0080307F02031D9F2D01303B0273
:100B3E000318A22DA32D832D831603134308803A89
:100B4E00FF0080307F02031DAE2D09304202031CD0
:100B5E00B12DB22DB92D083083160313A50025082B
:100B6E00C400BF2D831603134208A5002508C40038
:100B7E004408A500A6012508C2022608031CC303CB
:100B8E00C30244080319CC2DCD2DD82D2E30A5002F
:100B9E00410884002508831380000130A500250834
:100BAE00C10744080A128A1540210A128A118312BB
:100BBE000313410883160313AD0083120313400879
:100BCE0083160313AC00831203133F08831603131B
:100BDE00AB00831203133E0883160313AA002D08DD
:100BEE0083120313AB00831603132C088312031313
:100BFE00AA00831603132B0883120313A90083166E
:100C0E0003132A0883120313A80083160313400844
:100C1E0083120313A700831603133F0883120313D3
:100C2E00A600831603133E0883120313A500831632
:100C3E0003133D0883120313A4000A128A159F247E
:100C4E000A128A11831203132708D4002608D30030
:100C5E002508D2002408D1000A128A15C4200A12CF
:100C6E008A1183120313540883160313B2008312DE
:100C7E000313530883160313B10083120313520890
:100C8E0083160313B0008312031351088316031344
:100C9E00AF00F22E4408A50001300310A50DFF3E53
:100CAE00031D542E0310250D693E84000A128A1569
:100CBE000A200A128A11F0000A128A150A200A1254
:100CCE008A11F1000A128A150A200A128A11F200FC
:100CDE000A128A150A200A128A11F3003208F70046
:100CEE003108F6003008F5002F08F4000A168A11B4
:100CFE0005200A128A11730883160313BA007208AC
:100D0E00B9007108B8007008B7000030F300003069
:100D1E00F2000030F1000A30F0003A08F70039080E
:100D2E00F6003808F5003708F4000A168A15F7257C
:100D3E000A128A11730883160313BA007208B900D7
:100D4E007108B8007008B7003708303EA50041089A
:100D5E0084002508831380000130A5002508C107F3
:100D6E004408A50001300310A50DFF3E031DBA2E49
:100D7E000310250D693E84000A128A150A200A12F4
:100D8E008A11F0000A128A150A200A128A11F1003D
:100D9E000A128A150A200A128A11F2000A128A15FC
:100DAE000A200A128A11F3003208F7003108F60001
:100DBE003008F5002F08F4000A168A15F7250A12D6
:100DCE008A11730883160313B2007208B1007108FA
:100DDE00B0007008AF000130C402440A031DF82EA3
:100DEE00F92E512E0B2F3030A50041088400250816
:100DFE00831380000130A5002508C107FF30C2070C
:100E0E000318C30AFF30C30742084304031D102F03
:100E1E00112FFA2ED52F42084304031D172F182F1A
:100E2E00262F3208310430042F04031D1F2F202FCC
:100E3E00262F0130C2070318C30A0030C307430828
:100E4E00803A803C031D2D2F420844020318302F98
:100E5E00312F382F831603134208A5002508C4002E
:100E6E00502F831603134308803AA50080302502C5
:100E7E00031D432F440842020318462F472F502FBD
:100E8E00831603134408A500A6012508C2002608F0
:100E9E00C30083160313350836040319572F582F32
:100EAE006A2F03303305A50000303405A60025084F
:100EBE0026040319632F642F6A2FFF30B50703181A
:100ECE00B60AFF30B607341F6D2F6E2F892F4308D9
:100EDE00803AA5003608803A2502031D782F350882
:100EEE00420203187B2F7C2F852F83160313420893
:100EFE00B5024308031CB603B602892F83160313EB
:100F0E00B501B6013608803A803C031D902F350896
:100F1E0044020318932F942FA02F83160313440813
:100F2E00A500A6012508B5022608031CB603B602C5
:100F3E00A42F83160313B501B60135083604031921
:100F4E00A92FAA2FC12F2030A50041088400250803
:100F5E00831380000130A5002508C107FF30B507B7
:100F6E000318B60AFF30B60735083604031DC02F26
:100F7E00C12FAA2F03303305A50000303405A6007B
:100F8E00250826040319CC2FCD2FD52F2D30A500E3
:100F9E004108840025088313800086280130A007AD
:100FAE00FF30200784000A128A150A200A128A11BD
:100FBE00A5002508C4004408031DE62FE72F792855
:100FCE00410884008313800108000A128A11072049
:100FDE000A128A11EF008313C9308400E8300A1612
:100FEE008A157B230A128A11EE0183010A168A11D1
:100FFE00E629FF1B0A2883137F1883170008840A2B
:10100E000319FF0A080008308A000408840A8207C0
:10101E0000340034003480343F3400340034203443
:10102E00413400340034C8344234003400347A344D
:10103E004434003440341C34463400345034C33409
:10104E00473400342434743449348034963418349C
:10105E004B342034BC34BE344C3428346B346E34B0
:10106E004E34F934023415345034EC347834AD3413
:10107E006034CA34F234493471340034003480346C
:10108E003F34CD34CC34CC343D340A34D7342334CD
:10109E003C346F34123483343A341734B734D13489
:1010AE003834AC34C53427343734BD343734863411
:1010BE0035349534BF34D63433347734CC342B3482
:1010CE0032345F34703489343034FF34E634DB34F8
:1010DE002E340834E5343C341E3460344234A234A9
:1010EE000D3401340034003400340A34003400343A
:1010FE0000346434003400340034E83403340034F3
:10110E0000341034273400340034A03486340134D3
:10111E000034403442340F340034803496349834E2
:10112E0000340034E134F53405340034CA349A34D2
:10113E003B34533431343A34203420342034533455
:10114E0032343A342034203420342034533433347F
:10115E003A340034253433342E3430346634433448
:10116E000034253433342E3432346634563400345D
:10118800031083120313530D540DD5005508DB00CB
:101198005B08031DD028D128DA280030D40000309D
:1011A800D3000030D2000030D1003F295108D500CB
:1011B8005208D6005308D7005408D8001F3003102F
:1011C800D80CD70CD60CD50CFF3E031DE3285508C8
:1011D800D9005908DA00D317FF30D105FF30D205FE
:1011E800FF30D3050030D4059630DB02DB1FFD2825
:1011F800FE2818295B08803A973E03180429052918
:101208000629D12801300310D40CD30CD20CD10CF0
:10121800FF3E031D07290130D5005508DB07031DD4
:101228001629172906292F2920305B02031C1D299E
:101238001E292A29D1280130D5000310D10DD20D3D
:10124800D30DD40DD50B21290130DB025B08031D1A
:101258002E292F291F295A080319332934293F29F0
:10126800D109D209D309D409D10A0319D20A031919
:10127800D30A0319D40A080083120313D000D01F1D
:1012880046294729F42AD009D00A5008803A123E44
:10129800031C4F295029382A0A30F7000030F8007B
:1012A8005008F200F301F21BF3036430F000003041
:1012B800F1000A168A154B260A128A157108FA00D7
:1012C8007008F9000A128A1108200A128A1577088C
:1012D80083120313C20001300310C20DFF3E031D29
:1012E80070290310420D593E84000A128A150A20FB
:1012F8000A128A15C3000A128A150A200A128A15C8
:10130800C4000A128A150A200A128A15C5000A1290
:101318008A150A200A128A15C6004608A700450839
:10132800A6004408A5004308A4006430F700003074
:10133800F8005008F900FA01F91BFA030A128A1199
:1013480008200A128A15770883120313C700013090
:101358000310C70DFF3E031DAC290310470D7D3E4A
:1013680084000A128A150A200A128A15C8000A126D
:101378008A150A200A128A15C9000A128A150A2033
:101388000A128A15CA000A128A150A200A128A1530
:10139800CB004B08AB004A08AA004908A900480836
:1013A800A8000A128A159F240A128A1583120313A9
:1013B8002708CF002608CE002508CD002408CC0039
:1013C8000A30F0000030F1005008F200F301F21B7F
:1013D800F3030A168A154B260A128A157008831217
:1013E8000313C20001300310C20DFF3E031DF7298D
:1013F8000310420D353E84000A128A150A200A128B
:101408008A15C3000A128A150A200A128A15C4000E
:101418000A128A150A200A128A15C5000A128A15A4
:101428000A200A128A15C6004608A7004508A60021
:101438004408A5004308A4004F08AB004E08AA00C2
:101448004D08A9004C08A8000A128A159F240A1200
:101458008A15831203132708C1002608C00025082F
:10146800BF002408BE009E2C5008803A753E031C1D
:101478003E2A3F2AC72A0A30F0000030F1005008FF
:10148800F200F301F21BF3030A168A154B260A121F
:101498008A15700883120313C20001300310C20DAD
:1014A800FF3E031D522A0310420D353E84000A12E6
:1014B8008A150A200A128A15C3000A128A150A20F8
:1014C8000A128A15C4000A128A150A200A128A15F5
:1014D800C5000A128A150A200A128A15C60046088B
:1014E800A7004508A6004408A5004308A4000A3040
:1014F800F7000030F8005008F900FA01F91BFA0368
:101508000A128A1108200A128A157708831203130F
:10151800C70001300310C70DFF3E031D8E2A0310BC
:10152800470D593E84000A128A150A200A128A15A4
:10153800C8000A128A150A200A128A15C9000A1256
:101548008A150A200A128A15CA000A128A150A2060
:101558000A128A15CB004B08AB004A08AA004908B2
:10156800A9004808A8000A128A159F240A128A1599
:10157800831203132708C1002608C0002508BF00EE
:101588002408BE009E2C5008C20001300310C20D72
:10159800FF3E031DCA2A0310420D353E84000A127D
:1015A8008A150A200A128A15C3000A128A150A2007
:1015B8000A128A15C4000A128A150A200A128A1504
:1015C800C5000A128A150A200A128A15C60046089A
:1015D800C1004508C0004408BF004308BE009E2C57
:1015E8005008803A123E031CFA2AFB2AE32B0A30E1
:1015F800F7000030F8005008F200F301F21BF30383
:101608006430F0000030F1000A168A154B260A12E1
:101618008A157108FA007008F9000A128A11082060
:101628000A128A15770883120313C20001300310C7
:10163800C20DFF3E031D1B2B0310420D253E8400E7
:101648000A128A150A200A128A15C3000A128A1574
:101658000A200A128A15C4000A128A150A200A12D8
:101668008A15C5000A128A150A200A128A15C600A8
:101678004608A7004508A6004408A5004308A4009A
:101688006430F7000030F8005008F900FA01F91B3F
:10169800FA030A128A1108200A128A157708831297
:1016A8000313C70001300310C70DFF3E031D572B5E
:1016B8000310470D493E84000A128A150A200A12AF
:1016C8008A15C8000A128A150A200A128A15C90042
:1016D8000A128A150A200A128A15CA000A128A15DD
:1016E8000A200A128A15CB004B08AB004A08AA0048
:1016F8004908A9004808A8000A128A159F240A1256
:101708008A15831203132708CF002608CE00250860
:10171800CD002408CC000A30F0000030F100500859
:10172800F200F301F21BF3030A168A154B260A127C
:101738008A15700883120313C20001300310C20D0A
:10174800FF3E031DA22B0310420D013E84000A1226
:101758008A150A200A128A15C3000A128A150A2055
:101768000A128A15C4000A128A150A200A128A1552
:10177800C5000A128A150A200A128A15C6004608E8
:10178800A7004508A6004408A5004308A4004F0880
:10179800AB004E08AA004D08A9004C08A8000A1280
:1017A8008A159F240A128A15831203132708C10079
:1017B8002608C0002508BF002408BE009E2C50083B
:1017C800803A753E031CE92BEA2B722C0A30F00094
:1017D8000030F1005008F200F301F21BF3030A167F
:1017E8008A154B260A128A15700883120313C20041
:1017F80001300310C20DFF3E031DFD2B0310420DE7
:10180800013E84000A128A150A200A128A15C300AA
:101818000A128A150A200A128A15C4000A128A15A1
:101828000A200A128A15C5000A128A150A200A1205
:101838008A15C6004608A7004508A6004408A50062
:101848004308A4000A30F7000030F8005008F900F7
:10185800FA01F91BFA030A128A1108200A128A15DA
:10186800770883120313C70001300310C70DFF3E2A
:10187800031D392C0310470D253E84000A128A15D2
:101888000A200A128A15C8000A128A150A200A12A2
:101898008A15C9000A128A150A200A128A15CA006E
:1018A8000A128A150A200A128A15CB004B08AB00C7
:1018B8004A08AA004908A9004808A8000A128A1577
:1018C8009F240A128A15831203132708C1002608C9
:1018D800C0002508BF002408BE009E2C5008C20086
:1018E80001300310C20DFF3E031D752C0310420D7D
:1018F800013E84000A128A150A200A128A15C300BA
:101908000A128A150A200A128A15C4000A128A15B0
:101918000A200A128A15C5000A128A150A200A1214
:101928008A15C6004608C1004508C0004408BF0023
:101938004308BE0008008312031327088039AC004F
:101948002C08B1002708AC002C07AD002D08B70003
:10195800A61FAF2CB02CB12C371437080319B52C9F
:10196800B62CC52C370A031DBA2CBB2CC32C00304F
:10197800A7000030A6000030A5000030A400A6177C
:10198800CD2C0030A7000030A6000030A5000030A4
:10199800A4002B088039AC002C08B1062B08AC0039
:1019A8002C07AD002D08B600AA1FDB2CDC2CDD2C83
:1019B800361436080319E12CE22CF12C360A031DE3
:1019C800E62CE72CEF2C0030AB000030AA000030EA
:1019D800A9000030A800AA17F92C0030AB0000308D
:1019E800AA000030A9000030A80036080319FD2C11
:1019F800FE2C032D3708031D022D032D0C2D00305E
:101A0800A7000030A6000030A5000030A400FF2F7A
:101A18002408AC002C08F0002A080A168A1581242C
:101A28000A128A15710883120313BD007008BC00DE
:101A38003C08AC00AD01AE01AF012F08B5002E087F
:101A4800B4002D08B3002C08B2003D08AC00AD016D
:101A5800AE01AF012F08BB002E08BA002D08B9004F
:101A68002C08B8002508AC002C08F00029080A1634
:101A78008A1581240A128A15710883120313BD007E
:101A88007008BC003C08AC00AD01AE01AF012C08E9
:101A9800B2072D0803110318013E0319542DB3078B
:101AA8002E0803110318013E03195B2DB4072F08F4
:101AB80003110318013E0319622DB5073D08AC0058
:101AC800AD01AE01AF012C08B8072D0803110318AA
:101AD800013E0319702DB9072E0803110318013EA2
:101AE8000319772DBA072F0803110318013E0319AC
:101AF8007E2DBB072608AC002C08F00028080A1623
:101B08008A1581240A128A15710883120313BD00ED
:101B18007008BC003C08AC00AD01AE01AF012C0858
:101B2800B2072D0803110318013E03199C2DB307B2
:101B38002E0803110318013E0319A32DB4072F081B
:101B480003110318013E0319AA2DB5073D08AC007F
:101B5800AD01AE01AF012C08B8072D080311031819
:101B6800013E0319B82DB9072E0803110318013EC9
:101B78000319BF2DBA072F0803110318013E0319D3
:101B8800C62DBB070830AC000310B20DB30DB40D61
:101B9800B50DAC0BC82D2508AC002C08F0002808A2
:101BA8000A168A1581240A128A15710883120313EA
:101BB800BD007008BC003C08AC003D08AD00AE019B
:101BC800AF012C08B2072D0803110318013E0319B1
:101BD800EE2DB3072E0803110318013E0319F52D46
:101BE800B4072F0803110318013E0319FC2DB5078C
:101BF8002408AC002C08F00029080A168A1581244C
:101C08000A128A15710883120313BD007008BC00FC
:101C18003C08AC003D08AD00AE01AF012C08B2078E
:101C28002D0803110318013E03191B2EB3072E08B4
:101C380003110318013E0319222EB4072F080311BC
:101C48000318013E0319292EB5070830AC0003100C
:101C5800B20DB30DB40DB50DAC0B2B2E2408AC0092
:101C68002C08F00028080A168A1581240A128A15F9
:101C7800710883120313BD007008BC003C08AC0057
:101C88003D08AD00AE01AF012C08B2072D080311C5
:101C98000318013E0319512EB3072E080311031828
:101CA800013E0319582EB4072F0803110318013EEB
:101CB80003195F2EB5072508AC002C08F0002A0888
:101CC8000A168A1581240A128A15710883120313C9
:101CD800BD007008BC003C08AC003D08AD00AE017A
:101CE800AF012C08B8072D0803110318013E03198A
:101CF8007E2EB9072E0803110318013E0319852EFD
:101D0800BA072F0803110318013E03198C2EBB07CD
:101D18002608AC002C08F00029080A168A15812428
:101D28000A128A15710883120313BD007008BC00DB
:101D38003C08AC003D08AD00AE01AF012C08B80767
:101D48002D0803110318013E0319AB2EB9072E08FD
:101D580003110318013E0319B22EBA072F08031105
:101D68000318013E0319B92EBB072608AC002C083E
:101D7800F0002A080A168A1581240A128A157108A1
:101D880083120313BD007008BC003C08AC003D087A
:101D9800AD00AE01AF0108300310AC0DAD0DAE0DB6
:101DA800AF0DFF3E031DD02E2C08B8072D080311D8
:101DB8000318013E0319E12EB9072E080311031871
:101DC800013E0319E82EBA072F0803110318013E34
:101DD8000319EF2EBB073208AC003308AD003408F6
:101DE800AE003508AF0018300310AF0CAE0CAD0CC8
:101DF800AC0CFF3E031DF82E2C08B8072D08031164
:101E08000318013E0319092FB9072E0803110318F7
:101E1800013E0319102FBA072F0803110318013EBA
:101E28000319172FBB070830AC000310B20DB30D10
:101E3800B40DB50DAC0B192F37083607AC00AD0142
:101E4800AD0D2C08823EBC002D080318013EFF3E54
:101E5800BD004B2F0130AC000310B80DB90DBA0D01
:101E6800BB0DAC0B302FB51F3A2F3B2F3C2F38142E
:101E78000130AC000310B20DB30DB40DB50DAC0BB1
:101E88003E2FFF30BC070318BD0AFF30BD07BA1F3D
:101E98004E2F4F2F2E2FB601B51F532F542F702FB3
:101EA800FF303205AC00FF303305AD00FF3034059C
:101EB800AE007F303505AF002F082E042D042C040A
:101EC8000319672F682F6B2FB601B60A702F381CBD
:101ED8006E2F6F2F702F682F36080319742F752FE8
:101EE800A62F0130B807003003180130B9070030B9
:101EF80003180130BA07003003180130BB073B1C38
:101F0800862F872FA62F3808AC003908AD003A086D
:101F1800AE003B08AF000130B0002F0DAF0CAE0C87
:101F2800AD0CAC0CB00B912F2F08BB002E08BA00DB
:101F38002D08B9002C08B8000130BC070318BD0AE9
:101F48000030BD073D08803AFF0080307F02031D46
:101F5800AF2FFF303C02031CB22FB32FBE2F7F30B0
:101F680083120313BB008030BA000030B900003080
:101F7800B800F32F831203133D08803AFF00803026
:101F88007F02031DC92F01303C020318CC2FCD2F2F
:101F9800D92F003083120313BB000030BA00003081
:101FA800B9000030B800B101F32F831203133C08C5
:101FB800AC002C08B700FF30B805FF30B9057F30FA
:101FC800BA050030BB05371CEA2FEB2FEC2FBA17E8
:101FD8003708AC0003102C0CAD002D08BB003108ED
:101FE800AC002C08BB043B08A7003A08A600390837
:081FF800A5003808A400080050
:10200A000030FC000030FB000030FA000030F9001C
:10201A0073087204710470040319142815286228BD
:10202A00FD01FD0A25280130F8000310F00DF10D1D
:10203A00F20DF30DF80B1A280130F8007808FD07A5
:10204A00F31F2828292818280130F8000310F90D51
:10205A00FA0DFB0DFC0DF80B2B2873087702031DF4
:10206A00402872087602031D402871087502031D74
:10207A00402870087402031C432844285328700817
:10208A00F4027108031C710FF5027208031C720F27
:10209A00F6027308031C730FF70279140130031058
:1020AA00F30CF20CF10CF00CFF3E031D5428013026
:1020BA00FD02031D6128622829287C08F3007B0899
:1020CA00F2007A08F1007908F00008007008F800B8
:1020DA007108F9007208FA000310790D7A0DFB00F5
:1020EA007B0883120313A5002508031D7D287E287B
:1020FA0087280030F3000030F2000030F100003091
:10210A00F00027297408F8007508F9007608FA0023
:10211A000310790D7A0DFB007B08A4002408031D27
:10212A009728982899287E28F117FF30F005FF3064
:10213A00F1050030F205F517FF30F405FF30F5051B
:10214A000030F6050030A3000030A2000030A100E4
:10215A000030A0007F30A50298302407F8007808E4
:10216A00A5021830F8007808A4000130F80003101E
:10217A00A00DA10DA20DA30DF80BBC2876087202C2
:10218A00031DCD2875087102031DCD28740870023D
:10219A00031CD028D128DC287408F0027508031C17
:1021AA00750FF1027608031C760AF2022014013038
:1021BA000310F00DF10DF20DFF3E031DDD28013075
:1021CA00A402031DE928EA28BA28A51FED28EE284B
:1021DA0008292508803A973E0318F428F528F62896
:1021EA007E2801300310A30CA20CA10CA00CFF3E08
:1021FA00031DF7280130F8007808A507031D0629F2
:10220A000729F6281F2918302502031C0D290E2933
:10221A001A297E280130F8000310A00DA10DA20D85
:10222A00A30DF80B11290130A5022508031D1E294B
:10223A001F290F292308F3002208F2002108F100C0
:10224A002008F00008000310720D730DF8007808DA
:10225A0083120313A5002508031D342935293E29B5
:10226A000030F3000030F2000030F1000030F000DE
:10227A00E5290310760D770DF8007808A4002408E4
:10228A00031D482949294A293529F217FF30F00543
:10229A00FF30F105FF30F2050030F305F617FF3085
:1022AA00F405FF30F505FF30F6050030F70500307C
:1022BA00A3000030A2000030A1000030A0007F304F
:1022CA00A502A0302407F8007808A5022030F800FB
:1022DA007808A4000130F8000310A00DA10DA20D8A
:1022EA00A30DF80B712977087302031D8629760856
:1022FA007202031D862975087102031D8629740856
:10230A007002031C89298A2999297408F002750820
:10231A00031C750FF1027608031C760FF202770888
:10232A00031C770FF30220140130F8000310F00D9C
:10233A00F10DF20DF30DF80B9B290130A402031DD8
:10234A00A729A8296F29A51FAB29AC29C6292508C1
:10235A00803A9F3E0318B229B329B429352901309E
:10236A000310A30CA20CA10CA00CFF3E031DB5295F
:10237A000130F8007808A507031DC429C529B42926
:10238A00DD2920302502031CCB29CC29D82935295F
:10239A000130F8000310A00DA10DA20DA30DF80B3A
:1023AA00CF290130A5022508031DDC29DD29CD2905
:1023BA002308F3002208F2002108F1002008F000A7
:1023CA0008000A168A15B6230A168A110A168A15E9
:1023DA00E2240A168A110A168A1597230A168A11FE
:1023EA00F001F101F20120300A168A15C9230A16F2
:1023FA008A11F401F40A01300A168A1514240A16FD
:10240A008A119130F3008030F4000A168A152325C8
:10241A000A168A113C3083120313A7009F30A600C4
:10242A00BE30A5007730A400831603135208C500F6
:10243A00C601C701C8014808F3004708F200460868
:10244A00F1004508F00001300A168A1546270A16D7
:10245A008A11730883120313AB007208AA00710869
:10246A00A9007008A8000A128A159F240A168A1160
:10247A0083120313270883160313D000831203134E
:10248A00260883160313CF00831203132508831625
:10249A000313CE0083120313240883160313CD00FB
:1024AA00F401F40A02300A168A1514240A168A114B
:1024BA00A93083160313C5004508A0005008A400DC
:1024CA004F08A3004E08A2004D08A100D3300A12FB
:1024DA008A1171200A168A11D330F3000030F400F1
:1024EA000A168A1523250A168A113F308312031306
:1024FA00A700F930A6009930A5009A30A4008316E7
:10250A0003136708C500C601C701C8014808F300DC
:10251A004708F2004608F1004508F00001300A16A3
:10252A008A1546270A168A11730883120313AB0009
:10253A007208AA007108A9007008A8000A128A1570
:10254A009F240A168A11831203132708831603137A
:10255A00CC0083120313260883160313CB008312BD
:10256A000313250883160313CA00831203132408CE
:10257A0083160313C9000930C5004508F400023068
:10258A000A168A1514240A168A11A230831603130E
:10259A00C5004508A0004C08A4004B08A3004A083F
:1025AA00A2004908A100D3300A128A1171200A1622
:1025BA008A11D330F3000030F4000A168A15232555
:1025CA000A168A11033083160313C6009730C50012
:1025DA00C50BED2AC60BED2A83120313071003302D
:1025EA0083160313C6009730C500C50BFA2AC60B1B
:1025FA00FA2A8312031393010A168A1583230A16E9
:10260A008A1183160313C5004508D20003308316C6
:10261A000313C6009730C500C50B112BC60B112B2F
:10262A00831203130714033083160313C7000830F9
:10263A00C6007630C500C50B202BC60B202BC70B56
:10264A00202B00001A3083160313C600F730C5008A
:10265A00C50B2D2BC60B2D2B322B831203130711FF
:10266A001A3083160313C600F730C500C50B3B2B7F
:10267A00C60B3B2B402B8312031393010A168A15B0
:10268A0083230A168A1183160313C5004508E70037
:10269A00033083160313C6009730C500C50B532BAE
:1026AA00C60B532B83120313071503308316031328
:1026BA00C7000830C6007630C500C50B622BC60BB2
:1026CA00622BC70B622B0000FE290A128A1100280E
:1026DA0083120313D1006E305102031C752B762B23
:1026EA00832C3F30A7000030A6000030A500003040
:1026FA00A4006430F6000030F7005108C200C3019C
:10270A004208F8004308F9000A168A1565250A16D0
:10271A008A11760883120313C40001300310C40D12
:10272A00FF3E031D932B0310440D7D3E84000A12C5
:10273A008A150A200A168A11C5000A128A150A2061
:10274A000A168A11C6000A128A150A200A168A115E
:10275A00C7000A128A150A200A168A11C8004808F0
:10276A00AB004708AA004608A9004508A8000A12B3
:10277A008A159F240A168A11831203132708D00088
:10278A002608CF002508CE002408CD000A30F6001E
:10279A000030F7005108C200C3014208F2004308A2
:1027AA00F3006430F0000030F1000A168A15A824FC
:1027BA000A168A117108F9007008F8000A168A15B3
:1027CA0065250A168A11760883120313C40001309C
:1027DA000310C40DFF3E031DED2B0310440D593E9B
:1027EA0084000A128A150A200A168A11C5000A12DA
:1027FA008A150A200A168A11C6000A128A150A20A0
:10280A000A168A11C7000A128A150A200A168A119C
:10281A00C8004808A7004708A6004608A5004508BA
:10282A00A4005008AB004F08AA004E08A9004D08A2
:10283A00A8000A128A159F240A168A118312031302
:10284A002708CC002608CB002508CA002408C9009E
:10285A000A30F0000030F1005108C200C3014208FA
:10286A00F2004308F3000A168A15A8240A168A11E8
:10287A00700883120313C40001300310C40DFF3E15
:10288A00031D422C0310440D353E84000A128A159A
:10289A000A200A168A11C5000A128A150A200A167F
:1028AA008A11C6000A128A150A200A168A11C70056
:1028BA000A128A150A200A168A11C8004808A700AF
:1028CA004708A6004608A5004508A4004C08AB0026
:1028DA004B08AA004A08A9004908A8000A128A1542
:1028EA009F240A168A11831203132708C100260897
:1028FA00C0002508BF002408BE00772D0B30510206
:10290A00031C882C892C342D3F30A7000030A600E8
:10291A000030A5000030A4000A30F6000030F700AD
:10292A005108C200C3014208F8004308F9000A1618
:10293A008A1565250A168A11760883120313C400BC
:10294A0001300310C40DFF3E031DA62C0310440DD5
:10295A00593E84000A128A150A200A168A11C500ED
:10296A000A128A150A200A168A11C6000A128A153C
:10297A000A200A168A11C7000A128A150A200A169C
:10298A008A11C8004808AB004708AA004608A900EF
:10299A004508A8000A128A159F240A168A1183126A
:1029AA0003132708D0002608CF002508CE002408E4
:1029BA00CD000A30F0000030F1005108C200C30116
:1029CA004208F2004308F3000A168A15A8240A16D8
:1029DA008A11700883120313C40001300310C40D56
:1029EA00FF3E031DF32C0310440D353E84000A12EA
:1029FA008A150A200A168A11C5000A128A150A209F
:102A0A000A168A11C6000A128A150A200A168A119B
:102A1A00C7000A128A150A200A168A11C80048082D
:102A2A00A7004708A6004608A5004508A4005008C4
:102A3A00AB004F08AA004E08A9004D08A8000A12C8
:102A4A008A159F240A168A11831203132708C100C4
:102A5A002608C0002508BF002408BE00772D3F3095
:102A6A00A7000030A6000030A5000030A4005108DD
:102A7A00C20001300310C20DFF3E031D3F2D03109B
:102A8A00420D353E84000A128A150A200A168A1156
:102A9A00C3000A128A150A200A168A11C4000A12E9
:102AAA008A150A200A168A11C5000A128A150A20EE
:102ABA000A168A11C6004608AB004508AA0044084F
:102ACA00A9004308A8000A128A159F240A168A1127
:102ADA00831203132708C1002608C0002508BF0077
:102AEA002408BE0008008312031355088039DA004F
:102AFA005A08E2005508DA005A07DB005B08E400CE
:102B0A00D41F882D892D8A2D6414640803198E2DEB
:102B1A008F2D9F2D640A031D932D942D9C2D00301B
:102B2A00D5000030D4000030D3000030D200D417D2
:102B3A00D501A72D0030D5000030D4000030D300D5
:102B4A000030D20059088039DA005A08E3006308D5
:102B5A0062060319B12DB22DB32D62175908DA0096
:102B6A005A07DB005B08E300D81FBC2DBD2DBE2D24
:102B7A00631463080319C22DC32DD32D630A031DE1
:102B8A00C72DC82DD02D0030D9000030D800003014
:102B9A00D7000030D600D817D901DB2D0030D90074
:102BAA000030D8000030D7000030D6006408630235
:102BBA000318E02DE12D252E621FE42DE52DE92DC8
:102BCA008030DA005A08E2066408DA005A08E5009A
:102BDA006308DA005A08E4006508DA005A08E300D4
:102BEA005208DA005A08E5005608DA005A08D200F4
:102BFA006508DA005A08D6005308DA005A08E500D0
:102C0A005708DA005A08D3006508DA005A08D700CC
:102C1A005408DA005A08E5005808DA005A08D400BD
:102C2A006508DA005A08D8005508DA005A08E5009B
:102C3A005908DA005A08D5006508DA005A08D90096
:102C4A00E5016308DA00DB015B08DD0064085A026B
:102C5A00DC00031CDD035D08803AFF0080307F0240
:102C6A00031D392E1A305C02031C3C2E3D2E7A2E8F
:102C7A00831203135508540453045204031D462EA9
:102C8A00482E0130492E0030DA005A08E50000309B
:102C9A00D5000030D4000030D3000030D2006308E1
:102CAA00DA005A08E400822E651C5C2E5D2E662E20
:102CBA006508DA0003105A0C0138DB005B08E500EE
:102CCA00682E0310E50C521C6B2E6C2E6D2EE51728
:102CDA000130DA00550DD50CD40CD30CD20CDA0B1A
:102CEA006F2E0130DA005A08E407831203136308CF
:102CFA006402031C812E822E592E621B852E862E7B
:102D0A00D12E6408031D8A2E8B2E942E0030D500F6
:102D1A000030D4000030D3000030D200FF2F560814
:102D2A00D207570803110318013E03199D2ED30732
:102D3A00580803110318013E0319A42ED407590891
:102D4A0003110318013E0319AB2ED507551CAE2EED
:102D5A00AF2E852F651CB22EB32EBC2E6508DA0065
:102D6A0003105A0C0138DB005B08E500BE2E031085
:102D7A00E50C521CC12EC22EC32EE5170130DA0013
:102D8A00550DD50CD40CD30CD20CDA0BC52E013050
:102D9A00DA005A08E407852F5508803AFF005908D7
:102DAA00803A7F02031DE32E58085402031DE32EC6
:102DBA0057085302031DE32E560852020318E62E43
:102DCA00E72E3F2FFF30DA00FF30DB00FF30DC0058
:102DDA00FF30DD005608DE005708DF005808E00023
:102DEA005908E1005208DE025308031C530FFE2E55
:102DFA00FF2EDF025408031C540F042F052FE00294
:102E0A005508031C550F0A2F0B2FE1025E08DA073B
:102E1A005F0803185F0F122F132FDB0760080318D0
:102E2A00600F182F192FDC0761080318610ADD07E4
:102E3A005D08D5005C08D4005B08D3005A08D200AC
:102E4A008030DA005A08E206E509E50A6508031D3A
:102E5A002F2F302F4D2F0130D207003003180130A9
:102E6A00D307003003180130D407003003180130AB
:102E7A00D5074D2F5608D2025708031C570FD30205
:102E8A005808031C580FD4025908031C590FD502BD
:102E9A005508540453045204031D542F552F812FEF
:102EAA006508031D592F5A2F812F0030D500003095
:102EBA00D4000030D3000030D200FF2F0130DA00F6
:102ECA000310D20DD30DD40DD50DDA0B652FE51FE6
:102EDA006F2F702F712F5214651C742F752F782F36
:102EEA000314E50D7A2F0310E50D640803197E2FEC
:102EFA007F2F812F0130E402D41F842F852F632F67
:102F0A00E301E51F892F8A2F982F65087F39031956
:102F1A008F2F902F932FE301E30A982F521C962F9D
:102F2A00972F982F902F630803199C2F9D2FD12F2D
:102F3A000130D207003003180130D30700300318DC
:102F4A000130D407003003180130D507551CAE2FC5
:102F5A00AF2FD12F5208DA005308DB005408DC00E7
:102F6A005508DD000130DE005D0DDD0CDC0CDB0CEC
:102F7A00DA0CDE0BB92F5D08D5005C08D4005B08BB
:102F8A00D3005A08D200640A0319CC2FCD2FD12FAF
:102F9A000130DA005A08E407640A0319D52FD62F3C
:102FAA00DB2F6408031DDA2FDB2FE92F0030D50051
:102FBA000030D4000030D3000030D2006408031D72
:102FCA00E72FE82FE92FE201641CEC2FED2FEF2FFA
:102FDA00D417F32F7F30DA005A08D4056408DA00D0
:102FEA0003105A0CDB005B08D500E21FFD2FFE2FF1
:062FFA00FF2FD5170800AF
:1036DC00F00070088312031386000800831603138E
:1036EC00141C792B7A2B742B080064008001840A3B
:1036FC0004060319003404067C2B0A168A1574235D
:10370C000A168A158312031313080800730872042F
:10371C00710470040319932B942B962B8030F306B1
:10372C00080000300A168A15DF230A168A150130A4
:10373C000A168A15DF230A168A150800F100F00113
:10374C003A3071020318AB2BAC2BB42B3030710216
:10375C00031CB12BB22BB42BF001F00A700C080037
:10376C00831603138801903087008901860103308A
:10377C0083160317880083120313870188018901BC
:10378C00860105140800F300831603138712731DBA
:10379C00D02BD12BD52B720894008715D92B700800
:1037AC00720494008711730871048312031394003C
:1037BC000800F30083120313091073080A168A1504
:1037CC006E230A168A158312031389140B30F20028
:1037DC006230F100F10BF02BF20BF02B0000831296
:1037EC00031389100800F2008312031309147208E2
:1037FC000A168A156E230A168A1583120313891466
:10380C001A30F100F10B082C0000831203138910FD
:10381C001A30F100F10B102C00000800F6007603B2
:10382C00031D192C1A2C262C74087F3EF5007508E4
:10383C00F70077080A168A15DF230A168A15372C23
:10384C0002307606031D2B2C2C2C372C7408BF3E13
:10385C00F5007508F70077080A168A15DF230A1693
:10386C008A150800803083120313E9066D08D50011
:10387C006C08D4006B08D3006A08D2006908D90020
:10388C006808D8006708D7006608D6000A168A119F
:10389C0078250A168A15831203135508E900540873
:1038AC00E8005308E7005208E6000800F401F501AF
:1038BC00701C612C622C682C7208F4070318F50A32
:1038CC007308F50701300310F20DF30DFF3E031DD5
:1038DC00692C01300310F10CF00CFF3E031D702C11
:1038EC0070087104031D7B2C7C2C5E2C7508F10078
:1038FC007408F0000800F800F401F5017008F200FB
:10390C00F3017208F6007308F700781C8E2C8F2CCC
:10391C00952C7608F4070318F50A7708F50701309B
:10392C000310F60DF70DFF3E031D962C0310F80C3B
:10393C007808031DA22CA32C8B2C7508F10074089D
:10394C00F0000800700871040319AD2CAE2CDD2CAE
:10395C00F501F50ABC2C01300310F00DF10DFF3E02
:10396C00031DB22C0130F4007408F507F11FBF2CB5
:10397C00C02CB12C71087302031DC62C7008720286
:10398C00031CC92CCA2CD02C7008F2027108031C21
:10399C00F303F30201300310F10CF00CFF3E031D96
:1039AC00D12C0130F502031DDC2CDD2CC02C73084E
:1039BC00F1007208F000080000300A168A156E2318
:1039CC000A168A153430F500F130F400F40BEC2CA7
:1039DC00F50BEC2CF12C3F300A168A15DF230A1656
:1039EC008A151A30F500F830F400F40BFB2CF50BAB
:1039FC00FB2C00003F300A168A15DF230A168A15A5
:103A0C008530F400F40B082D3F300A168A15DF239D
:103A1C000A168A1538300A168A15DF230A168A15F3
:103A2C000C300A168A15DF230A168A1506300A1678
:103A3C008A15DF230A168A150800F801F901482DAA
:103A4C0078087307F6007408F5000318F50AF81FD8
:103A5C00302DF5037508F700770883120313FF0068
:103A6C00760884000A128A1500200A168A150A168E
:103A7C008A15F9230A168A150130F8070318F90A72
:103A8C000030F90778087307F6007408F50003187E
:103A9C00F50AF81F522DF5037508F7007708831205
:103AAC000313FF00760884000A128A1500200A16F8
:103ABC008A15003A031D632D642D262D0800FB0189
:103ACC00FC017608770403196C2D6D2DA42DFD01D6
:103ADC00FD0A7B2D01300310F60DF70DFF3E031D83
:103AEC00712D0130FA007A08FD07F71F7E2D7F2D0E
:103AFC00702D01300310FB0DFC0DFF3E031D802DBE
:103B0C0077087902031D8C2D76087802031C8F2D03
:103B1C00902D972D7608F8027708031CF903F9020B
:103B2C007B1401300310F70CF60CFF3E031D982D8F
:103B3C000130FD02031DA32DA42D7F2D7C08F70061
:103B4C007B08F600080000307005F80000307105A5
:103B5C00F90080307205FA007F307305FB007B089A
:103B6C007A0479047804031DBC2DBD2DC52D0030BD
:103B7C00F3000030F2000030F1000030F0000030B3
:103B8C007405F80000307505F90080307605FA00F0
:103B9C007F307705FB007B087A0479047804031DD9
:103BAC00D82DD92DE12D0030F7000030F600003073
:103BBC00F5000030F40077087306031DEF2D76082E
:103BCC007206031DEF2D75087106031DEF2D740889
:103BDC0070060319F22DF32DF52D0310F62D031499
:103BEC00080073087204710470040319FE2DFF2D74
:103BFC00422EF901F90A0F2E0130F8000310F00DD6
:103C0C00F10DF20DF30DF80B042E0130F8007808CD
:103C1C00F907F31F122E132E022E73087702031DC1
:103C2C00212E72087602031D212E71087502031DC8
:103C3C00212E70087402031C242E252E332E70089E
:103C4C00F4027108031C710FF5027208031C720F49
:103C5C00F6027308031C730FF70201300310F30C08
:103C6C00F20CF10CF00CFF3E031D342E0130F90266
:103C7C00031D412E422E132E7708F3007608F20016
:103C8C007508F1007408F0000800F601F31F4F2EC0
:103C9C00502E572EF209F309F20A0319F30AF60112
:103CAC00F60AF11F5A2E5B2E602EF009F109F00A6C
:103CBC000319F10A700871040319652E662E952EEE
:103CCC00F501F50A742E01300310F00DF10DFF3ED5
:103CDC00031D6A2E0130F4007408F507F11F772ECE
:103CEC00782E692E71087302031D7E2E70087202E5
:103CFC00031C812E822E882E7008F2027108031C80
:103D0C00F303F30201300310F10CF00CFF3E031D22
:103D1C00892E0130F502031D942E952E782E7608EF
:103D2C000319992E9A2E9F2EF209F309F20A031900
:103D3C00F30A7308F1007208F000080000307005F7
:103D4C00F80000307105F90080307205FA007F3000
:103D5C007305FB007B087A0479047804031DB72EE5
:103D6C00B82EC02E0030F3000030F2000030F1000D
:103D7C000030F00000307405F80000307505F900D3
:103D8C0080307605FA007F307705FB007B087A04DB
:103D9C0079047804031DD32ED42EDC2E0030F700CA
:103DAC000030F6000030F5000030F400F31FDF2E79
:103DBC00E02E042F0030F8000030F9000030FA003B
:103DCC008030FB007008F8027108031C710FEF2E95
:103DDC00F02EF9027208031C720FF52EF62EFA0261
:103DEC007308031C730FFB2EFC2EFB027B08F300E5
:103DFC007A08F2007908F1007808F000F71F072F15
:103E0C00082F2C2F0030F8000030F9000030FA0099
:103E1C008030FB007408F8027508031C750F172F0F
:103E2C00182FF9027608031C760F1D2F1E2FFA028D
:103E3C007708031C770F232F242FFB027B08F70036
:103E4C007A08F6007908F5007808F4008030F3065B
:103E5C008030F70677087302031D3E2F7608720236
:103E6C00031D3E2F75087102031D3E2F740870024E
:103E7C000318412F422F442F0310452F0314080021
:103E8C00F800780803194B2F4C2F602FF31F4F2F7E
:103E9C00502F602F7009FA007109FB007209FC00A9
:103EAC007309FD00FA0A0319FB0A0319FC0A03192A
:103EBC00FD0A682F7308FD007208FC007108FB00F6
:103ECC007008FA007308720471047004031D6F2FDC
:103EDC00702F792F0030F3000030F2000030F10029
:103EEC000030F000FF2F9630F4007408F9008B2F8F
:103EFC000130F4007408F90701300310FD0CFC0CC0
:103F0C00FB0CFA0CFF3E031D832FFE307D05031DB9
:103F1C00902F912F7E2FAD2F0130F4007408F907EC
:103F2C000130FA07003003180130FB07003003188A
:103F3C000130FC07003003180130FD07013003107D
:103F4C00FD0CFC0CFB0CFA0CFF3E031DA52FFF30E7
:103F5C007D05031DB22FB32F922FBF2F0130F90215
:103F6C000130F4000310FA0DFB0DFC0DFD0DF40BEC
:103F7C00B82FFC1BC22FC32FC92F02307902031894
:103F8C00C82FC92FB42F7918CC2FCD2FD52FFF3098
:103F9C00FA05FF30FB057F30FC05FF30FD050310F3
:103FAC00F90C7908F400F501F601F701183003104B
:103FBC00F40DF50DF60DF70DFF3E031DDD2F740806
:103FCC00FA047508FB047608FC047708FD047808ED
:103FDC000319F12FF22FF72FF31FF52FF62FF72FD1
:103FEC00FD177D08F3007C08F2007B08F1007A08CD
:043FFC00F0000800C9
:04400E00D520FF3F7B
:00000001FF
