:020000040000FA
:100000000A128A11EB2F00308A000408840A820742
:100010000034533431343A342034203420345334CF
:1000200032343A34203420342034203453343334BE
:040030003A3400342A
:100D58000134F00070088312031386000800640051
:100D68008001840A0406031900340406B42E831291
:100D7800031318161811831603138C168312031302
:100D88009810080000300A128A11F6260A128A11F1
:100D980001300A128A11F6260A128A110800033055
:100DA80083160317880083160313860188018312AC
:100DB8000313860188010800803083160313870017
:100DC8001812831203139817831603138C168B17A4
:100DD80018118316031787158316031398161930ED
:100DE80099000800F30083120313081173080A120C
:100DF8008A11AD260A128A118312031388150B3043
:100E0800F2006230F100F10B072FF20B072F000000
:100E18008312031388110800F4007408F039F100F4
:100E28007108F30083120313081574080A128A1153
:100E3800AD260A128A118312031388151A30F1009D
:100E4800F10B242F00008312031388111A30F100CC
:100E5800F10B2C2F00000800F6007603031D352F38
:100E6800362F422F74087F3EF5007508F700770883
:100E78000A128A11F6260A128A11532F02307606B0
:100E8800031D472F482F532F7408BF3EF5007508E0
:100E9800F70077080A128A11F6260A128A11080042
:100EA800F700F501F6016B2F7508770784000A1221
:100EB8008A1103200A128A110A128A1110270A12AB
:100EC8008A110130F5070318F60A0030F60775088D
:100ED800770784000A128A1103200A128A11003A3D
:100EE800031D772F782F582F08000A128A11D3264E
:100EF8000A128A110A128A11E0260A128A110A12A3
:100F08008A11BB260A128A110A128A11A4270A1208
:100F18008A110A128A11C6260A128A11F401F40AE1
:100F280001300A128A1130270A128A1101300A1276
:100F38008A1154270A128A11922F0A128A1100283C
:100F480000300A128A11AD260A128A113430F500CF
:100F5800F130F400F40BAE2FF50BAE2FB32F3F306A
:100F68000A128A11F6260A128A111A30F500F83088
:100F7800F400F40BBD2FF50BBD2F00003F300A1213
:100F88008A11F6260A128A118530F400F40BCA2F4A
:100F98003F300A128A11F6260A128A1132300A12D2
:100FA8008A11F6260A128A1138300A128A11F62690
:100FB8000A128A110C300A128A11F6260A128A11AC
:100FC80006300A128A11F6260A128A1108000A1235
:100FD8008A11AC260A128A11FA0083132030840081
:100FE80034300A128A11B3260A128A11F801F9015B
:080FF80083010A128A11792F0E
:04400E00D520FF3F7B
:00000001FF
