:020000040000FA
:060000000A128A110C280F
:10000800FE00030EF2000A08F3000A128A111628ED
:100018000A128A110F28F701F801F90183010A125F
:100028008A119C280B1C19281A285A288312031392
:10003800061B1F28202832282728061F24282528A1
:100048002728F801F80A780803192B282C282128D2
:10005800F8010130F1007108F9074528861B352899
:10006800362845283D28861F3A283B283D28F80190
:10007800F80A78080319412842283728F80101307E
:10008800F9028C1D482849285A280A128A11B320D7
:100098000A128A11F1007108F70079080A128A1108
:1000A800C3200A128A11831203138C110B107308D0
:1000B8008A00720E8300FE0E7E0E0900831203135F
:1000C800A00083160313871283120313201D6D28C3
:1000D8006E287428760883160313940087157A28E7
:1000E800740876048316031394008711831203138C
:1000F8002008750494000800831603138516C3307E
:100108008600E8308B00880183120313860188017A
:100118008316031316179617F801831203138C110D
:100128008516831603138C15E8308B008711080099
:100138000A128A1180200A128A11F701F401F501C6
:10014800F60124300A128A1162200A128A117908EB
:10015800831203138800AB280A128A110C280A128A
:100168008A11BC200A128A1183120313130808008B
:1001780083160313141CC128C228BC280800F000E9
:0A01880070088312031393000800AF
:04400E00D520FF3F7B
:00000001FF
