:020000040000FA
:060000000A128A110C280F
:10000800FE00030EF1000A08F2000A128A111328F2
:100018000A128A110F2883010A128A1140280B1C20
:100028001628172829288312031306181C281D28A8
:1000380022280130F0007008F307282886182528A0
:10004800262828280130F3020B1072088A00710E46
:100058008300FE0E7E0E090003308316031386000C
:10006800E8308B0088018312031386018801831608
:1000780003131614961408000A128A1130200A1263
:100088008A11F301730883120313880046280A12A1
:040098008A110C2895
:00000001FF
