:020000040000FA
:060000000A128A110C280F
:10000800FE00030EF2000A08F3000A128A112728DC
:100018000A128A110F2883133030FD000030FE00C9
:10002800FD30FF00203084000A128A11EE200A12E7
:100038008A11F701F801F901FA01FB01FC018301BA
:100048000A128A117A280B1C2A282B283D28831289
:10005800031306183028312836280130F0007008BC
:10006800FC073C28861839283A283C280130FC022D
:100078000B10831203130C1F422843285B28FD0131
:10008800FD0A1E08F00004300310F00CFF3E031DAB
:1000980048287008F1007108F8001E080F39F000B0
:1000A8007008F9001E08F0007008F7000C130B1D0B
:1000B8005E285F2873280A308100091C6428652897
:1000C8006A28091089147B0887007228891C6D2802
:1000D8006E287228891009147A0887000B11730892
:1000E8008A00720E8300FE0E7E0E09000A128A1123
:1000F800CE200A128A11FC01FD01FD0A0A128A119A
:100108000D210A128A117D080A128A11AD200A12DD
:100118008A117C088312031388007808203E840023
:1001280083130008F6007608FA007908203E840058
:100138000008F6007608FB0077087C020318A5285B
:10014800A628A82809158728091187280A128A11BC
:100158000C28F500831603139F13E8308B00013039
:100168008316031788004130831203139F008316F8
:1001780003130C17831203130C137503031DC528EF
:10018800C628CD280D30F400F40BC82883120313B9
:100198009F14080001308316031788008901033073
:1001A800831603138600E8308B00880189018701D4
:1001B80083120313860188018901850183160313BD
:1001C8001614961483120313091408007E088A0073
:1001D8007F0882000A128A11EA200A128A11800016
:1001E800840A04087D0603190034FF0A0319FE0A6D
:1001F800EE283F3406345B344F3466346D347D3436
:1002080007347F346F3477347C3439345E3479344E
:10021800713487308316031381000A308312031365
:040228008100080049
:04400E00D520FF3F7B
:00000001FF
