:020000040000FA
:060000000A128A110C280F
:10000800FE00030EF1000A08F2000A128A11F72D09
:100018000A128A110F28F701F80183120313C80185
:10002800C901CA01CB0183010A128A117C2B8312F0
:1000380003132D088039B2003208B7002D08B2002A
:100048003207B3003308BD00AC1F2B282C282D28FD
:100058003D143D0803193128322841283D0A031D63
:10006800362837283F280030AD000030AC0000307B
:10007800AB000030AA00AC1749280030AD000030B2
:10008800AC000030AB000030AA0031088039B20063
:100098003208B7063108B2003207B3003308BC0093
:1000A800B01F5728582859283C143C0803195D28C4
:1000B8005E286D283C0A031D622863286B280030DF
:1000C800B1000030B0000030AF000030AE00B01713
:1000D80075280030B1000030B0000030AF000030AB
:1000E800AE003C08031979287A287F283D08031DAB
:1000F8007E287F2888280030AD000030AC00003012
:10010800AB000030AA007B2B2A08B2003208F300AB
:1001180030080A128A11AD250A128A11740883124E
:100128000313C3007308C2004208B200B301B4014C
:10013800B5013508BB003408BA003308B9003208E5
:10014800B8004308B200B301B401B5013508C100D5
:100158003408C0003308BF003208BE002B08B200C4
:100168003208F3002F080A128A11AD250A128A11E3
:10017800740883120313C3007308C2004208B20054
:10018800B301B401B5013208B807330803110318E5
:10019800013E0319D028B907340803110318013E9A
:1001A8000319D728BA07350803110318013E0319A4
:1001B800DE28BB074308B200B301B401B501320819
:1001C800BE07330803110318013E0319EC28BF07C3
:1001D800340803110318013E0319F328C007350832
:1001E80003110318013E0319FA28C1072C08B200AD
:1001F8003208F3002E080A128A11AD250A128A1154
:10020800740883120313C3007308C2004208B200C3
:10021800B301B401B5013208B80733080311031854
:10022800013E03191829B907340803110318013EC0
:1002380003191F29BA07350803110318013E0319CA
:100248002629BB074308B200B301B401B50132083F
:10025800BE07330803110318013E03193429BF07E9
:10026800340803110318013E03193B29C007350858
:1002780003110318013E03194229C1070830B200CF
:100288000310B80DB90DBA0DBB0DB20B44292B08DC
:10029800B2003208F3002E080A128A11AD250A129C
:1002A8008A11740883120313C3007308C20042083A
:1002B800B2004308B300B401B5013208B8073308E7
:1002C80003110318013E03196A29B90734080311F9
:1002D8000318013E03197129BA07350803110318D9
:1002E800013E03197829BB072A08B2003208F30037
:1002F8002F080A128A11AD250A128A11740883126E
:100308000313C3007308C2004208B2004308B300D5
:10031800B401B5013208B807330803110318013EC8
:1003280003199729B907340803110318013E031963
:100338009E29BA07350803110318013E0319A52998
:10034800BB070830B2000310B80DB90DBA0DBB0DCC
:10035800B20BA7292A08B2003208F3002E080A12A5
:100368008A11AD250A128A11740883120313C30077
:100378007308C2004208B2004308B300B401B501D3
:100388003208B807330803110318013E0319CD29B1
:10039800B907340803110318013E0319D429BA0711
:1003A800350803110318013E0319DB29BB072B0885
:1003B800B2003208F30030080A128A11AD250A1279
:1003C8008A11740883120313C3007308C200420819
:1003D800B2004308B300B401B5013208BE073308C0
:1003E80003110318013E0319FA29BF073408031142
:1003F8000318013E0319012AC00735080311031821
:10040800013E0319082AC1072C08B2003208F3007C
:100418002F080A128A11AD250A128A11740883124C
:100428000313C3007308C2004208B2004308B300B4
:10043800B401B5013208BE07330803110318013EA1
:100448000319272ABF07340803110318013E0319AB
:100458002E2AC007350803110318013E0319352A4F
:10046800C1072C08B2003208F30030080A128A11BA
:10047800AD250A128A11740883120313C300730886
:10048800C2004208B2004308B300B401B501083005
:100498000310B20DB30DB40DB50DFF3E031D4C2A6C
:1004A8003208BE07330803110318013E03195D2AF9
:1004B800BF07340803110318013E0319642AC00753
:1004C800350803110318013E03196B2AC1073808C0
:1004D800B2003908B3003A08B4003B08B500183038
:1004E8000310B50CB40CB30CB20CFF3E031D742AF8
:1004F8003208BE07330803110318013E0319852A81
:10050800BF07340803110318013E03198C2AC007DA
:10051800350803110318013E0319932AC10708304F
:10052800B2000310B80DB90DBA0DBB0DB20B952A68
:100538003D083C07B200B301B30D3208823EC20049
:1005480033080318013EFF3EC300C72A0130B2003A
:100558000310BE0DBF0DC00DC10DB20BAC2ABB1FE1
:10056800B62AB72AB82A3E140130B2000310B80DD3
:10057800B90DBA0DBB0DB20BBA2AFF30C20703186A
:10058800C30AFF30C307C01FCA2ACB2AAA2ABC0144
:10059800BB1FCF2AD02AEC2AFF303805B200FF3023
:1005A8003905B300FF303A05B4007F303B05B5008C
:1005B80035083404330432040319E32AE42AE72A09
:1005C800BC01BC0AEC2A3E1CEA2AEB2AEC2AE42AE3
:1005D8003C080319F02AF12A222B0130BE0700300B
:1005E80003180130BF07003003180130C00700307E
:1005F80003180130C107411C022B032B222B3E0894
:10060800B2003F08B3004008B4004108B50001300B
:10061800B600350DB50CB40CB30CB20CB60B0D2BE3
:100628003508C1003408C0003308BF003208BE00D6
:100638000130C2070318C30A0030C3074308803AD1
:10064800FF0080307F02031D2B2BFF304202031C6A
:100658002E2B2F2B3A2B7F3083120313C1008030AF
:10066800C0000030BF000030BE006F2B83120313A0
:100678004308803AFF0080307F02031D452B01307C
:1006880042020318482B492B552B003083120313C1
:10069800C1000030C0000030BF000030BE00B7010C
:1006A8006F2B831203134208B2003208BD00FF30DB
:1006B800BE05FF30BF057F30C0050030C1053D1CB9
:1006C800662B672B682BC0173D08B2000310320C4D
:1006D800B3003308C1003708B2003208C10441082A
:1006E800AD004008AC003F08AB003E08AA00080077
:1006F8000A128A110B260A128A11F901F90A7908D5
:100708000A128A11D6250A128A113F30831203135E
:10071800AD00F930AC009930AB009A30AA007808E7
:10072800C400C501C601C7014708F6004608F50020
:100738004508F4004408F30001300A128A114D24D8
:100748000A128A11760883120313B1007508B000E3
:100758007408AF007308AE000A128A111B200A122F
:100768008A11831203132D08CB002C08CA002B080A
:10077800C9002A08C8004B08A3004A08A200490873
:10078800A1004808A0004130A700A830A60000300A
:10079800A5000030A4000A128A1109250A128A113C
:1007A8000318D72BD82BEC2B8312031308158810AA
:1007B8000810063083120313C6001330C500AD308D
:1007C800C400C40BE52BC50BE52BC60BE52B832B0F
:1007D800413083120313A300A830A2000030A10007
:1007E8000030A0004B08A7004A08A6004908A50049
:1007F8004808A4000A128A1109250A128A11031846
:10080800062C072C282C831203134B08A3004A0834
:10081800A2004908A1004808A0004230A7001030F3
:10082800A6000030A5000030A4000A128A1109258C
:100838000A128A110318212C222C282C8312031344
:10084800081188140810DD2B423083120313A3000B
:100858001030A2000030A1000030A0004B08A70013
:100868004A08A6004908A5004808A4000A128A11E7
:1008780009250A128A110318422C432C492C831289
:100888000313081188100814DD2B832B0A128A1110
:100898000C2883120313A40024080319542C552C84
:1008A800692CF61F582C592C692C7309A600740959
:1008B800A7007509A8007609A900A60A0319A70ABE
:1008C8000319A80A0319A90A712C7608A900750842
:1008D800A8007408A7007308A600760875047404B5
:1008E8007304031D782C792C822C0030F60000301C
:1008F800F5000030F4000030F300082D9630A00019
:100908002008A500942C0130A0002008A50701307C
:100918000310A90CA80CA70CA60CFF3E031D8C2CD9
:10092800FE302905031D992C9A2C872CB62C0130F2
:10093800A0002008A5070130A607003003180130E1
:10094800A707003003180130A8070030031801304A
:10095800A90701300310A90CA80CA70CA60CFF3E90
:10096800031DAE2CFF302905031DBB2CBC2C9B2C72
:10097800C82C0130A5020130A0000310A60DA70D58
:10098800A80DA90DA00BC12CA81BCB2CCC2CD22CAC
:10099800023025020318D12CD22CBD2C2518D52CB9
:1009A800D62CDE2CFF30A605FF30A7057F30A80522
:1009B800FF30A9050310A50C2508A000A101A2017C
:1009C800A30118300310A00DA10DA20DA30DFF3E29
:1009D800031DE62C2008A6042108A7042208A80461
:1009E8002308A90424080319FA2CFB2C002DF61F50
:1009F800FE2CFF2C002DA9172908F6002808F50061
:100A08002708F4002608F3000800003083120313B7
:100A18002005F30000302105F40080302205F500A0
:100A28007F302305F6007608750474047304031DEB
:100A38001E2D1F2D272D0030A3000030A2000030EE
:100A4800A1000030A00000302405F3000030250587
:100A5800F40080302605F5007F302705F60076087B
:100A6800750474047304031D3A2D3B2D432D003087
:100A7800A7000030A6000030A5000030A400A31F86
:100A8800462D472D6B2D0030F3000030F400003068
:100A9800F5008030F6002008F3022108031C210F1E
:100AA800562D572DF4022208031C220F5C2D5D2DB4
:100AB800F5022308031C230F622D632DF602760826
:100AC800A3007508A2007408A1007308A000A71F5E
:100AD8006E2D6F2D932D0030F3000030F4000030A0
:100AE800F5008030F6002408F3022508031C250FC2
:100AF8007E2D7F2DF4022608031C260F842D852DBC
:100B0800F5022708031C270F8A2D8B2DF60276087D
:100B1800A7007508A6007408A5007308A400803013
:100B2800A3068030A70627082302031DA52D260843
:100B38002202031DA52D25082102031DA52D240829
:100B480020020318A82DA92DAB2D0310AC2D0314DA
:100B5800080083120313A400A001A1017308F50083
:100B6800F6017508A2007608A300241CBC2DBD2D33
:100B7800C32D2208A0070318A10A2308A1070130E2
:100B88000310A20DA30DFF3E031DC42D0310A40CDA
:100B98002408031DD02DD12DB92D2108F4002008DB
:100BA800F3000800F400831603139F13E8308B004A
:100BB80001308316031788004130831203139F0006
:100BC800831603130C17831203130C137403031DEA
:100BD800EE2DEF2DF62D0D30F300F30BF12D8312D2
:100BE80003139F140800831203130C1FFC2DFD2D03
:100BF800042EF901F90A1E08F0007008F8000C1319
:100C080072088A00710E8300FE0E7E0E0900013004
:100C18008316031788008901E8308B0083160313B5
:0C0C28001614961483120313091408001C
:04400E00D520FF3F7B
:00000001FF
